{
  "contractName": "EventQueue",
  "abi": [
    {
      "inputs": [],
      "name": "num_queues",
      "outputs": [
        {
          "internalType": "uint256",
          "name": "",
          "type": "uint256"
        }
      ],
      "stateMutability": "view",
      "type": "function",
      "constant": true
    },
    {
      "inputs": [
        {
          "internalType": "uint256",
          "name": "",
          "type": "uint256"
        }
      ],
      "name": "owners",
      "outputs": [
        {
          "internalType": "address",
          "name": "",
          "type": "address"
        }
      ],
      "stateMutability": "view",
      "type": "function",
      "constant": true
    },
    {
      "inputs": [
        {
          "internalType": "uint256",
          "name": "",
          "type": "uint256"
        }
      ],
      "name": "queue_next_index",
      "outputs": [
        {
          "internalType": "uint256",
          "name": "",
          "type": "uint256"
        }
      ],
      "stateMutability": "view",
      "type": "function",
      "constant": true
    },
    {
      "inputs": [
        {
          "internalType": "uint256",
          "name": "",
          "type": "uint256"
        },
        {
          "internalType": "uint256",
          "name": "",
          "type": "uint256"
        }
      ],
      "name": "queues",
      "outputs": [
        {
          "internalType": "bytes32",
          "name": "",
          "type": "bytes32"
        }
      ],
      "stateMutability": "view",
      "type": "function",
      "constant": true
    },
    {
      "inputs": [],
      "name": "create_event_stream",
      "outputs": [
        {
          "internalType": "uint256",
          "name": "",
          "type": "uint256"
        }
      ],
      "stateMutability": "nonpayable",
      "type": "function"
    },
    {
      "inputs": [
        {
          "internalType": "uint256",
          "name": "_event_id",
          "type": "uint256"
        }
      ],
      "name": "delete_event_stream",
      "outputs": [
        {
          "internalType": "uint256",
          "name": "",
          "type": "uint256"
        }
      ],
      "stateMutability": "nonpayable",
      "type": "function"
    },
    {
      "inputs": [
        {
          "internalType": "uint256",
          "name": "_event_id",
          "type": "uint256"
        },
        {
          "internalType": "bytes32",
          "name": "_hash",
          "type": "bytes32"
        }
      ],
      "name": "publish_to_event_stream",
      "outputs": [
        {
          "internalType": "uint256",
          "name": "",
          "type": "uint256"
        }
      ],
      "stateMutability": "nonpayable",
      "type": "function"
    },
    {
      "inputs": [
        {
          "internalType": "uint256",
          "name": "_event_id",
          "type": "uint256"
        },
        {
          "internalType": "uint256",
          "name": "_last_seen_index",
          "type": "uint256"
        }
      ],
      "name": "get_data_from_event_stream",
      "outputs": [
        {
          "internalType": "bytes32[200]",
          "name": "",
          "type": "bytes32[200]"
        }
      ],
      "stateMutability": "view",
      "type": "function",
      "constant": true
    }
  ],
  "bytecode": "0x6080604052600060025534801561001557600080fd5b50610a42806100256000396000f3fe608060405234801561001057600080fd5b50600436106100875760003560e01c8063aaf6a9a11161005b578063aaf6a9a114610128578063bc2fa89814610158578063d10b017a14610188578063f5ce55d1146101b857610087565b8062886f141461008c578063025e7c27146100bc5780635574d66d146100ec5780636fd51c1d1461010a575b600080fd5b6100a660048036038101906100a19190610635565b6101e8565b6040516100b3919061068e565b60405180910390f35b6100d660048036038101906100d191906106a9565b610210565b6040516100e39190610717565b60405180910390f35b6100f4610243565b6040516101019190610741565b60405180910390f35b6101126102ee565b60405161011f9190610741565b60405180910390f35b610142600480360381019061013d9190610635565b6102f4565b60405161014f9190610807565b60405180910390f35b610172600480360381019061016d919061084f565b6103a2565b60405161017f9190610741565b60405180910390f35b6101a2600480360381019061019d91906106a9565b6104b8565b6040516101af9190610741565b60405180910390f35b6101d260048036038101906101cd91906106a9565b6104d0565b6040516101df9190610741565b60405180910390f35b60006020528160005260406000208160c8811061020457600080fd5b01600091509150505481565b60036020528060005260406000206000915054906101000a900473ffffffffffffffffffffffffffffffffffffffff1681565b600061024d610567565b6000610257610545565b9050816000808381526020019081526020016000209060c861027a92919061058a565b50336003600083815260200190815260200160002060006101000a81548173ffffffffffffffffffffffffffffffffffffffff021916908373ffffffffffffffffffffffffffffffffffffffff16021790555060006001600083815260200190815260200160002081905550809250505090565b60025481565b6102fc610567565b610304610567565b60008060018561031491906108be565b90505b6000808781526020019081526020016000205060c8811015610396576000808781526020019081526020016000208160c88110610357576103566108f2565b5b0154838360c8811061036c5761036b6108f2565b5b602002018181525050818061038090610921565b925050808061038e90610921565b915050610317565b50819250505092915050565b600082338073ffffffffffffffffffffffffffffffffffffffff166003600084815260200190815260200160002060009054906101000a900473ffffffffffffffffffffffffffffffffffffffff1673ffffffffffffffffffffffffffffffffffffffff1614610447576040517f08c379a000000000000000000000000000000000000000000000000000000000815260040161043e906109ec565b60405180910390fd5b83600080878152602001908152602001600020600160008881526020019081526020016000205460c8811061047f5761047e6108f2565b5b01819055506001600086815260200190815260200160002060008154809291906104a890610921565b9190505550849250505092915050565b60016020528060005260406000206000915090505481565b600080600083815260200190815260200160002060006104f091906105ca565b6003600083815260200190815260200160002060006101000a81549073ffffffffffffffffffffffffffffffffffffffff02191690556001600083815260200190815260200160002060009055819050919050565b60006002600081548092919061055a90610921565b9190505550600254905090565b60405180611900016040528060c890602082028036833780820191505090505090565b8260c881019282156105b9579160200282015b828111156105b857825182559160200191906001019061059d565b5b5090506105c691906105dd565b5090565b508060c801906105da91906105dd565b50565b5b808211156105f65760008160009055506001016105de565b5090565b600080fd5b6000819050919050565b610612816105ff565b811461061d57600080fd5b50565b60008135905061062f81610609565b92915050565b6000806040838503121561064c5761064b6105fa565b5b600061065a85828601610620565b925050602061066b85828601610620565b9150509250929050565b6000819050919050565b61068881610675565b82525050565b60006020820190506106a3600083018461067f565b92915050565b6000602082840312156106bf576106be6105fa565b5b60006106cd84828501610620565b91505092915050565b600073ffffffffffffffffffffffffffffffffffffffff82169050919050565b6000610701826106d6565b9050919050565b610711816106f6565b82525050565b600060208201905061072c6000830184610708565b92915050565b61073b816105ff565b82525050565b60006020820190506107566000830184610732565b92915050565b600060c89050919050565b600081905092915050565b6000819050919050565b61078581610675565b82525050565b6000610797838361077c565b60208301905092915050565b6000602082019050919050565b6107b98161075c565b6107c38184610767565b92506107ce82610772565b8060005b838110156107ff5781516107e6878261078b565b96506107f1836107a3565b9250506001810190506107d2565b505050505050565b60006119008201905061081d60008301846107b0565b92915050565b61082c81610675565b811461083757600080fd5b50565b60008135905061084981610823565b92915050565b60008060408385031215610866576108656105fa565b5b600061087485828601610620565b92505060206108858582860161083a565b9150509250929050565b7f4e487b7100000000000000000000000000000000000000000000000000000000600052601160045260246000fd5b60006108c9826105ff565b91506108d4836105ff565b92508282019050808211156108ec576108eb61088f565b5b92915050565b7f4e487b7100000000000000000000000000000000000000000000000000000000600052603260045260246000fd5b600061092c826105ff565b91507fffffffffffffffffffffffffffffffffffffffffffffffffffffffffffffffff820361095e5761095d61088f565b5b600182019050919050565b600082825260208201905092915050565b7f596f7520617265206e6f7420617574686f72697a656420746f2064656c65746560008201527f2074686973207175657565210000000000000000000000000000000000000000602082015250565b60006109d6602c83610969565b91506109e18261097a565b604082019050919050565b60006020820190508181036000830152610a05816109c9565b905091905056fea264697066735822122015293e8252fd7cb7fc7e392214514ae400dc7b14a6073a836319106acc3482f964736f6c63430008130033",
  "immutableReferences": {},
  "source": "// SPDX-License-Identifier: MIT\npragma solidity ^0.8.0 ;\n\n// to do: need to handle cases when queue is full\n// to do: need to design a mechanism to clear the queue as the size is fixed\n// to do: payable functions\n\ncontract EventQueue {\n\n    // queue is actually a fixed size array\n    // The idea is that each subscriber will have a variable lastSeenIndex for every topic it is subscribed to\n    // we only store the hashes of data in the queue (which is stored on the blockchain)\n\n    mapping (uint => bytes32[200]) public queues ; // map from queue ID to the queue associated with it\n    // The size has to be declared before because memory arrays don't support the push operation (https://docs.soliditylang.org/en/v0.8.12/types.html#allocating-memory-arrays:~:text=Memory%20arrays%20with,copy%20every%20element.)\n    // bytes32 is just enough for SHA-256 hashes\n\n    mapping (uint => uint) public queue_next_index ; // in a static array, we'll need to maintain the next empty index \n\n    uint public num_queues=0 ; // need to keep as you can't get the number of mapped keys \n    \n    mapping (uint => address) public owners ; // each queue has an owner (creator of the queue), & has the power to delete it\n\n    // generates a new unique ID for a queue and return it\n    // for now, the queue IDs are integers (uint) assigned in an incremental fashion (1,2, ...)\n    function get_new_id() private returns (uint) {\n        \n        num_queues++ ;\n        return num_queues ;\n    }\n\n    // creates an new event queue (here, a fixed size array) and returns the id of the queue \n    function create_event_stream() public returns (uint) {\n\n        bytes32[200] memory queue ;\n        uint queue_id=get_new_id() ;\n        queues[queue_id]=queue ;\n        owners[queue_id]=msg.sender ;\n        queue_next_index[queue_id]=0 ;\n\n        return queue_id ;\n    }\n\n    modifier only_if_owner(uint _event_id, address _user_address) {\n        \n        require(owners[_event_id]==_user_address, \"You are not authorized to delete this queue!\");\n        _;\n    }\n    \n    // deletes an existing event queue and returns the id of the queue\n    // only the creator of the queue can delete it\n    function delete_event_stream(uint _event_id) public returns (uint) {\n        \n        delete queues[_event_id] ;\n        delete owners[_event_id] ;\n        delete queue_next_index[_event_id] ;\n\n        return _event_id ;\n    }\n\n    // pub.sol will call this function. It is assumed that all the checks will be performed in that contract \n    function publish_to_event_stream(uint _event_id, bytes32 _hash) public only_if_owner(_event_id, msg.sender) returns (uint)  {\n        \n        // queues[_event_id].push(_hash) ;\n        queues[_event_id][queue_next_index[_event_id]]=_hash ;\n        queue_next_index[_event_id]++ ;\n        return _event_id ;\n    }\n\n    // sub.sol will call this function. It is assumed that all the checks will be performed in that contract \n    // returns the messages not seen by the subscriber from the queue\n    function get_data_from_event_stream(uint _event_id, uint _last_seen_index) public view returns (bytes32[200] memory) {\n        \n        bytes32[200] memory latest_msg_hashes ;\n        uint j=0 ;\n        for(uint i=_last_seen_index+1; i<queues[_event_id].length; i++){\n            latest_msg_hashes[j]=(queues[_event_id][i]);\n            j++ ;\n        }\n\n        return latest_msg_hashes ;\n    }\n\n\n}\n",
  "sourcePath": "/home/nikhil/Documents/og_pub_sub/publisher-subscriber/contracts/scripts/events.sol",
  "compiler": {
    "name": "solc",
    "version": "0.8.19+commit.7dd6d404.Emscripten.clang"
  },
  "schemaVersion": "3.4.13",
  "updatedAt": "2023-04-07T14:21:43.039Z",
  "networkType": "ethereum",
  "devdoc": {
    "kind": "dev",
    "methods": {},
    "version": 1
  },
  "userdoc": {
    "kind": "user",
    "methods": {},
    "version": 1
  }
}