{
  "contractName": "EventQueue",
  "abi": [
    {
      "inputs": [],
      "name": "max_queue_size",
      "outputs": [
        {
          "internalType": "uint256",
          "name": "",
          "type": "uint256"
        }
      ],
      "stateMutability": "view",
      "type": "function"
    },
    {
      "inputs": [],
      "name": "num_queues",
      "outputs": [
        {
          "internalType": "uint256",
          "name": "",
          "type": "uint256"
        }
      ],
      "stateMutability": "view",
      "type": "function"
    },
    {
      "inputs": [
        {
          "internalType": "uint256",
          "name": "",
          "type": "uint256"
        }
      ],
      "name": "owners",
      "outputs": [
        {
          "internalType": "address",
          "name": "",
          "type": "address"
        }
      ],
      "stateMutability": "view",
      "type": "function"
    },
    {
      "inputs": [
        {
          "internalType": "uint256",
          "name": "",
          "type": "uint256"
        }
      ],
      "name": "queue_front_index",
      "outputs": [
        {
          "internalType": "uint256",
          "name": "",
          "type": "uint256"
        }
      ],
      "stateMutability": "view",
      "type": "function"
    },
    {
      "inputs": [
        {
          "internalType": "uint256",
          "name": "",
          "type": "uint256"
        }
      ],
      "name": "queue_next_index",
      "outputs": [
        {
          "internalType": "uint256",
          "name": "",
          "type": "uint256"
        }
      ],
      "stateMutability": "view",
      "type": "function"
    },
    {
      "inputs": [
        {
          "internalType": "uint256",
          "name": "",
          "type": "uint256"
        },
        {
          "internalType": "uint256",
          "name": "",
          "type": "uint256"
        }
      ],
      "name": "queues",
      "outputs": [
        {
          "internalType": "bytes32",
          "name": "",
          "type": "bytes32"
        }
      ],
      "stateMutability": "view",
      "type": "function"
    },
    {
      "inputs": [],
      "name": "create_event_stream",
      "outputs": [
        {
          "internalType": "uint256",
          "name": "",
          "type": "uint256"
        }
      ],
      "stateMutability": "nonpayable",
      "type": "function"
    },
    {
      "inputs": [
        {
          "internalType": "uint256",
          "name": "_event_id",
          "type": "uint256"
        }
      ],
      "name": "delete_event_stream",
      "outputs": [
        {
          "internalType": "uint256",
          "name": "",
          "type": "uint256"
        }
      ],
      "stateMutability": "nonpayable",
      "type": "function"
    },
    {
      "inputs": [
        {
          "internalType": "uint256",
          "name": "_event_id",
          "type": "uint256"
        },
        {
          "internalType": "bytes32",
          "name": "_hash",
          "type": "bytes32"
        }
      ],
      "name": "publish_to_event_stream",
      "outputs": [
        {
          "internalType": "uint256",
          "name": "",
          "type": "uint256"
        }
      ],
      "stateMutability": "nonpayable",
      "type": "function"
    },
    {
      "inputs": [
        {
          "internalType": "uint256",
          "name": "_event_id",
          "type": "uint256"
        },
        {
          "internalType": "uint256",
          "name": "_last_seen_index",
          "type": "uint256"
        }
      ],
      "name": "get_data_from_event_stream",
      "outputs": [
        {
          "internalType": "bytes32[200]",
          "name": "",
          "type": "bytes32[200]"
        }
      ],
      "stateMutability": "view",
      "type": "function"
    },
    {
      "inputs": [
        {
          "internalType": "uint256",
          "name": "_event_id",
          "type": "uint256"
        }
      ],
      "name": "get_all_queue_events",
      "outputs": [
        {
          "internalType": "bytes32[200]",
          "name": "",
          "type": "bytes32[200]"
        }
      ],
      "stateMutability": "view",
      "type": "function"
    },
    {
      "inputs": [
        {
          "internalType": "uint256",
          "name": "_event_id",
          "type": "uint256"
        },
        {
          "internalType": "uint256",
          "name": "_last_seen_index",
          "type": "uint256"
        }
      ],
      "name": "get_next_event",
      "outputs": [
        {
          "internalType": "bytes32",
          "name": "_next_hash",
          "type": "bytes32"
        }
      ],
      "stateMutability": "view",
      "type": "function"
    }
  ],
  "bytecode": "0x6080604052600060035534801561001557600080fd5b50610e38806100256000396000f3fe608060405234801561001057600080fd5b50600436106100b35760003560e01c80636fd51c1d116100715780636fd51c1d146101b457806373a1844f146101d2578063aaf6a9a114610202578063bc2fa89814610232578063d10b017a14610262578063f5ce55d114610292576100b3565b8062886f14146100b8578063025e7c27146100e857806324c9e494146101185780635574d66d146101365780635a0ab034146101545780635b1189c714610184575b600080fd5b6100d260048036038101906100cd91906109cb565b6102c2565b6040516100df9190610a24565b60405180910390f35b61010260048036038101906100fd9190610a3f565b6102ea565b60405161010f9190610aad565b60405180910390f35b61012061031d565b60405161012d9190610ad7565b60405180910390f35b61013e610322565b60405161014b9190610ad7565b60405180910390f35b61016e60048036038101906101699190610a3f565b6103e5565b60405161017b9190610b9d565b60405180910390f35b61019e60048036038101906101999190610a3f565b6104a4565b6040516101ab9190610ad7565b60405180910390f35b6101bc6104bc565b6040516101c99190610ad7565b60405180910390f35b6101ec60048036038101906101e791906109cb565b6104c2565b6040516101f99190610a24565b60405180910390f35b61021c600480360381019061021791906109cb565b610536565b6040516102299190610b9d565b60405180910390f35b61024c60048036038101906102479190610be5565b6105ef565b6040516102599190610ad7565b60405180910390f35b61027c60048036038101906102779190610a3f565b610792565b6040516102899190610ad7565b60405180910390f35b6102ac60048036038101906102a79190610a3f565b6107aa565b6040516102b99190610ad7565b60405180910390f35b60006020528160005260406000208160c881106102de57600080fd5b01600091509150505481565b60046020528060005260406000206000915054906101000a900473ffffffffffffffffffffffffffffffffffffffff1681565b60c881565b600061032c6108fd565b60006103366108db565b9050816000808381526020019081526020016000209060c8610359929190610920565b50336004600083815260200190815260200160002060006101000a81548173ffffffffffffffffffffffffffffffffffffffff021916908373ffffffffffffffffffffffffffffffffffffffff16021790555060018060008381526020019081526020016000208190555060006002600083815260200190815260200160002081905550809250505090565b6103ed6108fd565b6103f56108fd565b600080600260008681526020019081526020016000205490505b60016000868152602001908152602001600020548114610499576000808681526020019081526020016000208160c8811061044d5761044c610c25565b5b0154838360c8811061046257610461610c25565b5b602002018181525050818061047690610c83565b92505060c8818061048690610c83565b92506104929190610cfa565b905061040f565b508192505050919050565b60026020528060005260406000206000915090505481565b60035481565b60008060c86001846104d49190610d2b565b6104de9190610cfa565b905060016000858152602001908152602001600020548114610528576000808581526020019081526020016000208160c8811061051e5761051d610c25565b5b0154915050610530565b6000801b9150505b92915050565b61053e6108fd565b6105466108fd565b6000806001856105569190610d2b565b90505b600160008781526020019081526020016000205481146105e3576000808781526020019081526020016000208160c8811061059757610596610c25565b5b0154838360c881106105ac576105ab610c25565b5b60200201818152505081806105c090610c83565b92505060c881806105d090610c83565b92506105dc9190610cfa565b9050610559565b50819250505092915050565b6000600260008481526020019081526020016000205460016000858152602001908152602001600020540361069b5760026000848152602001908152602001600020600081548092919061064290610c83565b919050555060c860026000858152602001908152602001600020541061069a5760c860026000858152602001908152602001600020546106829190610cfa565b60026000858152602001908152602001600020819055505b5b60006002600085815260200190815260200160002054036106d057600160026000858152602001908152602001600020819055505b81600080858152602001908152602001600020600160008681526020019081526020016000205460c8811061070857610707610c25565b5b018190555060016000848152602001908152602001600020600081548092919061073190610c83565b919050555060c86001600085815260200190815260200160002054106107895760c860016000858152602001908152602001600020546107719190610cfa565b60016000858152602001908152602001600020819055505b82905092915050565b60016020528060005260406000206000915090505481565b600081338073ffffffffffffffffffffffffffffffffffffffff166004600084815260200190815260200160002060009054906101000a900473ffffffffffffffffffffffffffffffffffffffff1673ffffffffffffffffffffffffffffffffffffffff161461084f576040517f08c379a000000000000000000000000000000000000000000000000000000000815260040161084690610de2565b60405180910390fd5b600080858152602001908152602001600020600061086d9190610960565b6004600085815260200190815260200160002060006101000a81549073ffffffffffffffffffffffffffffffffffffffff0219169055600160008581526020019081526020016000206000905560026000858152602001908152602001600020600090558392505050919050565b6000600360008154809291906108f090610c83565b9190505550600354905090565b60405180611900016040528060c890602082028036833780820191505090505090565b8260c8810192821561094f579160200282015b8281111561094e578251825591602001919060010190610933565b5b50905061095c9190610973565b5090565b508060c801906109709190610973565b50565b5b8082111561098c576000816000905550600101610974565b5090565b600080fd5b6000819050919050565b6109a881610995565b81146109b357600080fd5b50565b6000813590506109c58161099f565b92915050565b600080604083850312156109e2576109e1610990565b5b60006109f0858286016109b6565b9250506020610a01858286016109b6565b9150509250929050565b6000819050919050565b610a1e81610a0b565b82525050565b6000602082019050610a396000830184610a15565b92915050565b600060208284031215610a5557610a54610990565b5b6000610a63848285016109b6565b91505092915050565b600073ffffffffffffffffffffffffffffffffffffffff82169050919050565b6000610a9782610a6c565b9050919050565b610aa781610a8c565b82525050565b6000602082019050610ac26000830184610a9e565b92915050565b610ad181610995565b82525050565b6000602082019050610aec6000830184610ac8565b92915050565b600060c89050919050565b600081905092915050565b6000819050919050565b610b1b81610a0b565b82525050565b6000610b2d8383610b12565b60208301905092915050565b6000602082019050919050565b610b4f81610af2565b610b598184610afd565b9250610b6482610b08565b8060005b83811015610b95578151610b7c8782610b21565b9650610b8783610b39565b925050600181019050610b68565b505050505050565b600061190082019050610bb36000830184610b46565b92915050565b610bc281610a0b565b8114610bcd57600080fd5b50565b600081359050610bdf81610bb9565b92915050565b60008060408385031215610bfc57610bfb610990565b5b6000610c0a858286016109b6565b9250506020610c1b85828601610bd0565b9150509250929050565b7f4e487b7100000000000000000000000000000000000000000000000000000000600052603260045260246000fd5b7f4e487b7100000000000000000000000000000000000000000000000000000000600052601160045260246000fd5b6000610c8e82610995565b91507fffffffffffffffffffffffffffffffffffffffffffffffffffffffffffffffff8203610cc057610cbf610c54565b5b600182019050919050565b7f4e487b7100000000000000000000000000000000000000000000000000000000600052601260045260246000fd5b6000610d0582610995565b9150610d1083610995565b925082610d2057610d1f610ccb565b5b828206905092915050565b6000610d3682610995565b9150610d4183610995565b9250828201905080821115610d5957610d58610c54565b5b92915050565b600082825260208201905092915050565b7f596f7520617265206e6f7420617574686f72697a656420746f2064656c65746560008201527f2074686973207175657565210000000000000000000000000000000000000000602082015250565b6000610dcc602c83610d5f565b9150610dd782610d70565b604082019050919050565b60006020820190508181036000830152610dfb81610dbf565b905091905056fea264697066735822122091728606e84f64d1604a83ba45165272f431e1556336efed8bc82d950896650364736f6c63430008130033",
  "immutableReferences": {},
  "source": "// SPDX-License-Identifier: MIT\r\npragma solidity ^0.8.0 ;\r\n\r\n// to do: payable functions\r\n\r\ncontract EventQueue {\r\n\r\n    // queue is actually a fixed size array\r\n    // The idea is that each subscriber will have a variable lastSeenIndex for every topic it is subscribed to\r\n    // we only store the hashes of data in the queue (which is stored on the blockchain)\r\n    uint public constant max_queue_size = 200;\r\n    mapping (uint => bytes32[max_queue_size]) public queues ; // map from queue ID to the queue associated with it\r\n    // The size has to be declared before because memory arrays don't support the push operation (https://docs.soliditylang.org/en/v0.8.12/types.html#allocating-memory-arrays:~:text=Memory%20arrays%20with,copy%20every%20element.)\r\n    // bytes32 is just enough for SHA-256 hashes\r\n\r\n    mapping (uint => uint) public queue_next_index ; // in a static array, we'll need to maintain the next empty index \r\n    mapping (uint => uint) public queue_front_index ; // in a static array, we'll need to maintain the front index (which acts like the bottom of the  queue)\r\n    uint public num_queues=0 ; // need to keep as you can't get the number of mapped keys \r\n    \r\n    mapping (uint => address) public owners ; // each queue has an owner (creator of the queue), & has the power to delete it\r\n\r\n    // generates a new unique ID for a queue and return it\r\n    // for now, the queue IDs are integers (uint) assigned in an incremental fashion (1,2, ...)\r\n    function get_new_id() private returns (uint) {\r\n        \r\n        num_queues++ ;\r\n        return num_queues ;\r\n    }\r\n\r\n    // creates an new event queue (here, a fixed size array) and returns the id of the queue \r\n    function create_event_stream() public returns (uint) {\r\n\r\n        bytes32[200] memory queue ;\r\n        uint queue_id=get_new_id() ;\r\n        queues[queue_id]=queue ;\r\n        owners[queue_id]=msg.sender ;\r\n        queue_next_index[queue_id]=1 ;\r\n        queue_front_index[queue_id]=0;\r\n\r\n        return queue_id ;\r\n    }\r\n\r\n    modifier only_if_owner(uint _event_id, address _user_address) {\r\n        \r\n        require(owners[_event_id]==_user_address, \"You are not authorized to delete this queue!\");\r\n        _;\r\n    }\r\n    \r\n    // deletes an existing event queue and returns the id of the queue\r\n    // only the creator of the queue can delete it\r\n    function delete_event_stream(uint _event_id) public only_if_owner(_event_id, msg.sender) returns (uint) {\r\n        \r\n        delete queues[_event_id] ;\r\n        delete owners[_event_id] ;\r\n        delete queue_next_index[_event_id] ;\r\n        delete queue_front_index[_event_id] ;\r\n\r\n        return _event_id ;\r\n    }\r\n\r\n    // pub.sol will call this function. It is assumed that all the checks will be performed in that contract \r\n    function publish_to_event_stream(uint _event_id, bytes32 _hash) public returns (uint)  {\r\n        \r\n        // if the queue is full (or has exhausted the capacity to store all hashes from it's creation) \r\n        if (queue_next_index[_event_id]==queue_front_index[_event_id]){\r\n            queue_front_index[_event_id]++;\r\n            \r\n            if (queue_front_index[_event_id]>=max_queue_size)\r\n                queue_front_index[_event_id]=queue_front_index[_event_id]%max_queue_size;\r\n        }\r\n\r\n        // if this is the first event to be pushed in the queue\r\n        if (queue_front_index[_event_id]==0){\r\n            queue_front_index[_event_id]=1;\r\n        }\r\n            \r\n        // put the has in the back of the queue\r\n        queues[_event_id][queue_next_index[_event_id]]=_hash ;\r\n\r\n        // increment the index of the next position\r\n        queue_next_index[_event_id]++ ;\r\n\r\n        // if at end of the queue, go to the front \r\n        if (queue_next_index[_event_id]>=max_queue_size)\r\n            queue_next_index[_event_id]=queue_next_index[_event_id]%max_queue_size;\r\n        \r\n        return _event_id ;\r\n    }\r\n\r\n    // sub.sol will call this function. It is assumed that all the checks will be performed in that contract \r\n    // returns the messages not seen by the subscriber from the queue\r\n    // _last_seen_index is maintained by the subscriber. In case the queue was adjusted i.e. more events were pushed and\r\n    // some got erased, then the subscriber loses some messages (for that we have the get_complete_queue_events function)\r\n    function get_data_from_event_stream(uint _event_id, uint _last_seen_index) public view returns (bytes32[200] memory) {\r\n        \r\n        bytes32[200] memory latest_msg_hashes ;\r\n        // the size should be integer constant\r\n        uint j=0 ;\r\n        for(uint i=_last_seen_index+1; i!=queue_next_index[_event_id]; i=(i++)%max_queue_size){\r\n            latest_msg_hashes[j]=(queues[_event_id][i]);\r\n            j++ ;\r\n        }\r\n\r\n        return latest_msg_hashes ;\r\n    }\r\n\r\n    // if the subscriber wants the latest <=max_queue_size events\r\n    function get_all_queue_events(uint _event_id) public view returns (bytes32[200] memory) {\r\n        \r\n        bytes32[200] memory latest_msg_hashes ;\r\n        uint j=0 ;\r\n        for(uint i=queue_front_index[_event_id]; i!=queue_next_index[_event_id]; i=(i++)%max_queue_size){\r\n            latest_msg_hashes[j]=(queues[_event_id][i]);\r\n            j++ ;\r\n        }\r\n\r\n        return latest_msg_hashes ;\r\n    }\r\n\r\n    function get_next_event(uint _event_id, uint _last_seen_index) public view returns (bytes32 _next_hash){\r\n        uint next = (_last_seen_index+1)%max_queue_size ;\r\n        if ( next != queue_next_index[_event_id])\r\n            return queues[_event_id][next];\r\n        else\r\n            return 0x0000000000000000000000000000000000000000000000000000000000000000 ;\r\n    }\r\n    \r\n\r\n\r\n}\r\n",
  "sourcePath": "C:\\Users\\Varu\\Desktop\\pub sub\\env1\\publisher-subscriber\\contracts\\scripts\\events.sol",
  "compiler": {
    "name": "solc",
    "version": "0.8.19+commit.7dd6d404.Emscripten.clang"
  },
  "schemaVersion": "3.4.13",
  "updatedAt": "2023-04-09T10:28:38.962Z",
  "devdoc": {
    "kind": "dev",
    "methods": {},
    "version": 1
  },
  "userdoc": {
    "kind": "user",
    "methods": {},
    "version": 1
  }
}