{
  "contractName": "pub",
  "abi": [
    {
      "inputs": [],
      "stateMutability": "nonpayable",
      "type": "constructor"
    },
    {
      "anonymous": false,
      "inputs": [
        {
          "indexed": false,
          "internalType": "address",
          "name": "pub_id",
          "type": "address"
        },
        {
          "indexed": false,
          "internalType": "uint256",
          "name": "stream_id",
          "type": "uint256"
        },
        {
          "indexed": false,
          "internalType": "string",
          "name": "data",
          "type": "string"
        }
      ],
      "name": "published_data",
      "type": "event"
    },
    {
      "anonymous": false,
      "inputs": [
        {
          "indexed": false,
          "internalType": "address",
          "name": "pub_id",
          "type": "address"
        },
        {
          "indexed": false,
          "internalType": "uint256",
          "name": "stream_id",
          "type": "uint256"
        }
      ],
      "name": "publisher_added",
      "type": "event"
    },
    {
      "anonymous": false,
      "inputs": [
        {
          "indexed": false,
          "internalType": "address",
          "name": "pub_id",
          "type": "address"
        }
      ],
      "name": "publisher_created",
      "type": "event"
    },
    {
      "anonymous": false,
      "inputs": [
        {
          "indexed": false,
          "internalType": "address",
          "name": "pub_id",
          "type": "address"
        }
      ],
      "name": "publisher_deleted",
      "type": "event"
    },
    {
      "anonymous": false,
      "inputs": [
        {
          "indexed": false,
          "internalType": "address",
          "name": "pub_id",
          "type": "address"
        },
        {
          "indexed": false,
          "internalType": "uint256",
          "name": "stream_id",
          "type": "uint256"
        }
      ],
      "name": "publisher_removed",
      "type": "event"
    },
    {
      "inputs": [
        {
          "internalType": "address",
          "name": "",
          "type": "address"
        }
      ],
      "name": "publisher",
      "outputs": [
        {
          "internalType": "string",
          "name": "name",
          "type": "string"
        },
        {
          "internalType": "address",
          "name": "address_publisher",
          "type": "address"
        },
        {
          "internalType": "bool",
          "name": "exist",
          "type": "bool"
        }
      ],
      "stateMutability": "view",
      "type": "function",
      "constant": true
    },
    {
      "inputs": [
        {
          "internalType": "string",
          "name": "_name",
          "type": "string"
        },
        {
          "internalType": "address",
          "name": "_address_publisher",
          "type": "address"
        }
      ],
      "name": "create_publisher",
      "outputs": [],
      "stateMutability": "nonpayable",
      "type": "function"
    },
    {
      "inputs": [
        {
          "internalType": "string",
          "name": "data",
          "type": "string"
        },
        {
          "internalType": "uint256",
          "name": "stream_id",
          "type": "uint256"
        },
        {
          "internalType": "address",
          "name": "pub_id",
          "type": "address"
        }
      ],
      "name": "pub_to_event",
      "outputs": [],
      "stateMutability": "nonpayable",
      "type": "function"
    },
    {
      "inputs": [
        {
          "internalType": "uint256",
          "name": "stream_id",
          "type": "uint256"
        },
        {
          "internalType": "address",
          "name": "pub_id",
          "type": "address"
        }
      ],
      "name": "add_publisher",
      "outputs": [],
      "stateMutability": "nonpayable",
      "type": "function"
    },
    {
      "inputs": [
        {
          "internalType": "uint256",
          "name": "stream_id",
          "type": "uint256"
        },
        {
          "internalType": "address",
          "name": "pub_id",
          "type": "address"
        }
      ],
      "name": "remove_publisher",
      "outputs": [],
      "stateMutability": "nonpayable",
      "type": "function"
    },
    {
      "inputs": [
        {
          "internalType": "address",
          "name": "_id",
          "type": "address"
        }
      ],
      "name": "delete_publisher",
      "outputs": [],
      "stateMutability": "nonpayable",
      "type": "function"
    },
    {
      "inputs": [
        {
          "internalType": "address",
          "name": "_id",
          "type": "address"
        }
      ],
      "name": "get_publisher",
      "outputs": [
        {
          "internalType": "string",
          "name": "",
          "type": "string"
        },
        {
          "internalType": "address",
          "name": "",
          "type": "address"
        },
        {
          "internalType": "uint256[]",
          "name": "",
          "type": "uint256[]"
        }
      ],
      "stateMutability": "view",
      "type": "function",
      "constant": true
    }
  ],
  "bytecode": "0x608060405234801561001057600080fd5b50336000806101000a81548173ffffffffffffffffffffffffffffffffffffffff021916908373ffffffffffffffffffffffffffffffffffffffff16021790555061245c806100606000396000f3fe608060405234801561001057600080fd5b506004361061007d5760003560e01c80639bcdb7301161005b5780639bcdb730146100d6578063b76b4cc7146100f2578063da1592a314610124578063ddc541dd146101405761007d565b80630805a68114610082578063081b5c5a1461009e5780631d30140d146100ba575b600080fd5b61009c60048036038101906100979190611751565b610172565b005b6100b860048036038101906100b391906117e3565b610410565b005b6100d460048036038101906100cf9190611823565b610733565b005b6100f060048036038101906100eb9190611892565b6109f0565b005b61010c60048036038101906101079190611892565b610dfa565b60405161011b93929190611a0b565b60405180910390f35b61013e600480360381019061013991906117e3565b611068565b005b61015a60048036038101906101559190611892565b611450565b60405161016993929190611a6b565b60405180910390f35b8073ffffffffffffffffffffffffffffffffffffffff163373ffffffffffffffffffffffffffffffffffffffff16146101e0576040517f08c379a00000000000000000000000000000000000000000000000000000000081526004016101d790611b1b565b60405180910390fd5b60001515600160008373ffffffffffffffffffffffffffffffffffffffff1673ffffffffffffffffffffffffffffffffffffffff16815260200190815260200160002060010160149054906101000a900460ff16151514610276576040517f08c379a000000000000000000000000000000000000000000000000000000000815260040161026d90611b87565b60405180910390fd5b60405180608001604052808381526020018273ffffffffffffffffffffffffffffffffffffffff168152602001600115158152602001600067ffffffffffffffff8111156102c7576102c66115c8565b5b6040519080825280602002602001820160405280156102f55781602001602082028036833780820191505090505b50815250600160008373ffffffffffffffffffffffffffffffffffffffff1673ffffffffffffffffffffffffffffffffffffffff168152602001908152602001600020600082015181600001908161034d9190611db3565b5060208201518160010160006101000a81548173ffffffffffffffffffffffffffffffffffffffff021916908373ffffffffffffffffffffffffffffffffffffffff16021790555060408201518160010160146101000a81548160ff02191690831515021790555060608201518160020190805190602001906103d192919061152f565b509050507f16d00bce5c5a7004116dc913bcdcf00aea2503903230eb5e411e6bfc8fe27ac1816040516104049190611e85565b60405180910390a15050565b60011515600160008373ffffffffffffffffffffffffffffffffffffffff1673ffffffffffffffffffffffffffffffffffffffff16815260200190815260200160002060010160149054906101000a900460ff161515146104a6576040517f08c379a000000000000000000000000000000000000000000000000000000000815260040161049d90611eec565b60405180910390fd5b3373ffffffffffffffffffffffffffffffffffffffff16600160008373ffffffffffffffffffffffffffffffffffffffff1673ffffffffffffffffffffffffffffffffffffffff16815260200190815260200160002060010160009054906101000a900473ffffffffffffffffffffffffffffffffffffffff1673ffffffffffffffffffffffffffffffffffffffff1614610576576040517f08c379a000000000000000000000000000000000000000000000000000000000815260040161056d90611f7e565b60405180910390fd5b6000805b600160008473ffffffffffffffffffffffffffffffffffffffff1673ffffffffffffffffffffffffffffffffffffffff168152602001908152602001600020600201805490508110156106445783600160008573ffffffffffffffffffffffffffffffffffffffff1673ffffffffffffffffffffffffffffffffffffffff168152602001908152602001600020600201828154811061061c5761061b611f9e565b5b90600052602060002001540361063157600191505b808061063c90611ffc565b91505061057a565b50600015158115151461068c576040517f08c379a0000000000000000000000000000000000000000000000000000000008152600401610683906120b6565b60405180910390fd5b600160008373ffffffffffffffffffffffffffffffffffffffff1673ffffffffffffffffffffffffffffffffffffffff1681526020019081526020016000206002018390806001815401808255809150506001900390600052602060002001600090919091909150557f6379e8afbf2389c2bc6cda465a42f36362856476092ff2c633f84bdfb6243ffc82846040516107269291906120e5565b60405180910390a1505050565b60011515600160008373ffffffffffffffffffffffffffffffffffffffff1673ffffffffffffffffffffffffffffffffffffffff16815260200190815260200160002060010160149054906101000a900460ff161515146107c9576040517f08c379a00000000000000000000000000000000000000000000000000000000081526004016107c090611eec565b60405180910390fd5b3373ffffffffffffffffffffffffffffffffffffffff16600160008373ffffffffffffffffffffffffffffffffffffffff1673ffffffffffffffffffffffffffffffffffffffff16815260200190815260200160002060010160009054906101000a900473ffffffffffffffffffffffffffffffffffffffff1673ffffffffffffffffffffffffffffffffffffffff1614610899576040517f08c379a000000000000000000000000000000000000000000000000000000000815260040161089090612180565b60405180910390fd5b6000805b600160008473ffffffffffffffffffffffffffffffffffffffff1673ffffffffffffffffffffffffffffffffffffffff168152602001908152602001600020600201805490508110156109675783600160008573ffffffffffffffffffffffffffffffffffffffff1673ffffffffffffffffffffffffffffffffffffffff168152602001908152602001600020600201828154811061093f5761093e611f9e565b5b90600052602060002001540361095457600191505b808061095f90611ffc565b91505061089d565b5060011515811515146109af576040517f08c379a00000000000000000000000000000000000000000000000000000000081526004016109a690612212565b60405180910390fd5b7f0b19dfd588e8a22c522d2bf180490a6ddcd7dd52ccecdaedf15834954d2322c48284866040516109e293929190612232565b60405180910390a150505050565b60008054906101000a900473ffffffffffffffffffffffffffffffffffffffff1673ffffffffffffffffffffffffffffffffffffffff163373ffffffffffffffffffffffffffffffffffffffff1614610a7e576040517f08c379a0000000000000000000000000000000000000000000000000000000008152600401610a75906122e2565b60405180910390fd5b60011515600160008373ffffffffffffffffffffffffffffffffffffffff1673ffffffffffffffffffffffffffffffffffffffff16815260200190815260200160002060010160149054906101000a900460ff16151514610b14576040517f08c379a0000000000000000000000000000000000000000000000000000000008152600401610b0b90611eec565b60405180910390fd5b3373ffffffffffffffffffffffffffffffffffffffff16600160008373ffffffffffffffffffffffffffffffffffffffff1673ffffffffffffffffffffffffffffffffffffffff16815260200190815260200160002060010160009054906101000a900473ffffffffffffffffffffffffffffffffffffffff1673ffffffffffffffffffffffffffffffffffffffff1614610be4576040517f08c379a0000000000000000000000000000000000000000000000000000000008152600401610bdb90612374565b60405180910390fd5b6000600160008373ffffffffffffffffffffffffffffffffffffffff1673ffffffffffffffffffffffffffffffffffffffff16815260200190815260200160002060010160146101000a81548160ff0219169083151502179055506000600160008373ffffffffffffffffffffffffffffffffffffffff1673ffffffffffffffffffffffffffffffffffffffff16815260200190815260200160002060010160006101000a81548173ffffffffffffffffffffffffffffffffffffffff021916908373ffffffffffffffffffffffffffffffffffffffff16021790555060405180602001604052806000815250600160008373ffffffffffffffffffffffffffffffffffffffff1673ffffffffffffffffffffffffffffffffffffffff1681526020019081526020016000206000019081610d1f9190611db3565b50600067ffffffffffffffff811115610d3b57610d3a6115c8565b5b604051908082528060200260200182016040528015610d695781602001602082028036833780820191505090505b50600160008373ffffffffffffffffffffffffffffffffffffffff1673ffffffffffffffffffffffffffffffffffffffff1681526020019081526020016000206002019080519060200190610dbf92919061152f565b507f62dcac1548ff55e1b738b64bb75ff90a9bbacd056db404838cbffb4468468ebe81604051610def9190611e85565b60405180910390a150565b60606000606060011515600160008673ffffffffffffffffffffffffffffffffffffffff1673ffffffffffffffffffffffffffffffffffffffff16815260200190815260200160002060010160149054906101000a900460ff16151514610e96576040517f08c379a0000000000000000000000000000000000000000000000000000000008152600401610e8d90611eec565b60405180910390fd5b600160008573ffffffffffffffffffffffffffffffffffffffff1673ffffffffffffffffffffffffffffffffffffffff168152602001908152602001600020600001600160008673ffffffffffffffffffffffffffffffffffffffff1673ffffffffffffffffffffffffffffffffffffffff16815260200190815260200160002060010160009054906101000a900473ffffffffffffffffffffffffffffffffffffffff16600160008773ffffffffffffffffffffffffffffffffffffffff1673ffffffffffffffffffffffffffffffffffffffff168152602001908152602001600020600201828054610f8990611bd6565b80601f0160208091040260200160405190810160405280929190818152602001828054610fb590611bd6565b80156110025780601f10610fd757610100808354040283529160200191611002565b820191906000526020600020905b815481529060010190602001808311610fe557829003601f168201915b505050505092508080548060200260200160405190810160405280929190818152602001828054801561105457602002820191906000526020600020905b815481526020019060010190808311611040575b505050505090509250925092509193909250565b60011515600160008373ffffffffffffffffffffffffffffffffffffffff1673ffffffffffffffffffffffffffffffffffffffff16815260200190815260200160002060010160149054906101000a900460ff161515146110fe576040517f08c379a00000000000000000000000000000000000000000000000000000000081526004016110f590611eec565b60405180910390fd5b3373ffffffffffffffffffffffffffffffffffffffff16600160008373ffffffffffffffffffffffffffffffffffffffff1673ffffffffffffffffffffffffffffffffffffffff16815260200190815260200160002060010160009054906101000a900473ffffffffffffffffffffffffffffffffffffffff1673ffffffffffffffffffffffffffffffffffffffff16146111ce576040517f08c379a00000000000000000000000000000000000000000000000000000000081526004016111c590612406565b60405180910390fd5b6000805b600160008473ffffffffffffffffffffffffffffffffffffffff1673ffffffffffffffffffffffffffffffffffffffff1681526020019081526020016000206002018054905081101561129c5783600160008573ffffffffffffffffffffffffffffffffffffffff1673ffffffffffffffffffffffffffffffffffffffff168152602001908152602001600020600201828154811061127457611273611f9e565b5b90600052602060002001540361128957600191505b808061129490611ffc565b9150506111d2565b5060011515811515146112e4576040517f08c379a00000000000000000000000000000000000000000000000000000000081526004016112db90612212565b60405180910390fd5b60005b600160008473ffffffffffffffffffffffffffffffffffffffff1673ffffffffffffffffffffffffffffffffffffffff168152602001908152602001600020600201805490508110156114115783600160008573ffffffffffffffffffffffffffffffffffffffff1673ffffffffffffffffffffffffffffffffffffffff168152602001908152602001600020600201828154811061138957611388611f9e565b5b9060005260206000200154036113fe576000600160008573ffffffffffffffffffffffffffffffffffffffff1673ffffffffffffffffffffffffffffffffffffffff16815260200190815260200160002060020182815481106113ef576113ee611f9e565b5b90600052602060002001819055505b808061140990611ffc565b9150506112e7565b507f1685117dac828bb1ddd751e508f2586be6e53a25d38f7e165c3b8b93206bcfcb82846040516114439291906120e5565b60405180910390a1505050565b600160205280600052604060002060009150905080600001805461147390611bd6565b80601f016020809104026020016040519081016040528092919081815260200182805461149f90611bd6565b80156114ec5780601f106114c1576101008083540402835291602001916114ec565b820191906000526020600020905b8154815290600101906020018083116114cf57829003601f168201915b5050505050908060010160009054906101000a900473ffffffffffffffffffffffffffffffffffffffff16908060010160149054906101000a900460ff16905083565b82805482825590600052602060002090810192821561156b579160200282015b8281111561156a57825182559160200191906001019061154f565b5b509050611578919061157c565b5090565b5b8082111561159557600081600090555060010161157d565b5090565b6000604051905090565b600080fd5b600080fd5b600080fd5b600080fd5b6000601f19601f8301169050919050565b7f4e487b7100000000000000000000000000000000000000000000000000000000600052604160045260246000fd5b611600826115b7565b810181811067ffffffffffffffff8211171561161f5761161e6115c8565b5b80604052505050565b6000611632611599565b905061163e82826115f7565b919050565b600067ffffffffffffffff82111561165e5761165d6115c8565b5b611667826115b7565b9050602081019050919050565b82818337600083830152505050565b600061169661169184611643565b611628565b9050828152602081018484840111156116b2576116b16115b2565b5b6116bd848285611674565b509392505050565b600082601f8301126116da576116d96115ad565b5b81356116ea848260208601611683565b91505092915050565b600073ffffffffffffffffffffffffffffffffffffffff82169050919050565b600061171e826116f3565b9050919050565b61172e81611713565b811461173957600080fd5b50565b60008135905061174b81611725565b92915050565b60008060408385031215611768576117676115a3565b5b600083013567ffffffffffffffff811115611786576117856115a8565b5b611792858286016116c5565b92505060206117a38582860161173c565b9150509250929050565b6000819050919050565b6117c0816117ad565b81146117cb57600080fd5b50565b6000813590506117dd816117b7565b92915050565b600080604083850312156117fa576117f96115a3565b5b6000611808858286016117ce565b92505060206118198582860161173c565b9150509250929050565b60008060006060848603121561183c5761183b6115a3565b5b600084013567ffffffffffffffff81111561185a576118596115a8565b5b611866868287016116c5565b9350506020611877868287016117ce565b92505060406118888682870161173c565b9150509250925092565b6000602082840312156118a8576118a76115a3565b5b60006118b68482850161173c565b91505092915050565b600081519050919050565b600082825260208201905092915050565b60005b838110156118f95780820151818401526020810190506118de565b60008484015250505050565b6000611910826118bf565b61191a81856118ca565b935061192a8185602086016118db565b611933816115b7565b840191505092915050565b61194781611713565b82525050565b600081519050919050565b600082825260208201905092915050565b6000819050602082019050919050565b611982816117ad565b82525050565b60006119948383611979565b60208301905092915050565b6000602082019050919050565b60006119b88261194d565b6119c28185611958565b93506119cd83611969565b8060005b838110156119fe5781516119e58882611988565b97506119f0836119a0565b9250506001810190506119d1565b5085935050505092915050565b60006060820190508181036000830152611a258186611905565b9050611a34602083018561193e565b8181036040830152611a4681846119ad565b9050949350505050565b60008115159050919050565b611a6581611a50565b82525050565b60006060820190508181036000830152611a858186611905565b9050611a94602083018561193e565b611aa16040830184611a5c565b949350505050565b7f796f7520617265206e6f7420616c6c6f77656420746f2063726561746520707560008201527f626c697368657220776974682074686973206164647265737300000000000000602082015250565b6000611b056039836118ca565b9150611b1082611aa9565b604082019050919050565b60006020820190508181036000830152611b3481611af8565b9050919050565b7f7075626c697368657220616c7265616479206578697374000000000000000000600082015250565b6000611b716017836118ca565b9150611b7c82611b3b565b602082019050919050565b60006020820190508181036000830152611ba081611b64565b9050919050565b7f4e487b7100000000000000000000000000000000000000000000000000000000600052602260045260246000fd5b60006002820490506001821680611bee57607f821691505b602082108103611c0157611c00611ba7565b5b50919050565b60008190508160005260206000209050919050565b60006020601f8301049050919050565b600082821b905092915050565b600060088302611c697fffffffffffffffffffffffffffffffffffffffffffffffffffffffffffffffff82611c2c565b611c738683611c2c565b95508019841693508086168417925050509392505050565b6000819050919050565b6000611cb0611cab611ca6846117ad565b611c8b565b6117ad565b9050919050565b6000819050919050565b611cca83611c95565b611cde611cd682611cb7565b848454611c39565b825550505050565b600090565b611cf3611ce6565b611cfe818484611cc1565b505050565b5b81811015611d2257611d17600082611ceb565b600181019050611d04565b5050565b601f821115611d6757611d3881611c07565b611d4184611c1c565b81016020851015611d50578190505b611d64611d5c85611c1c565b830182611d03565b50505b505050565b600082821c905092915050565b6000611d8a60001984600802611d6c565b1980831691505092915050565b6000611da38383611d79565b9150826002028217905092915050565b611dbc826118bf565b67ffffffffffffffff811115611dd557611dd46115c8565b5b611ddf8254611bd6565b611dea828285611d26565b600060209050601f831160018114611e1d5760008415611e0b578287015190505b611e158582611d97565b865550611e7d565b601f198416611e2b86611c07565b60005b82811015611e5357848901518255600182019150602085019450602081019050611e2e565b86831015611e705784890151611e6c601f891682611d79565b8355505b6001600288020188555050505b505050505050565b6000602082019050611e9a600083018461193e565b92915050565b7f7075626c697368657220646f6573206e6f742065786973740000000000000000600082015250565b6000611ed66018836118ca565b9150611ee182611ea0565b602082019050919050565b60006020820190508181036000830152611f0581611ec9565b9050919050565b7f796f7520617265206e6f7420616c6c6f77656420746f2061646420746869732060008201527f7075626c69736865720000000000000000000000000000000000000000000000602082015250565b6000611f686029836118ca565b9150611f7382611f0c565b604082019050919050565b60006020820190508181036000830152611f9781611f5b565b9050919050565b7f4e487b7100000000000000000000000000000000000000000000000000000000600052603260045260246000fd5b7f4e487b7100000000000000000000000000000000000000000000000000000000600052601160045260246000fd5b6000612007826117ad565b91507fffffffffffffffffffffffffffffffffffffffffffffffffffffffffffffffff820361203957612038611fcd565b5b600182019050919050565b7f7075626c697368657220616c7265616479206861732061636365737320746f2060008201527f74686973206576656e7400000000000000000000000000000000000000000000602082015250565b60006120a0602a836118ca565b91506120ab82612044565b604082019050919050565b600060208201905081810360008301526120cf81612093565b9050919050565b6120df816117ad565b82525050565b60006040820190506120fa600083018561193e565b61210760208301846120d6565b9392505050565b7f796f7520617265206e6f7420616c6c6f77656420746f207075626c697368207460008201527f6f2074686973206576656e740000000000000000000000000000000000000000602082015250565b600061216a602c836118ca565b91506121758261210e565b604082019050919050565b600060208201905081810360008301526121998161215d565b9050919050565b7f7075626c697368657220646f6573206e6f74206861766520616363657373207460008201527f6f2074686973206576656e740000000000000000000000000000000000000000602082015250565b60006121fc602c836118ca565b9150612207826121a0565b604082019050919050565b6000602082019050818103600083015261222b816121ef565b9050919050565b6000606082019050612247600083018661193e565b61225460208301856120d6565b81810360408301526122668184611905565b9050949350505050565b7f4f6e6c79206f776e65722063616e2063616c6c20746869732066756e6374696f60008201527f6e2e000000000000000000000000000000000000000000000000000000000000602082015250565b60006122cc6022836118ca565b91506122d782612270565b604082019050919050565b600060208201905081810360008301526122fb816122bf565b9050919050565b7f796f7520617265206e6f7420616c6c6f77656420746f2064656c65746520746860008201527f6973207075626c69736865720000000000000000000000000000000000000000602082015250565b600061235e602c836118ca565b915061236982612302565b604082019050919050565b6000602082019050818103600083015261238d81612351565b9050919050565b7f796f7520617265206e6f7420616c6c6f77656420746f2072656d6f766520746860008201527f6973207075626c69736865720000000000000000000000000000000000000000602082015250565b60006123f0602c836118ca565b91506123fb82612394565b604082019050919050565b6000602082019050818103600083015261241f816123e3565b905091905056fea264697066735822122084b4912d353d2dc7e0693f60bb72e9ce634394fc1ff1a1c9a77ad78df2d4071764736f6c63430008130033",
  "immutableReferences": {},
  "source": "// SPDX-License-Identifier: GPL-3.0\n\npragma solidity >=0.7.0 <0.9.0;\n// import {EventQueue} from \"./events.sol\";\n\n\ncontract pub{\n\n    // this contract is stores information about all the publishers\n    // it can create a publisher.\n    // it also has the function to publish to an event stream\n    // it also has the function to add or remove a publisher from an event stream\n//    EventQueue my_queue = EventQueue(0x2A7cA5625D29537671F089E1f99DF856B17d725D);\n    \n    \n\n    address owner;\n    constructor() {\n        owner = msg.sender;\n    }\n    modifier onlyOwner() {\n        require(msg.sender == owner, \"Only owner can call this function.\");\n        _;\n    }\n    struct publisher1{\n        string name;\n        address address_publisher;\n        bool exist;\n        uint[] access;\n    }\n    mapping (address => publisher1) public publisher;\n\n    event publisher_created(address pub_id);\n    event published_data(address pub_id, uint256 stream_id, string data);\n    event publisher_added(address pub_id, uint256 stream_id);\n    event publisher_removed(address pub_id, uint256 stream_id);\n    event publisher_deleted(address pub_id);\n    \n    //create publisher allows users to create a publisher and it emits a publisher \n    function create_publisher(string memory _name, address _address_publisher) public{\n        require(msg.sender == _address_publisher, \"you are not allowed to create publisher with this address\");\n        require(publisher[_address_publisher].exist == false, \"publisher already exist\");\n        publisher[_address_publisher] = publisher1(_name, _address_publisher, true, new uint[](0));\n        emit publisher_created(_address_publisher);\n    }\n\n    function pub_to_event(string memory data, uint stream_id, address pub_id) public{\n        require(publisher[pub_id].exist == true, \"publisher does not exist\");\n        require(publisher[pub_id].address_publisher == msg.sender, \"you are not allowed to publish to this event\");\n        bool check= false;\n        for(uint i = 0; i < publisher[pub_id].access.length; i++){\n            if(publisher[pub_id].access[i] == stream_id){\n                check = true;\n            }\n        }\n        require(check == true, \"publisher does not have access to this event\");\n        // my_queue.publish_to_event_stream(stream_id, data);\n        emit published_data( pub_id, stream_id, data);\n        \n    }\n\n    function add_publisher(uint stream_id, address pub_id) public{\n        require(publisher[pub_id].exist == true, \"publisher does not exist\");\n        require(publisher[pub_id].address_publisher == msg.sender, \"you are not allowed to add this publisher\");\n        bool check= false;\n        for(uint i = 0; i < publisher[pub_id].access.length; i++){\n            if(publisher[pub_id].access[i] == stream_id){\n                check = true;\n            }\n        }\n        require(check == false, \"publisher already has access to this event\");\n        publisher[pub_id].access.push(stream_id);\n        emit publisher_added( pub_id,stream_id);\n    }\n\n    function remove_publisher(uint stream_id,address pub_id) public {\n        require(publisher[pub_id].exist == true, \"publisher does not exist\");\n        require(publisher[pub_id].address_publisher == msg.sender, \"you are not allowed to remove this publisher\");\n        bool check= false;\n        for(uint i = 0; i < publisher[pub_id].access.length; i++){\n            if(publisher[pub_id].access[i] == stream_id){\n                check = true;\n            }\n        }\n        require(check == true, \"publisher does not have access to this event\");\n        for(uint i = 0; i < publisher[pub_id].access.length; i++){\n            if(publisher[pub_id].access[i] == stream_id){\n                publisher[pub_id].access[i] = 0;\n            }\n        }\n        emit publisher_removed(pub_id, stream_id);\n    \n    }\n    function delete_publisher(address _id) public onlyOwner {\n        require(publisher[_id].exist == true, \"publisher does not exist\");\n        require(publisher[_id].address_publisher == msg.sender, \"you are not allowed to delete this publisher\");\n        publisher[_id].exist = false;\n        publisher[_id].address_publisher = address(0);\n        publisher[_id].name = \"\";\n        publisher[_id].access = new uint[](0);\n        emit publisher_deleted(_id);\n    }\n\n    function get_publisher(address _id) public view returns(string memory, address, uint[] memory){\n        require(publisher[_id].exist == true, \"publisher does not exist\");\n        return (publisher[_id].name, publisher[_id].address_publisher, publisher[_id].access);\n    }\n\n}",
  "sourcePath": "/home/nikhil/Documents/og_pub_sub/publisher-subscriber/contracts/scripts/pub.sol",
  "compiler": {
    "name": "solc",
    "version": "0.8.19+commit.7dd6d404.Emscripten.clang"
  },
  "schemaVersion": "3.4.13",
  "updatedAt": "2023-04-14T23:43:59.672Z",
  "networkType": "ethereum",
  "devdoc": {
    "kind": "dev",
    "methods": {},
    "version": 1
  },
  "userdoc": {
    "kind": "user",
    "methods": {},
    "version": 1
  }
}