{
  "contractName": "pub",
  "abi": [
    {
      "inputs": [],
      "stateMutability": "nonpayable",
      "type": "constructor"
    },
    {
      "anonymous": false,
      "inputs": [
        {
          "indexed": true,
          "internalType": "uint256",
          "name": "stream_id",
          "type": "uint256"
        },
        {
          "indexed": true,
          "internalType": "address",
          "name": "pub_id",
          "type": "address"
        }
      ],
      "name": "published",
      "type": "event"
    },
    {
      "anonymous": false,
      "inputs": [
        {
          "indexed": true,
          "internalType": "uint256",
          "name": "stream_id",
          "type": "uint256"
        },
        {
          "indexed": true,
          "internalType": "address",
          "name": "pub_id",
          "type": "address"
        }
      ],
      "name": "publisher_added",
      "type": "event"
    },
    {
      "anonymous": false,
      "inputs": [
        {
          "indexed": true,
          "internalType": "string",
          "name": "name",
          "type": "string"
        },
        {
          "indexed": true,
          "internalType": "address",
          "name": "address_publisher",
          "type": "address"
        }
      ],
      "name": "publisher_created",
      "type": "event"
    },
    {
      "anonymous": false,
      "inputs": [
        {
          "indexed": true,
          "internalType": "uint256",
          "name": "stream_id",
          "type": "uint256"
        },
        {
          "indexed": true,
          "internalType": "address",
          "name": "pub_id",
          "type": "address"
        }
      ],
      "name": "publisher_removed",
      "type": "event"
    },
    {
      "inputs": [
        {
          "internalType": "string",
          "name": "_name",
          "type": "string"
        },
        {
          "internalType": "address",
          "name": "_address_publisher",
          "type": "address"
        },
        {
          "internalType": "uint256",
          "name": "stream_id",
          "type": "uint256"
        }
      ],
      "name": "create_publisher",
      "outputs": [
        {
          "internalType": "uint256",
          "name": "",
          "type": "uint256"
        }
      ],
      "stateMutability": "nonpayable",
      "type": "function"
    },
    {
      "inputs": [
        {
          "internalType": "bytes32",
          "name": "data",
          "type": "bytes32"
        },
        {
          "internalType": "uint256",
          "name": "stream_id",
          "type": "uint256"
        },
        {
          "internalType": "address",
          "name": "pub_id",
          "type": "address"
        }
      ],
      "name": "pub_to_event",
      "outputs": [],
      "stateMutability": "nonpayable",
      "type": "function"
    },
    {
      "inputs": [
        {
          "internalType": "uint256",
          "name": "stream_id",
          "type": "uint256"
        },
        {
          "internalType": "address",
          "name": "pub_id",
          "type": "address"
        }
      ],
      "name": "add_publisher",
      "outputs": [],
      "stateMutability": "nonpayable",
      "type": "function"
    },
    {
      "inputs": [
        {
          "internalType": "uint256",
          "name": "stream_id",
          "type": "uint256"
        },
        {
          "internalType": "address",
          "name": "pub_id",
          "type": "address"
        }
      ],
      "name": "remove_publisher",
      "outputs": [],
      "stateMutability": "nonpayable",
      "type": "function"
    },
    {
      "inputs": [
        {
          "internalType": "address",
          "name": "_id",
          "type": "address"
        }
      ],
      "name": "delete_publisher",
      "outputs": [],
      "stateMutability": "nonpayable",
      "type": "function"
    }
  ],
  "bytecode": "0x608060405234801561001057600080fd5b50336000806101000a81548173ffffffffffffffffffffffffffffffffffffffff021916908373ffffffffffffffffffffffffffffffffffffffff160217905550611ecc806100606000396000f3fe608060405234801561001057600080fd5b50600436106100575760003560e01c8063081b5c5a1461005c5780639bcdb73014610078578063b48c222c14610094578063da1592a3146100b0578063f955b2b1146100cc575b600080fd5b610076600480360381019061007191906112a8565b6100fc565b005b610092600480360381019061008d91906112e8565b61042a565b005b6100ae60048036038101906100a9919061134b565b6107fd565b005b6100ca60048036038101906100c591906112a8565b610ac3565b005b6100e660048036038101906100e191906114e4565b610eb6565b6040516100f39190611562565b60405180910390f35b60011515600160008373ffffffffffffffffffffffffffffffffffffffff1673ffffffffffffffffffffffffffffffffffffffff16815260200190815260200160002060010160149054906101000a900460ff16151514610192576040517f08c379a0000000000000000000000000000000000000000000000000000000008152600401610189906115da565b60405180910390fd5b3373ffffffffffffffffffffffffffffffffffffffff16600160008373ffffffffffffffffffffffffffffffffffffffff1673ffffffffffffffffffffffffffffffffffffffff16815260200190815260200160002060010160009054906101000a900473ffffffffffffffffffffffffffffffffffffffff1673ffffffffffffffffffffffffffffffffffffffff1614610262576040517f08c379a00000000000000000000000000000000000000000000000000000000081526004016102599061166c565b60405180910390fd5b6000805b600160008473ffffffffffffffffffffffffffffffffffffffff1673ffffffffffffffffffffffffffffffffffffffff168152602001908152602001600020600201805490508110156103305783600160008573ffffffffffffffffffffffffffffffffffffffff1673ffffffffffffffffffffffffffffffffffffffff16815260200190815260200160002060020182815481106103085761030761168c565b5b90600052602060002001540361031d57600191505b8080610328906116ea565b915050610266565b506000151581151514610378576040517f08c379a000000000000000000000000000000000000000000000000000000000815260040161036f906117a4565b60405180910390fd5b600160008373ffffffffffffffffffffffffffffffffffffffff1673ffffffffffffffffffffffffffffffffffffffff1681526020019081526020016000206002018390806001815401808255809150506001900390600052602060002001600090919091909150558173ffffffffffffffffffffffffffffffffffffffff16837f716893baa0554c7338db9c234baa0ecf3ccc7a4a4919a85ddc1bf1ab72925aa960405160405180910390a3505050565b60008054906101000a900473ffffffffffffffffffffffffffffffffffffffff1673ffffffffffffffffffffffffffffffffffffffff163373ffffffffffffffffffffffffffffffffffffffff16146104b8576040517f08c379a00000000000000000000000000000000000000000000000000000000081526004016104af90611836565b60405180910390fd5b60011515600160008373ffffffffffffffffffffffffffffffffffffffff1673ffffffffffffffffffffffffffffffffffffffff16815260200190815260200160002060010160149054906101000a900460ff1615151461054e576040517f08c379a0000000000000000000000000000000000000000000000000000000008152600401610545906115da565b60405180910390fd5b3373ffffffffffffffffffffffffffffffffffffffff16600160008373ffffffffffffffffffffffffffffffffffffffff1673ffffffffffffffffffffffffffffffffffffffff16815260200190815260200160002060010160009054906101000a900473ffffffffffffffffffffffffffffffffffffffff1673ffffffffffffffffffffffffffffffffffffffff161461061e576040517f08c379a0000000000000000000000000000000000000000000000000000000008152600401610615906118c8565b60405180910390fd5b6000600160008373ffffffffffffffffffffffffffffffffffffffff1673ffffffffffffffffffffffffffffffffffffffff16815260200190815260200160002060010160146101000a81548160ff0219169083151502179055506000600160008373ffffffffffffffffffffffffffffffffffffffff1673ffffffffffffffffffffffffffffffffffffffff16815260200190815260200160002060010160006101000a81548173ffffffffffffffffffffffffffffffffffffffff021916908373ffffffffffffffffffffffffffffffffffffffff16021790555060405180602001604052806000815250600160008373ffffffffffffffffffffffffffffffffffffffff1673ffffffffffffffffffffffffffffffffffffffff16815260200190815260200160002060000190816107599190611aff565b50600067ffffffffffffffff811115610775576107746113b9565b5b6040519080825280602002602001820160405280156107a35781602001602082028036833780820191505090505b50600160008373ffffffffffffffffffffffffffffffffffffffff1673ffffffffffffffffffffffffffffffffffffffff16815260200190815260200160002060020190805190602001906107f9929190611196565b5050565b60011515600160008373ffffffffffffffffffffffffffffffffffffffff1673ffffffffffffffffffffffffffffffffffffffff16815260200190815260200160002060010160149054906101000a900460ff16151514610893576040517f08c379a000000000000000000000000000000000000000000000000000000000815260040161088a906115da565b60405180910390fd5b3373ffffffffffffffffffffffffffffffffffffffff16600160008373ffffffffffffffffffffffffffffffffffffffff1673ffffffffffffffffffffffffffffffffffffffff16815260200190815260200160002060010160009054906101000a900473ffffffffffffffffffffffffffffffffffffffff1673ffffffffffffffffffffffffffffffffffffffff1614610963576040517f08c379a000000000000000000000000000000000000000000000000000000000815260040161095a90611c43565b60405180910390fd5b6000805b600160008473ffffffffffffffffffffffffffffffffffffffff1673ffffffffffffffffffffffffffffffffffffffff16815260200190815260200160002060020180549050811015610a315783600160008573ffffffffffffffffffffffffffffffffffffffff1673ffffffffffffffffffffffffffffffffffffffff1681526020019081526020016000206002018281548110610a0957610a0861168c565b5b906000526020600020015403610a1e57600191505b8080610a29906116ea565b915050610967565b506001151581151514610a79576040517f08c379a0000000000000000000000000000000000000000000000000000000008152600401610a7090611cd5565b60405180910390fd5b8173ffffffffffffffffffffffffffffffffffffffff16837f3d41a300a1b1b8b4fe2185cb92268fa548777a3ca6c205fedbf0ea32ab3daffc60405160405180910390a350505050565b60011515600160008373ffffffffffffffffffffffffffffffffffffffff1673ffffffffffffffffffffffffffffffffffffffff16815260200190815260200160002060010160149054906101000a900460ff16151514610b59576040517f08c379a0000000000000000000000000000000000000000000000000000000008152600401610b50906115da565b60405180910390fd5b3373ffffffffffffffffffffffffffffffffffffffff16600160008373ffffffffffffffffffffffffffffffffffffffff1673ffffffffffffffffffffffffffffffffffffffff16815260200190815260200160002060010160009054906101000a900473ffffffffffffffffffffffffffffffffffffffff1673ffffffffffffffffffffffffffffffffffffffff1614610c29576040517f08c379a0000000000000000000000000000000000000000000000000000000008152600401610c2090611d67565b60405180910390fd5b6000805b600160008473ffffffffffffffffffffffffffffffffffffffff1673ffffffffffffffffffffffffffffffffffffffff16815260200190815260200160002060020180549050811015610cf75783600160008573ffffffffffffffffffffffffffffffffffffffff1673ffffffffffffffffffffffffffffffffffffffff1681526020019081526020016000206002018281548110610ccf57610cce61168c565b5b906000526020600020015403610ce457600191505b8080610cef906116ea565b915050610c2d565b506001151581151514610d3f576040517f08c379a0000000000000000000000000000000000000000000000000000000008152600401610d3690611cd5565b60405180910390fd5b60005b600160008473ffffffffffffffffffffffffffffffffffffffff1673ffffffffffffffffffffffffffffffffffffffff16815260200190815260200160002060020180549050811015610e6c5783600160008573ffffffffffffffffffffffffffffffffffffffff1673ffffffffffffffffffffffffffffffffffffffff1681526020019081526020016000206002018281548110610de457610de361168c565b5b906000526020600020015403610e59576000600160008573ffffffffffffffffffffffffffffffffffffffff1673ffffffffffffffffffffffffffffffffffffffff1681526020019081526020016000206002018281548110610e4a57610e4961168c565b5b90600052602060002001819055505b8080610e64906116ea565b915050610d42565b508173ffffffffffffffffffffffffffffffffffffffff16837f705dd52cc5dc94e0cbf317ab8540d5429a98cebb211a36fff7f9707caf1df00860405160405180910390a3505050565b60008273ffffffffffffffffffffffffffffffffffffffff163373ffffffffffffffffffffffffffffffffffffffff1614610f26576040517f08c379a0000000000000000000000000000000000000000000000000000000008152600401610f1d90611df9565b60405180910390fd5b60405180608001604052808581526020018473ffffffffffffffffffffffffffffffffffffffff168152602001600115158152602001600067ffffffffffffffff811115610f7757610f766113b9565b5b604051908082528060200260200182016040528015610fa55781602001602082028036833780820191505090505b50815250600160008573ffffffffffffffffffffffffffffffffffffffff1673ffffffffffffffffffffffffffffffffffffffff1681526020019081526020016000206000820151816000019081610ffd9190611aff565b5060208201518160010160006101000a81548173ffffffffffffffffffffffffffffffffffffffff021916908373ffffffffffffffffffffffffffffffffffffffff16021790555060408201518160010160146101000a81548160ff0219169083151502179055506060820151816002019080519060200190611081929190611196565b509050508273ffffffffffffffffffffffffffffffffffffffff16846040516110aa9190611e7f565b60405180910390207fdca6be6989ee2308c72deee9a83835f3be08f95ca182b3509c19f32aa2aa548960405160405180910390a3600160008473ffffffffffffffffffffffffffffffffffffffff1673ffffffffffffffffffffffffffffffffffffffff168152602001908152602001600020600201829080600181540180825580915050600190039060005260206000200160009091909190915055600160008473ffffffffffffffffffffffffffffffffffffffff1673ffffffffffffffffffffffffffffffffffffffff1681526020019081526020016000206002018054905090509392505050565b8280548282559060005260206000209081019282156111d2579160200282015b828111156111d15782518255916020019190600101906111b6565b5b5090506111df91906111e3565b5090565b5b808211156111fc5760008160009055506001016111e4565b5090565b6000604051905090565b600080fd5b600080fd5b6000819050919050565b61122781611214565b811461123257600080fd5b50565b6000813590506112448161121e565b92915050565b600073ffffffffffffffffffffffffffffffffffffffff82169050919050565b60006112758261124a565b9050919050565b6112858161126a565b811461129057600080fd5b50565b6000813590506112a28161127c565b92915050565b600080604083850312156112bf576112be61120a565b5b60006112cd85828601611235565b92505060206112de85828601611293565b9150509250929050565b6000602082840312156112fe576112fd61120a565b5b600061130c84828501611293565b91505092915050565b6000819050919050565b61132881611315565b811461133357600080fd5b50565b6000813590506113458161131f565b92915050565b6000806000606084860312156113645761136361120a565b5b600061137286828701611336565b935050602061138386828701611235565b925050604061139486828701611293565b9150509250925092565b600080fd5b600080fd5b6000601f19601f8301169050919050565b7f4e487b7100000000000000000000000000000000000000000000000000000000600052604160045260246000fd5b6113f1826113a8565b810181811067ffffffffffffffff821117156114105761140f6113b9565b5b80604052505050565b6000611423611200565b905061142f82826113e8565b919050565b600067ffffffffffffffff82111561144f5761144e6113b9565b5b611458826113a8565b9050602081019050919050565b82818337600083830152505050565b600061148761148284611434565b611419565b9050828152602081018484840111156114a3576114a26113a3565b5b6114ae848285611465565b509392505050565b600082601f8301126114cb576114ca61139e565b5b81356114db848260208601611474565b91505092915050565b6000806000606084860312156114fd576114fc61120a565b5b600084013567ffffffffffffffff81111561151b5761151a61120f565b5b611527868287016114b6565b935050602061153886828701611293565b925050604061154986828701611235565b9150509250925092565b61155c81611214565b82525050565b60006020820190506115776000830184611553565b92915050565b600082825260208201905092915050565b7f7075626c697368657220646f6573206e6f742065786973740000000000000000600082015250565b60006115c460188361157d565b91506115cf8261158e565b602082019050919050565b600060208201905081810360008301526115f3816115b7565b9050919050565b7f796f7520617265206e6f7420616c6c6f77656420746f2061646420746869732060008201527f7075626c69736865720000000000000000000000000000000000000000000000602082015250565b600061165660298361157d565b9150611661826115fa565b604082019050919050565b6000602082019050818103600083015261168581611649565b9050919050565b7f4e487b7100000000000000000000000000000000000000000000000000000000600052603260045260246000fd5b7f4e487b7100000000000000000000000000000000000000000000000000000000600052601160045260246000fd5b60006116f582611214565b91507fffffffffffffffffffffffffffffffffffffffffffffffffffffffffffffffff8203611727576117266116bb565b5b600182019050919050565b7f7075626c697368657220616c7265616479206861732061636365737320746f2060008201527f74686973206576656e7400000000000000000000000000000000000000000000602082015250565b600061178e602a8361157d565b915061179982611732565b604082019050919050565b600060208201905081810360008301526117bd81611781565b9050919050565b7f4f6e6c79206f776e65722063616e2063616c6c20746869732066756e6374696f60008201527f6e2e000000000000000000000000000000000000000000000000000000000000602082015250565b600061182060228361157d565b915061182b826117c4565b604082019050919050565b6000602082019050818103600083015261184f81611813565b9050919050565b7f796f7520617265206e6f7420616c6c6f77656420746f2064656c65746520746860008201527f6973207075626c69736865720000000000000000000000000000000000000000602082015250565b60006118b2602c8361157d565b91506118bd82611856565b604082019050919050565b600060208201905081810360008301526118e1816118a5565b9050919050565b600081519050919050565b7f4e487b7100000000000000000000000000000000000000000000000000000000600052602260045260246000fd5b6000600282049050600182168061193a57607f821691505b60208210810361194d5761194c6118f3565b5b50919050565b60008190508160005260206000209050919050565b60006020601f8301049050919050565b600082821b905092915050565b6000600883026119b57fffffffffffffffffffffffffffffffffffffffffffffffffffffffffffffffff82611978565b6119bf8683611978565b95508019841693508086168417925050509392505050565b6000819050919050565b60006119fc6119f76119f284611214565b6119d7565b611214565b9050919050565b6000819050919050565b611a16836119e1565b611a2a611a2282611a03565b848454611985565b825550505050565b600090565b611a3f611a32565b611a4a818484611a0d565b505050565b5b81811015611a6e57611a63600082611a37565b600181019050611a50565b5050565b601f821115611ab357611a8481611953565b611a8d84611968565b81016020851015611a9c578190505b611ab0611aa885611968565b830182611a4f565b50505b505050565b600082821c905092915050565b6000611ad660001984600802611ab8565b1980831691505092915050565b6000611aef8383611ac5565b9150826002028217905092915050565b611b08826118e8565b67ffffffffffffffff811115611b2157611b206113b9565b5b611b2b8254611922565b611b36828285611a72565b600060209050601f831160018114611b695760008415611b57578287015190505b611b618582611ae3565b865550611bc9565b601f198416611b7786611953565b60005b82811015611b9f57848901518255600182019150602085019450602081019050611b7a565b86831015611bbc5784890151611bb8601f891682611ac5565b8355505b6001600288020188555050505b505050505050565b7f796f7520617265206e6f7420616c6c6f77656420746f207075626c697368207460008201527f6f2074686973206576656e740000000000000000000000000000000000000000602082015250565b6000611c2d602c8361157d565b9150611c3882611bd1565b604082019050919050565b60006020820190508181036000830152611c5c81611c20565b9050919050565b7f7075626c697368657220646f6573206e6f74206861766520616363657373207460008201527f6f2074686973206576656e740000000000000000000000000000000000000000602082015250565b6000611cbf602c8361157d565b9150611cca82611c63565b604082019050919050565b60006020820190508181036000830152611cee81611cb2565b9050919050565b7f796f7520617265206e6f7420616c6c6f77656420746f2072656d6f766520746860008201527f6973207075626c69736865720000000000000000000000000000000000000000602082015250565b6000611d51602c8361157d565b9150611d5c82611cf5565b604082019050919050565b60006020820190508181036000830152611d8081611d44565b9050919050565b7f796f7520617265206e6f7420616c6c6f77656420746f2063726561746520707560008201527f626c697368657220776974682074686973206164647265737300000000000000602082015250565b6000611de360398361157d565b9150611dee82611d87565b604082019050919050565b60006020820190508181036000830152611e1281611dd6565b9050919050565b600081905092915050565b60005b83811015611e42578082015181840152602081019050611e27565b60008484015250505050565b6000611e59826118e8565b611e638185611e19565b9350611e73818560208601611e24565b80840191505092915050565b6000611e8b8284611e4e565b91508190509291505056fea2646970667358221220ddef07341c67741565fecdd57beb1a08c98f73a68e328eb796a071eddb83951464736f6c63430008130033",
  "immutableReferences": {},
  "source": "// SPDX-License-Identifier: GPL-3.0\n\npragma solidity >=0.7.0 <0.9.0;\nimport {EventQueue} from \"./events.sol\";\n\n\ncontract pub{\n\n    address owner;\n    constructor() {\n        owner = msg.sender;\n    }\n    modifier onlyOwner() {\n        require(msg.sender == owner, \"Only owner can call this function.\");\n        _;\n    }\n    struct publisher1{\n        string name;\n        address address_publisher;\n        bool exist;\n        uint[] access;\n    }\n    mapping (address => publisher1) publisher;\n\n    event published(uint indexed stream_id, address indexed pub_id);\n    event publisher_added(uint indexed stream_id, address indexed pub_id);\n    event publisher_created(string indexed name, address indexed address_publisher);\n    event publisher_removed(uint indexed stream_id, address indexed pub_id);\n\n    function create_publisher(string memory _name, address _address_publisher,uint stream_id) public returns(uint){\n        require(msg.sender == _address_publisher, \"you are not allowed to create publisher with this address\");\n        publisher[_address_publisher] = publisher1(_name, _address_publisher, true, new uint[](0));\n        emit publisher_created(_name, _address_publisher);\n        publisher[_address_publisher].access.push(stream_id);\n        return publisher[_address_publisher].access.length;\n    }\n\n    function pub_to_event(bytes32 data, uint stream_id, address pub_id) public{\n        require(publisher[pub_id].exist == true, \"publisher does not exist\");\n        require(publisher[pub_id].address_publisher == msg.sender, \"you are not allowed to publish to this event\");\n        bool check= false;\n        for(uint i = 0; i < publisher[pub_id].access.length; i++){\n            if(publisher[pub_id].access[i] == stream_id){\n                check = true;\n            }\n        }\n        require(check == true, \"publisher does not have access to this event\");\n        // publish_to_event_stream(stream_id, data);\n        emit published(stream_id,pub_id);\n        \n    }\n\n    function add_publisher(uint stream_id, address pub_id) public{\n        require(publisher[pub_id].exist == true, \"publisher does not exist\");\n        require(publisher[pub_id].address_publisher == msg.sender, \"you are not allowed to add this publisher\");\n        bool check= false;\n        for(uint i = 0; i < publisher[pub_id].access.length; i++){\n            if(publisher[pub_id].access[i] == stream_id){\n                check = true;\n            }\n        }\n        require(check == false, \"publisher already has access to this event\");\n        publisher[pub_id].access.push(stream_id);\n        emit publisher_added(stream_id,pub_id);\n    }\n\n    function remove_publisher(uint stream_id,address pub_id) public {\n        require(publisher[pub_id].exist == true, \"publisher does not exist\");\n        require(publisher[pub_id].address_publisher == msg.sender, \"you are not allowed to remove this publisher\");\n        bool check= false;\n        for(uint i = 0; i < publisher[pub_id].access.length; i++){\n            if(publisher[pub_id].access[i] == stream_id){\n                check = true;\n            }\n        }\n        require(check == true, \"publisher does not have access to this event\");\n        for(uint i = 0; i < publisher[pub_id].access.length; i++){\n            if(publisher[pub_id].access[i] == stream_id){\n                publisher[pub_id].access[i] = 0;\n            }\n        }\n        emit publisher_removed(stream_id,pub_id);\n    \n    }\n    function delete_publisher(address _id) public onlyOwner {\n        require(publisher[_id].exist == true, \"publisher does not exist\");\n        require(publisher[_id].address_publisher == msg.sender, \"you are not allowed to delete this publisher\");\n        publisher[_id].exist = false;\n        publisher[_id].address_publisher = address(0);\n        publisher[_id].name = \"\";\n        publisher[_id].access = new uint[](0);\n    }\n\n}",
  "sourcePath": "/home/nikhil/Documents/og_pub_sub/publisher-subscriber/contracts/scripts/pub.sol",
  "compiler": {
    "name": "solc",
    "version": "0.8.19+commit.7dd6d404.Emscripten.clang"
  },
  "schemaVersion": "3.4.13",
  "updatedAt": "2023-04-02T12:07:44.842Z",
  "networkType": "ethereum",
  "devdoc": {
    "kind": "dev",
    "methods": {},
    "version": 1
  },
  "userdoc": {
    "kind": "user",
    "methods": {},
    "version": 1
  }
}