{
  "contractName": "pub",
  "abi": [
    {
      "inputs": [],
      "stateMutability": "nonpayable",
      "type": "constructor"
    },
    {
      "anonymous": false,
      "inputs": [
        {
          "indexed": true,
          "internalType": "uint256",
          "name": "stream_id",
          "type": "uint256"
        },
        {
          "indexed": true,
          "internalType": "address",
          "name": "pub_id",
          "type": "address"
        }
      ],
      "name": "published",
      "type": "event"
    },
    {
      "anonymous": false,
      "inputs": [
        {
          "indexed": true,
          "internalType": "uint256",
          "name": "stream_id",
          "type": "uint256"
        },
        {
          "indexed": true,
          "internalType": "address",
          "name": "pub_id",
          "type": "address"
        }
      ],
      "name": "publisher_added",
      "type": "event"
    },
    {
      "anonymous": false,
      "inputs": [
        {
          "indexed": true,
          "internalType": "string",
          "name": "name",
          "type": "string"
        },
        {
          "indexed": true,
          "internalType": "address",
          "name": "address_publisher",
          "type": "address"
        }
      ],
      "name": "publisher_created",
      "type": "event"
    },
    {
      "anonymous": false,
      "inputs": [
        {
          "indexed": true,
          "internalType": "uint256",
          "name": "stream_id",
          "type": "uint256"
        },
        {
          "indexed": true,
          "internalType": "address",
          "name": "pub_id",
          "type": "address"
        }
      ],
      "name": "publisher_removed",
      "type": "event"
    },
    {
      "inputs": [
        {
          "internalType": "address",
          "name": "",
          "type": "address"
        }
      ],
      "name": "publisher",
      "outputs": [
        {
          "internalType": "string",
          "name": "name",
          "type": "string"
        },
        {
          "internalType": "address",
          "name": "address_publisher",
          "type": "address"
        },
        {
          "internalType": "bool",
          "name": "exist",
          "type": "bool"
        }
      ],
      "stateMutability": "view",
      "type": "function"
    },
    {
      "inputs": [
        {
          "internalType": "string",
          "name": "_name",
          "type": "string"
        },
        {
          "internalType": "address",
          "name": "_address_publisher",
          "type": "address"
        },
        {
          "internalType": "uint256",
          "name": "stream_id",
          "type": "uint256"
        }
      ],
      "name": "create_publisher",
      "outputs": [
        {
          "internalType": "uint256",
          "name": "",
          "type": "uint256"
        }
      ],
      "stateMutability": "nonpayable",
      "type": "function"
    },
    {
      "inputs": [
        {
          "internalType": "bytes32",
          "name": "data",
          "type": "bytes32"
        },
        {
          "internalType": "uint256",
          "name": "stream_id",
          "type": "uint256"
        },
        {
          "internalType": "address",
          "name": "pub_id",
          "type": "address"
        }
      ],
      "name": "pub_to_event",
      "outputs": [],
      "stateMutability": "nonpayable",
      "type": "function"
    },
    {
      "inputs": [
        {
          "internalType": "uint256",
          "name": "stream_id",
          "type": "uint256"
        },
        {
          "internalType": "address",
          "name": "pub_id",
          "type": "address"
        }
      ],
      "name": "add_publisher",
      "outputs": [],
      "stateMutability": "nonpayable",
      "type": "function"
    },
    {
      "inputs": [
        {
          "internalType": "uint256",
          "name": "stream_id",
          "type": "uint256"
        },
        {
          "internalType": "address",
          "name": "pub_id",
          "type": "address"
        }
      ],
      "name": "remove_publisher",
      "outputs": [],
      "stateMutability": "nonpayable",
      "type": "function"
    },
    {
      "inputs": [
        {
          "internalType": "address",
          "name": "_id",
          "type": "address"
        }
      ],
      "name": "delete_publisher",
      "outputs": [],
      "stateMutability": "nonpayable",
      "type": "function"
    },
    {
      "inputs": [
        {
          "internalType": "address",
          "name": "_id",
          "type": "address"
        }
      ],
      "name": "get_publisher",
      "outputs": [
        {
          "internalType": "string",
          "name": "",
          "type": "string"
        },
        {
          "internalType": "address",
          "name": "",
          "type": "address"
        },
        {
          "internalType": "uint256[]",
          "name": "",
          "type": "uint256[]"
        }
      ],
      "stateMutability": "view",
      "type": "function"
    }
  ],
  "bytecode": "0x608060405234801561001057600080fd5b50336000806101000a81548173ffffffffffffffffffffffffffffffffffffffff021916908373ffffffffffffffffffffffffffffffffffffffff160217905550612447806100606000396000f3fe608060405234801561001057600080fd5b506004361061007d5760003560e01c8063b76b4cc71161005b578063b76b4cc7146100d6578063da1592a314610108578063ddc541dd14610124578063f955b2b1146101565761007d565b8063081b5c5a146100825780639bcdb7301461009e578063b48c222c146100ba575b600080fd5b61009c6004803603810190610097919061167f565b610186565b005b6100b860048036038101906100b391906116bf565b6104b4565b005b6100d460048036038101906100cf9190611722565b610887565b005b6100f060048036038101906100eb91906116bf565b610b4d565b6040516100ff939291906118d2565b60405180910390f35b610122600480360381019061011d919061167f565b610dbb565b005b61013e600480360381019061013991906116bf565b6111ae565b60405161014d93929190611932565b60405180910390f35b610170600480360381019061016b9190611aa5565b61128d565b60405161017d9190611b23565b60405180910390f35b60011515600160008373ffffffffffffffffffffffffffffffffffffffff1673ffffffffffffffffffffffffffffffffffffffff16815260200190815260200160002060010160149054906101000a900460ff1615151461021c576040517f08c379a000000000000000000000000000000000000000000000000000000000815260040161021390611b8a565b60405180910390fd5b3373ffffffffffffffffffffffffffffffffffffffff16600160008373ffffffffffffffffffffffffffffffffffffffff1673ffffffffffffffffffffffffffffffffffffffff16815260200190815260200160002060010160009054906101000a900473ffffffffffffffffffffffffffffffffffffffff1673ffffffffffffffffffffffffffffffffffffffff16146102ec576040517f08c379a00000000000000000000000000000000000000000000000000000000081526004016102e390611c1c565b60405180910390fd5b6000805b600160008473ffffffffffffffffffffffffffffffffffffffff1673ffffffffffffffffffffffffffffffffffffffff168152602001908152602001600020600201805490508110156103ba5783600160008573ffffffffffffffffffffffffffffffffffffffff1673ffffffffffffffffffffffffffffffffffffffff168152602001908152602001600020600201828154811061039257610391611c3c565b5b9060005260206000200154036103a757600191505b80806103b290611c9a565b9150506102f0565b506000151581151514610402576040517f08c379a00000000000000000000000000000000000000000000000000000000081526004016103f990611d54565b60405180910390fd5b600160008373ffffffffffffffffffffffffffffffffffffffff1673ffffffffffffffffffffffffffffffffffffffff1681526020019081526020016000206002018390806001815401808255809150506001900390600052602060002001600090919091909150558173ffffffffffffffffffffffffffffffffffffffff16837f716893baa0554c7338db9c234baa0ecf3ccc7a4a4919a85ddc1bf1ab72925aa960405160405180910390a3505050565b60008054906101000a900473ffffffffffffffffffffffffffffffffffffffff1673ffffffffffffffffffffffffffffffffffffffff163373ffffffffffffffffffffffffffffffffffffffff1614610542576040517f08c379a000000000000000000000000000000000000000000000000000000000815260040161053990611de6565b60405180910390fd5b60011515600160008373ffffffffffffffffffffffffffffffffffffffff1673ffffffffffffffffffffffffffffffffffffffff16815260200190815260200160002060010160149054906101000a900460ff161515146105d8576040517f08c379a00000000000000000000000000000000000000000000000000000000081526004016105cf90611b8a565b60405180910390fd5b3373ffffffffffffffffffffffffffffffffffffffff16600160008373ffffffffffffffffffffffffffffffffffffffff1673ffffffffffffffffffffffffffffffffffffffff16815260200190815260200160002060010160009054906101000a900473ffffffffffffffffffffffffffffffffffffffff1673ffffffffffffffffffffffffffffffffffffffff16146106a8576040517f08c379a000000000000000000000000000000000000000000000000000000000815260040161069f90611e78565b60405180910390fd5b6000600160008373ffffffffffffffffffffffffffffffffffffffff1673ffffffffffffffffffffffffffffffffffffffff16815260200190815260200160002060010160146101000a81548160ff0219169083151502179055506000600160008373ffffffffffffffffffffffffffffffffffffffff1673ffffffffffffffffffffffffffffffffffffffff16815260200190815260200160002060010160006101000a81548173ffffffffffffffffffffffffffffffffffffffff021916908373ffffffffffffffffffffffffffffffffffffffff16021790555060405180602001604052806000815250600160008373ffffffffffffffffffffffffffffffffffffffff1673ffffffffffffffffffffffffffffffffffffffff16815260200190815260200160002060000190816107e391906120a4565b50600067ffffffffffffffff8111156107ff576107fe61197a565b5b60405190808252806020026020018201604052801561082d5781602001602082028036833780820191505090505b50600160008373ffffffffffffffffffffffffffffffffffffffff1673ffffffffffffffffffffffffffffffffffffffff168152602001908152602001600020600201908051906020019061088392919061156d565b5050565b60011515600160008373ffffffffffffffffffffffffffffffffffffffff1673ffffffffffffffffffffffffffffffffffffffff16815260200190815260200160002060010160149054906101000a900460ff1615151461091d576040517f08c379a000000000000000000000000000000000000000000000000000000000815260040161091490611b8a565b60405180910390fd5b3373ffffffffffffffffffffffffffffffffffffffff16600160008373ffffffffffffffffffffffffffffffffffffffff1673ffffffffffffffffffffffffffffffffffffffff16815260200190815260200160002060010160009054906101000a900473ffffffffffffffffffffffffffffffffffffffff1673ffffffffffffffffffffffffffffffffffffffff16146109ed576040517f08c379a00000000000000000000000000000000000000000000000000000000081526004016109e4906121e8565b60405180910390fd5b6000805b600160008473ffffffffffffffffffffffffffffffffffffffff1673ffffffffffffffffffffffffffffffffffffffff16815260200190815260200160002060020180549050811015610abb5783600160008573ffffffffffffffffffffffffffffffffffffffff1673ffffffffffffffffffffffffffffffffffffffff1681526020019081526020016000206002018281548110610a9357610a92611c3c565b5b906000526020600020015403610aa857600191505b8080610ab390611c9a565b9150506109f1565b506001151581151514610b03576040517f08c379a0000000000000000000000000000000000000000000000000000000008152600401610afa9061227a565b60405180910390fd5b8173ffffffffffffffffffffffffffffffffffffffff16837f3d41a300a1b1b8b4fe2185cb92268fa548777a3ca6c205fedbf0ea32ab3daffc60405160405180910390a350505050565b60606000606060011515600160008673ffffffffffffffffffffffffffffffffffffffff1673ffffffffffffffffffffffffffffffffffffffff16815260200190815260200160002060010160149054906101000a900460ff16151514610be9576040517f08c379a0000000000000000000000000000000000000000000000000000000008152600401610be090611b8a565b60405180910390fd5b600160008573ffffffffffffffffffffffffffffffffffffffff1673ffffffffffffffffffffffffffffffffffffffff168152602001908152602001600020600001600160008673ffffffffffffffffffffffffffffffffffffffff1673ffffffffffffffffffffffffffffffffffffffff16815260200190815260200160002060010160009054906101000a900473ffffffffffffffffffffffffffffffffffffffff16600160008773ffffffffffffffffffffffffffffffffffffffff1673ffffffffffffffffffffffffffffffffffffffff168152602001908152602001600020600201828054610cdc90611ec7565b80601f0160208091040260200160405190810160405280929190818152602001828054610d0890611ec7565b8015610d555780601f10610d2a57610100808354040283529160200191610d55565b820191906000526020600020905b815481529060010190602001808311610d3857829003601f168201915b5050505050925080805480602002602001604051908101604052809291908181526020018280548015610da757602002820191906000526020600020905b815481526020019060010190808311610d93575b505050505090509250925092509193909250565b60011515600160008373ffffffffffffffffffffffffffffffffffffffff1673ffffffffffffffffffffffffffffffffffffffff16815260200190815260200160002060010160149054906101000a900460ff16151514610e51576040517f08c379a0000000000000000000000000000000000000000000000000000000008152600401610e4890611b8a565b60405180910390fd5b3373ffffffffffffffffffffffffffffffffffffffff16600160008373ffffffffffffffffffffffffffffffffffffffff1673ffffffffffffffffffffffffffffffffffffffff16815260200190815260200160002060010160009054906101000a900473ffffffffffffffffffffffffffffffffffffffff1673ffffffffffffffffffffffffffffffffffffffff1614610f21576040517f08c379a0000000000000000000000000000000000000000000000000000000008152600401610f189061230c565b60405180910390fd5b6000805b600160008473ffffffffffffffffffffffffffffffffffffffff1673ffffffffffffffffffffffffffffffffffffffff16815260200190815260200160002060020180549050811015610fef5783600160008573ffffffffffffffffffffffffffffffffffffffff1673ffffffffffffffffffffffffffffffffffffffff1681526020019081526020016000206002018281548110610fc757610fc6611c3c565b5b906000526020600020015403610fdc57600191505b8080610fe790611c9a565b915050610f25565b506001151581151514611037576040517f08c379a000000000000000000000000000000000000000000000000000000000815260040161102e9061227a565b60405180910390fd5b60005b600160008473ffffffffffffffffffffffffffffffffffffffff1673ffffffffffffffffffffffffffffffffffffffff168152602001908152602001600020600201805490508110156111645783600160008573ffffffffffffffffffffffffffffffffffffffff1673ffffffffffffffffffffffffffffffffffffffff16815260200190815260200160002060020182815481106110dc576110db611c3c565b5b906000526020600020015403611151576000600160008573ffffffffffffffffffffffffffffffffffffffff1673ffffffffffffffffffffffffffffffffffffffff168152602001908152602001600020600201828154811061114257611141611c3c565b5b90600052602060002001819055505b808061115c90611c9a565b91505061103a565b508173ffffffffffffffffffffffffffffffffffffffff16837f705dd52cc5dc94e0cbf317ab8540d5429a98cebb211a36fff7f9707caf1df00860405160405180910390a3505050565b60016020528060005260406000206000915090508060000180546111d190611ec7565b80601f01602080910402602001604051908101604052809291908181526020018280546111fd90611ec7565b801561124a5780601f1061121f5761010080835404028352916020019161124a565b820191906000526020600020905b81548152906001019060200180831161122d57829003601f168201915b5050505050908060010160009054906101000a900473ffffffffffffffffffffffffffffffffffffffff16908060010160149054906101000a900460ff16905083565b60008273ffffffffffffffffffffffffffffffffffffffff163373ffffffffffffffffffffffffffffffffffffffff16146112fd576040517f08c379a00000000000000000000000000000000000000000000000000000000081526004016112f49061239e565b60405180910390fd5b60405180608001604052808581526020018473ffffffffffffffffffffffffffffffffffffffff168152602001600115158152602001600067ffffffffffffffff81111561134e5761134d61197a565b5b60405190808252806020026020018201604052801561137c5781602001602082028036833780820191505090505b50815250600160008573ffffffffffffffffffffffffffffffffffffffff1673ffffffffffffffffffffffffffffffffffffffff16815260200190815260200160002060008201518160000190816113d491906120a4565b5060208201518160010160006101000a81548173ffffffffffffffffffffffffffffffffffffffff021916908373ffffffffffffffffffffffffffffffffffffffff16021790555060408201518160010160146101000a81548160ff021916908315150217905550606082015181600201908051906020019061145892919061156d565b509050508273ffffffffffffffffffffffffffffffffffffffff168460405161148191906123fa565b60405180910390207fdca6be6989ee2308c72deee9a83835f3be08f95ca182b3509c19f32aa2aa548960405160405180910390a3600160008473ffffffffffffffffffffffffffffffffffffffff1673ffffffffffffffffffffffffffffffffffffffff168152602001908152602001600020600201829080600181540180825580915050600190039060005260206000200160009091909190915055600160008473ffffffffffffffffffffffffffffffffffffffff1673ffffffffffffffffffffffffffffffffffffffff1681526020019081526020016000206002018054905090509392505050565b8280548282559060005260206000209081019282156115a9579160200282015b828111156115a857825182559160200191906001019061158d565b5b5090506115b691906115ba565b5090565b5b808211156115d35760008160009055506001016115bb565b5090565b6000604051905090565b600080fd5b600080fd5b6000819050919050565b6115fe816115eb565b811461160957600080fd5b50565b60008135905061161b816115f5565b92915050565b600073ffffffffffffffffffffffffffffffffffffffff82169050919050565b600061164c82611621565b9050919050565b61165c81611641565b811461166757600080fd5b50565b60008135905061167981611653565b92915050565b60008060408385031215611696576116956115e1565b5b60006116a48582860161160c565b92505060206116b58582860161166a565b9150509250929050565b6000602082840312156116d5576116d46115e1565b5b60006116e38482850161166a565b91505092915050565b6000819050919050565b6116ff816116ec565b811461170a57600080fd5b50565b60008135905061171c816116f6565b92915050565b60008060006060848603121561173b5761173a6115e1565b5b60006117498682870161170d565b935050602061175a8682870161160c565b925050604061176b8682870161166a565b9150509250925092565b600081519050919050565b600082825260208201905092915050565b60005b838110156117af578082015181840152602081019050611794565b60008484015250505050565b6000601f19601f8301169050919050565b60006117d782611775565b6117e18185611780565b93506117f1818560208601611791565b6117fa816117bb565b840191505092915050565b61180e81611641565b82525050565b600081519050919050565b600082825260208201905092915050565b6000819050602082019050919050565b611849816115eb565b82525050565b600061185b8383611840565b60208301905092915050565b6000602082019050919050565b600061187f82611814565b611889818561181f565b935061189483611830565b8060005b838110156118c55781516118ac888261184f565b97506118b783611867565b925050600181019050611898565b5085935050505092915050565b600060608201905081810360008301526118ec81866117cc565b90506118fb6020830185611805565b818103604083015261190d8184611874565b9050949350505050565b60008115159050919050565b61192c81611917565b82525050565b6000606082019050818103600083015261194c81866117cc565b905061195b6020830185611805565b6119686040830184611923565b949350505050565b600080fd5b600080fd5b7f4e487b7100000000000000000000000000000000000000000000000000000000600052604160045260246000fd5b6119b2826117bb565b810181811067ffffffffffffffff821117156119d1576119d061197a565b5b80604052505050565b60006119e46115d7565b90506119f082826119a9565b919050565b600067ffffffffffffffff821115611a1057611a0f61197a565b5b611a19826117bb565b9050602081019050919050565b82818337600083830152505050565b6000611a48611a43846119f5565b6119da565b905082815260208101848484011115611a6457611a63611975565b5b611a6f848285611a26565b509392505050565b600082601f830112611a8c57611a8b611970565b5b8135611a9c848260208601611a35565b91505092915050565b600080600060608486031215611abe57611abd6115e1565b5b600084013567ffffffffffffffff811115611adc57611adb6115e6565b5b611ae886828701611a77565b9350506020611af98682870161166a565b9250506040611b0a8682870161160c565b9150509250925092565b611b1d816115eb565b82525050565b6000602082019050611b386000830184611b14565b92915050565b7f7075626c697368657220646f6573206e6f742065786973740000000000000000600082015250565b6000611b74601883611780565b9150611b7f82611b3e565b602082019050919050565b60006020820190508181036000830152611ba381611b67565b9050919050565b7f796f7520617265206e6f7420616c6c6f77656420746f2061646420746869732060008201527f7075626c69736865720000000000000000000000000000000000000000000000602082015250565b6000611c06602983611780565b9150611c1182611baa565b604082019050919050565b60006020820190508181036000830152611c3581611bf9565b9050919050565b7f4e487b7100000000000000000000000000000000000000000000000000000000600052603260045260246000fd5b7f4e487b7100000000000000000000000000000000000000000000000000000000600052601160045260246000fd5b6000611ca5826115eb565b91507fffffffffffffffffffffffffffffffffffffffffffffffffffffffffffffffff8203611cd757611cd6611c6b565b5b600182019050919050565b7f7075626c697368657220616c7265616479206861732061636365737320746f2060008201527f74686973206576656e7400000000000000000000000000000000000000000000602082015250565b6000611d3e602a83611780565b9150611d4982611ce2565b604082019050919050565b60006020820190508181036000830152611d6d81611d31565b9050919050565b7f4f6e6c79206f776e65722063616e2063616c6c20746869732066756e6374696f60008201527f6e2e000000000000000000000000000000000000000000000000000000000000602082015250565b6000611dd0602283611780565b9150611ddb82611d74565b604082019050919050565b60006020820190508181036000830152611dff81611dc3565b9050919050565b7f796f7520617265206e6f7420616c6c6f77656420746f2064656c65746520746860008201527f6973207075626c69736865720000000000000000000000000000000000000000602082015250565b6000611e62602c83611780565b9150611e6d82611e06565b604082019050919050565b60006020820190508181036000830152611e9181611e55565b9050919050565b7f4e487b7100000000000000000000000000000000000000000000000000000000600052602260045260246000fd5b60006002820490506001821680611edf57607f821691505b602082108103611ef257611ef1611e98565b5b50919050565b60008190508160005260206000209050919050565b60006020601f8301049050919050565b600082821b905092915050565b600060088302611f5a7fffffffffffffffffffffffffffffffffffffffffffffffffffffffffffffffff82611f1d565b611f648683611f1d565b95508019841693508086168417925050509392505050565b6000819050919050565b6000611fa1611f9c611f97846115eb565b611f7c565b6115eb565b9050919050565b6000819050919050565b611fbb83611f86565b611fcf611fc782611fa8565b848454611f2a565b825550505050565b600090565b611fe4611fd7565b611fef818484611fb2565b505050565b5b8181101561201357612008600082611fdc565b600181019050611ff5565b5050565b601f8211156120585761202981611ef8565b61203284611f0d565b81016020851015612041578190505b61205561204d85611f0d565b830182611ff4565b50505b505050565b600082821c905092915050565b600061207b6000198460080261205d565b1980831691505092915050565b6000612094838361206a565b9150826002028217905092915050565b6120ad82611775565b67ffffffffffffffff8111156120c6576120c561197a565b5b6120d08254611ec7565b6120db828285612017565b600060209050601f83116001811461210e57600084156120fc578287015190505b6121068582612088565b86555061216e565b601f19841661211c86611ef8565b60005b828110156121445784890151825560018201915060208501945060208101905061211f565b86831015612161578489015161215d601f89168261206a565b8355505b6001600288020188555050505b505050505050565b7f796f7520617265206e6f7420616c6c6f77656420746f207075626c697368207460008201527f6f2074686973206576656e740000000000000000000000000000000000000000602082015250565b60006121d2602c83611780565b91506121dd82612176565b604082019050919050565b60006020820190508181036000830152612201816121c5565b9050919050565b7f7075626c697368657220646f6573206e6f74206861766520616363657373207460008201527f6f2074686973206576656e740000000000000000000000000000000000000000602082015250565b6000612264602c83611780565b915061226f82612208565b604082019050919050565b6000602082019050818103600083015261229381612257565b9050919050565b7f796f7520617265206e6f7420616c6c6f77656420746f2072656d6f766520746860008201527f6973207075626c69736865720000000000000000000000000000000000000000602082015250565b60006122f6602c83611780565b91506123018261229a565b604082019050919050565b60006020820190508181036000830152612325816122e9565b9050919050565b7f796f7520617265206e6f7420616c6c6f77656420746f2063726561746520707560008201527f626c697368657220776974682074686973206164647265737300000000000000602082015250565b6000612388603983611780565b91506123938261232c565b604082019050919050565b600060208201905081810360008301526123b78161237b565b9050919050565b600081905092915050565b60006123d482611775565b6123de81856123be565b93506123ee818560208601611791565b80840191505092915050565b600061240682846123c9565b91508190509291505056fea2646970667358221220c398fa53ea08bc704989163af39307283d95710061ff6928dd7564afe8f8be2664736f6c63430008130033",
  "immutableReferences": {},
  "source": "// SPDX-License-Identifier: GPL-3.0\n\npragma solidity >=0.7.0 <0.9.0;\n// import {EventQueu} from \"./events.sol\";\n\n\ncontract pub{\n\n    // this contract is stores information about all the publishers\n    // it can create a publisher.\n    // it also has the function to publish to an event stream\n    // it also has the function to add or remove a publisher from an event stream\n\n\n    address owner;\n    constructor() {\n        owner = msg.sender;\n    }\n    modifier onlyOwner() {\n        require(msg.sender == owner, \"Only owner can call this function.\");\n        _;\n    }\n    struct publisher1{\n        string name;\n        address address_publisher;\n        bool exist;\n        uint[] access;\n    }\n    mapping (address => publisher1) public publisher;\n\n    event published(uint indexed stream_id, address indexed pub_id);\n    event publisher_added(uint indexed stream_id, address indexed pub_id);\n    event publisher_created(string indexed name, address indexed address_publisher);\n    event publisher_removed(uint indexed stream_id, address indexed pub_id);\n\n    //create publisher allows users to create a publisher and it emits a publisher \n    function create_publisher(string memory _name, address _address_publisher,uint stream_id) public returns(uint){\n        require(msg.sender == _address_publisher, \"you are not allowed to create publisher with this address\");\n        publisher[_address_publisher] = publisher1(_name, _address_publisher, true, new uint[](0));\n        emit publisher_created(_name, _address_publisher);\n        publisher[_address_publisher].access.push(stream_id);\n        return publisher[_address_publisher].access.length;\n    }\n\n    function pub_to_event(bytes32 data, uint stream_id, address pub_id) public{\n        require(publisher[pub_id].exist == true, \"publisher does not exist\");\n        require(publisher[pub_id].address_publisher == msg.sender, \"you are not allowed to publish to this event\");\n        bool check= false;\n        for(uint i = 0; i < publisher[pub_id].access.length; i++){\n            if(publisher[pub_id].access[i] == stream_id){\n                check = true;\n            }\n        }\n        require(check == true, \"publisher does not have access to this event\");\n        // publish_to_event_stream(stream_id, data);\n        emit published(stream_id,pub_id);\n        \n    }\n\n    function add_publisher(uint stream_id, address pub_id) public{\n        require(publisher[pub_id].exist == true, \"publisher does not exist\");\n        require(publisher[pub_id].address_publisher == msg.sender, \"you are not allowed to add this publisher\");\n        bool check= false;\n        for(uint i = 0; i < publisher[pub_id].access.length; i++){\n            if(publisher[pub_id].access[i] == stream_id){\n                check = true;\n            }\n        }\n        require(check == false, \"publisher already has access to this event\");\n        publisher[pub_id].access.push(stream_id);\n        emit publisher_added(stream_id,pub_id);\n    }\n\n    function remove_publisher(uint stream_id,address pub_id) public {\n        require(publisher[pub_id].exist == true, \"publisher does not exist\");\n        require(publisher[pub_id].address_publisher == msg.sender, \"you are not allowed to remove this publisher\");\n        bool check= false;\n        for(uint i = 0; i < publisher[pub_id].access.length; i++){\n            if(publisher[pub_id].access[i] == stream_id){\n                check = true;\n            }\n        }\n        require(check == true, \"publisher does not have access to this event\");\n        for(uint i = 0; i < publisher[pub_id].access.length; i++){\n            if(publisher[pub_id].access[i] == stream_id){\n                publisher[pub_id].access[i] = 0;\n            }\n        }\n        emit publisher_removed(stream_id,pub_id);\n    \n    }\n    function delete_publisher(address _id) public onlyOwner {\n        require(publisher[_id].exist == true, \"publisher does not exist\");\n        require(publisher[_id].address_publisher == msg.sender, \"you are not allowed to delete this publisher\");\n        publisher[_id].exist = false;\n        publisher[_id].address_publisher = address(0);\n        publisher[_id].name = \"\";\n        publisher[_id].access = new uint[](0);\n    }\n\n    function get_publisher(address _id) public view returns(string memory, address, uint[] memory){\n        require(publisher[_id].exist == true, \"publisher does not exist\");\n        return (publisher[_id].name, publisher[_id].address_publisher, publisher[_id].access);\n    }\n\n}",
  "sourcePath": "/home/nikhil/Documents/og_pub_sub/publisher-subscriber/contracts/scripts/pub.sol",
  "compiler": {
    "name": "solc",
    "version": "0.8.19+commit.7dd6d404.Emscripten.clang"
  },
  "schemaVersion": "3.4.13",
  "updatedAt": "2023-04-07T13:50:59.184Z",
  "devdoc": {
    "kind": "dev",
    "methods": {},
    "version": 1
  },
  "userdoc": {
    "kind": "user",
    "methods": {},
    "version": 1
  }
}