{
  "contractName": "pub",
  "abi": [
    {
      "inputs": [],
      "stateMutability": "nonpayable",
      "type": "constructor"
    },
    {
      "anonymous": false,
      "inputs": [
        {
          "indexed": true,
          "internalType": "uint256",
          "name": "stream_id",
          "type": "uint256"
        },
        {
          "indexed": true,
          "internalType": "address",
          "name": "pub_id",
          "type": "address"
        }
      ],
      "name": "published",
      "type": "event"
    },
    {
      "anonymous": false,
      "inputs": [
        {
          "indexed": true,
          "internalType": "uint256",
          "name": "stream_id",
          "type": "uint256"
        },
        {
          "indexed": true,
          "internalType": "address",
          "name": "pub_id",
          "type": "address"
        }
      ],
      "name": "publisher_added",
      "type": "event"
    },
    {
      "anonymous": false,
      "inputs": [
        {
          "indexed": true,
          "internalType": "string",
          "name": "name",
          "type": "string"
        },
        {
          "indexed": true,
          "internalType": "address",
          "name": "address_publisher",
          "type": "address"
        }
      ],
      "name": "publisher_created",
      "type": "event"
    },
    {
      "anonymous": false,
      "inputs": [
        {
          "indexed": true,
          "internalType": "uint256",
          "name": "stream_id",
          "type": "uint256"
        },
        {
          "indexed": true,
          "internalType": "address",
          "name": "pub_id",
          "type": "address"
        }
      ],
      "name": "publisher_removed",
      "type": "event"
    },
    {
      "inputs": [
        {
          "internalType": "address",
          "name": "",
          "type": "address"
        }
      ],
      "name": "publisher_list",
      "outputs": [
        {
          "internalType": "string",
          "name": "name",
          "type": "string"
        },
        {
          "internalType": "address",
          "name": "address_publisher",
          "type": "address"
        },
        {
          "internalType": "bool",
          "name": "exist",
          "type": "bool"
        }
      ],
      "stateMutability": "view",
      "type": "function"
    },
    {
      "inputs": [
        {
          "internalType": "string",
          "name": "_name",
          "type": "string"
        },
        {
          "internalType": "address",
          "name": "_address_publisher",
          "type": "address"
        },
        {
          "internalType": "uint256",
          "name": "stream_id",
          "type": "uint256"
        }
      ],
      "name": "create_publisher",
      "outputs": [
        {
          "internalType": "uint256",
          "name": "",
          "type": "uint256"
        }
      ],
      "stateMutability": "nonpayable",
      "type": "function"
    },
    {
      "inputs": [
        {
          "internalType": "bytes32",
          "name": "data",
          "type": "bytes32"
        },
        {
          "internalType": "uint256",
          "name": "stream_id",
          "type": "uint256"
        },
        {
          "internalType": "address",
          "name": "pub_id",
          "type": "address"
        }
      ],
      "name": "publish_to_eventstream",
      "outputs": [],
      "stateMutability": "nonpayable",
      "type": "function"
    },
    {
      "inputs": [
        {
          "internalType": "uint256",
          "name": "stream_id",
          "type": "uint256"
        },
        {
          "internalType": "address",
          "name": "pub_id",
          "type": "address"
        }
      ],
      "name": "add_publisher",
      "outputs": [],
      "stateMutability": "nonpayable",
      "type": "function"
    },
    {
      "inputs": [
        {
          "internalType": "uint256",
          "name": "stream_id",
          "type": "uint256"
        },
        {
          "internalType": "address",
          "name": "pub_id",
          "type": "address"
        }
      ],
      "name": "remove_publisher",
      "outputs": [],
      "stateMutability": "nonpayable",
      "type": "function"
    },
    {
      "inputs": [
        {
          "internalType": "address",
          "name": "_id",
          "type": "address"
        }
      ],
      "name": "delete_publisher",
      "outputs": [],
      "stateMutability": "nonpayable",
      "type": "function"
    },
    {
      "inputs": [
        {
          "internalType": "address",
          "name": "pub_id",
          "type": "address"
        }
      ],
      "name": "get_publisher",
      "outputs": [
        {
          "internalType": "string",
          "name": "",
          "type": "string"
        },
        {
          "internalType": "address",
          "name": "",
          "type": "address"
        },
        {
          "internalType": "uint256[]",
          "name": "",
          "type": "uint256[]"
        }
      ],
      "stateMutability": "view",
      "type": "function"
    }
  ],
  "bytecode": "0x608060405234801561001057600080fd5b50336000806101000a81548173ffffffffffffffffffffffffffffffffffffffff021916908373ffffffffffffffffffffffffffffffffffffffff160217905550612447806100606000396000f3fe608060405234801561001057600080fd5b506004361061007d5760003560e01c80639bcdb7301161005b5780639bcdb730146100ec578063b76b4cc714610108578063da1592a31461013a578063f955b2b1146101565761007d565b8063081b5c5a146100825780635164d1c21461009e5780637661f9bf146100d0575b600080fd5b61009c6004803603810190610097919061167f565b610186565b005b6100b860048036038101906100b391906116bf565b6104b4565b6040516100c7939291906117a6565b60405180910390f35b6100ea60048036038101906100e5919061181a565b610593565b005b610106600480360381019061010191906116bf565b610859565b005b610122600480360381019061011d91906116bf565b610c2c565b6040516101319392919061192b565b60405180910390f35b610154600480360381019061014f919061167f565b610e9a565b005b610170600480360381019061016b9190611aa5565b61128d565b60405161017d9190611b23565b60405180910390f35b60011515600160008373ffffffffffffffffffffffffffffffffffffffff1673ffffffffffffffffffffffffffffffffffffffff16815260200190815260200160002060010160149054906101000a900460ff1615151461021c576040517f08c379a000000000000000000000000000000000000000000000000000000000815260040161021390611b8a565b60405180910390fd5b3373ffffffffffffffffffffffffffffffffffffffff16600160008373ffffffffffffffffffffffffffffffffffffffff1673ffffffffffffffffffffffffffffffffffffffff16815260200190815260200160002060010160009054906101000a900473ffffffffffffffffffffffffffffffffffffffff1673ffffffffffffffffffffffffffffffffffffffff16146102ec576040517f08c379a00000000000000000000000000000000000000000000000000000000081526004016102e390611c1c565b60405180910390fd5b6000805b600160008473ffffffffffffffffffffffffffffffffffffffff1673ffffffffffffffffffffffffffffffffffffffff168152602001908152602001600020600201805490508110156103ba5783600160008573ffffffffffffffffffffffffffffffffffffffff1673ffffffffffffffffffffffffffffffffffffffff168152602001908152602001600020600201828154811061039257610391611c3c565b5b9060005260206000200154036103a757600191505b80806103b290611c9a565b9150506102f0565b506000151581151514610402576040517f08c379a00000000000000000000000000000000000000000000000000000000081526004016103f990611d54565b60405180910390fd5b600160008373ffffffffffffffffffffffffffffffffffffffff1673ffffffffffffffffffffffffffffffffffffffff1681526020019081526020016000206002018390806001815401808255809150506001900390600052602060002001600090919091909150558173ffffffffffffffffffffffffffffffffffffffff16837f716893baa0554c7338db9c234baa0ecf3ccc7a4a4919a85ddc1bf1ab72925aa960405160405180910390a3505050565b60016020528060005260406000206000915090508060000180546104d790611da3565b80601f016020809104026020016040519081016040528092919081815260200182805461050390611da3565b80156105505780601f1061052557610100808354040283529160200191610550565b820191906000526020600020905b81548152906001019060200180831161053357829003601f168201915b5050505050908060010160009054906101000a900473ffffffffffffffffffffffffffffffffffffffff16908060010160149054906101000a900460ff16905083565b60011515600160008373ffffffffffffffffffffffffffffffffffffffff1673ffffffffffffffffffffffffffffffffffffffff16815260200190815260200160002060010160149054906101000a900460ff16151514610629576040517f08c379a000000000000000000000000000000000000000000000000000000000815260040161062090611b8a565b60405180910390fd5b3373ffffffffffffffffffffffffffffffffffffffff16600160008373ffffffffffffffffffffffffffffffffffffffff1673ffffffffffffffffffffffffffffffffffffffff16815260200190815260200160002060010160009054906101000a900473ffffffffffffffffffffffffffffffffffffffff1673ffffffffffffffffffffffffffffffffffffffff16146106f9576040517f08c379a00000000000000000000000000000000000000000000000000000000081526004016106f090611e46565b60405180910390fd5b6000805b600160008473ffffffffffffffffffffffffffffffffffffffff1673ffffffffffffffffffffffffffffffffffffffff168152602001908152602001600020600201805490508110156107c75783600160008573ffffffffffffffffffffffffffffffffffffffff1673ffffffffffffffffffffffffffffffffffffffff168152602001908152602001600020600201828154811061079f5761079e611c3c565b5b9060005260206000200154036107b457600191505b80806107bf90611c9a565b9150506106fd565b50600115158115151461080f576040517f08c379a000000000000000000000000000000000000000000000000000000000815260040161080690611ed8565b60405180910390fd5b8173ffffffffffffffffffffffffffffffffffffffff16837f3d41a300a1b1b8b4fe2185cb92268fa548777a3ca6c205fedbf0ea32ab3daffc60405160405180910390a350505050565b60008054906101000a900473ffffffffffffffffffffffffffffffffffffffff1673ffffffffffffffffffffffffffffffffffffffff163373ffffffffffffffffffffffffffffffffffffffff16146108e7576040517f08c379a00000000000000000000000000000000000000000000000000000000081526004016108de90611f6a565b60405180910390fd5b60011515600160008373ffffffffffffffffffffffffffffffffffffffff1673ffffffffffffffffffffffffffffffffffffffff16815260200190815260200160002060010160149054906101000a900460ff1615151461097d576040517f08c379a000000000000000000000000000000000000000000000000000000000815260040161097490611b8a565b60405180910390fd5b3373ffffffffffffffffffffffffffffffffffffffff16600160008373ffffffffffffffffffffffffffffffffffffffff1673ffffffffffffffffffffffffffffffffffffffff16815260200190815260200160002060010160009054906101000a900473ffffffffffffffffffffffffffffffffffffffff1673ffffffffffffffffffffffffffffffffffffffff1614610a4d576040517f08c379a0000000000000000000000000000000000000000000000000000000008152600401610a4490611ffc565b60405180910390fd5b6000600160008373ffffffffffffffffffffffffffffffffffffffff1673ffffffffffffffffffffffffffffffffffffffff16815260200190815260200160002060010160146101000a81548160ff0219169083151502179055506000600160008373ffffffffffffffffffffffffffffffffffffffff1673ffffffffffffffffffffffffffffffffffffffff16815260200190815260200160002060010160006101000a81548173ffffffffffffffffffffffffffffffffffffffff021916908373ffffffffffffffffffffffffffffffffffffffff16021790555060405180602001604052806000815250600160008373ffffffffffffffffffffffffffffffffffffffff1673ffffffffffffffffffffffffffffffffffffffff1681526020019081526020016000206000019081610b8891906121c8565b50600067ffffffffffffffff811115610ba457610ba361197a565b5b604051908082528060200260200182016040528015610bd25781602001602082028036833780820191505090505b50600160008373ffffffffffffffffffffffffffffffffffffffff1673ffffffffffffffffffffffffffffffffffffffff1681526020019081526020016000206002019080519060200190610c2892919061156d565b5050565b60606000606060011515600160008673ffffffffffffffffffffffffffffffffffffffff1673ffffffffffffffffffffffffffffffffffffffff16815260200190815260200160002060010160149054906101000a900460ff16151514610cc8576040517f08c379a0000000000000000000000000000000000000000000000000000000008152600401610cbf90611b8a565b60405180910390fd5b600160008573ffffffffffffffffffffffffffffffffffffffff1673ffffffffffffffffffffffffffffffffffffffff168152602001908152602001600020600001600160008673ffffffffffffffffffffffffffffffffffffffff1673ffffffffffffffffffffffffffffffffffffffff16815260200190815260200160002060010160009054906101000a900473ffffffffffffffffffffffffffffffffffffffff16600160008773ffffffffffffffffffffffffffffffffffffffff1673ffffffffffffffffffffffffffffffffffffffff168152602001908152602001600020600201828054610dbb90611da3565b80601f0160208091040260200160405190810160405280929190818152602001828054610de790611da3565b8015610e345780601f10610e0957610100808354040283529160200191610e34565b820191906000526020600020905b815481529060010190602001808311610e1757829003601f168201915b5050505050925080805480602002602001604051908101604052809291908181526020018280548015610e8657602002820191906000526020600020905b815481526020019060010190808311610e72575b505050505090509250925092509193909250565b60011515600160008373ffffffffffffffffffffffffffffffffffffffff1673ffffffffffffffffffffffffffffffffffffffff16815260200190815260200160002060010160149054906101000a900460ff16151514610f30576040517f08c379a0000000000000000000000000000000000000000000000000000000008152600401610f2790611b8a565b60405180910390fd5b3373ffffffffffffffffffffffffffffffffffffffff16600160008373ffffffffffffffffffffffffffffffffffffffff1673ffffffffffffffffffffffffffffffffffffffff16815260200190815260200160002060010160009054906101000a900473ffffffffffffffffffffffffffffffffffffffff1673ffffffffffffffffffffffffffffffffffffffff1614611000576040517f08c379a0000000000000000000000000000000000000000000000000000000008152600401610ff79061230c565b60405180910390fd5b6000805b600160008473ffffffffffffffffffffffffffffffffffffffff1673ffffffffffffffffffffffffffffffffffffffff168152602001908152602001600020600201805490508110156110ce5783600160008573ffffffffffffffffffffffffffffffffffffffff1673ffffffffffffffffffffffffffffffffffffffff16815260200190815260200160002060020182815481106110a6576110a5611c3c565b5b9060005260206000200154036110bb57600191505b80806110c690611c9a565b915050611004565b506001151581151514611116576040517f08c379a000000000000000000000000000000000000000000000000000000000815260040161110d90611ed8565b60405180910390fd5b60005b600160008473ffffffffffffffffffffffffffffffffffffffff1673ffffffffffffffffffffffffffffffffffffffff168152602001908152602001600020600201805490508110156112435783600160008573ffffffffffffffffffffffffffffffffffffffff1673ffffffffffffffffffffffffffffffffffffffff16815260200190815260200160002060020182815481106111bb576111ba611c3c565b5b906000526020600020015403611230576000600160008573ffffffffffffffffffffffffffffffffffffffff1673ffffffffffffffffffffffffffffffffffffffff168152602001908152602001600020600201828154811061122157611220611c3c565b5b90600052602060002001819055505b808061123b90611c9a565b915050611119565b508173ffffffffffffffffffffffffffffffffffffffff16837f705dd52cc5dc94e0cbf317ab8540d5429a98cebb211a36fff7f9707caf1df00860405160405180910390a3505050565b60008273ffffffffffffffffffffffffffffffffffffffff163373ffffffffffffffffffffffffffffffffffffffff16146112fd576040517f08c379a00000000000000000000000000000000000000000000000000000000081526004016112f49061239e565b60405180910390fd5b60405180608001604052808581526020018473ffffffffffffffffffffffffffffffffffffffff168152602001600115158152602001600067ffffffffffffffff81111561134e5761134d61197a565b5b60405190808252806020026020018201604052801561137c5781602001602082028036833780820191505090505b50815250600160008573ffffffffffffffffffffffffffffffffffffffff1673ffffffffffffffffffffffffffffffffffffffff16815260200190815260200160002060008201518160000190816113d491906121c8565b5060208201518160010160006101000a81548173ffffffffffffffffffffffffffffffffffffffff021916908373ffffffffffffffffffffffffffffffffffffffff16021790555060408201518160010160146101000a81548160ff021916908315150217905550606082015181600201908051906020019061145892919061156d565b509050508273ffffffffffffffffffffffffffffffffffffffff168460405161148191906123fa565b60405180910390207fdca6be6989ee2308c72deee9a83835f3be08f95ca182b3509c19f32aa2aa548960405160405180910390a3600160008473ffffffffffffffffffffffffffffffffffffffff1673ffffffffffffffffffffffffffffffffffffffff168152602001908152602001600020600201829080600181540180825580915050600190039060005260206000200160009091909190915055600160008473ffffffffffffffffffffffffffffffffffffffff1673ffffffffffffffffffffffffffffffffffffffff1681526020019081526020016000206002018054905090509392505050565b8280548282559060005260206000209081019282156115a9579160200282015b828111156115a857825182559160200191906001019061158d565b5b5090506115b691906115ba565b5090565b5b808211156115d35760008160009055506001016115bb565b5090565b6000604051905090565b600080fd5b600080fd5b6000819050919050565b6115fe816115eb565b811461160957600080fd5b50565b60008135905061161b816115f5565b92915050565b600073ffffffffffffffffffffffffffffffffffffffff82169050919050565b600061164c82611621565b9050919050565b61165c81611641565b811461166757600080fd5b50565b60008135905061167981611653565b92915050565b60008060408385031215611696576116956115e1565b5b60006116a48582860161160c565b92505060206116b58582860161166a565b9150509250929050565b6000602082840312156116d5576116d46115e1565b5b60006116e38482850161166a565b91505092915050565b600081519050919050565b600082825260208201905092915050565b60005b8381101561172657808201518184015260208101905061170b565b60008484015250505050565b6000601f19601f8301169050919050565b600061174e826116ec565b61175881856116f7565b9350611768818560208601611708565b61177181611732565b840191505092915050565b61178581611641565b82525050565b60008115159050919050565b6117a08161178b565b82525050565b600060608201905081810360008301526117c08186611743565b90506117cf602083018561177c565b6117dc6040830184611797565b949350505050565b6000819050919050565b6117f7816117e4565b811461180257600080fd5b50565b600081359050611814816117ee565b92915050565b600080600060608486031215611833576118326115e1565b5b600061184186828701611805565b93505060206118528682870161160c565b92505060406118638682870161166a565b9150509250925092565b600081519050919050565b600082825260208201905092915050565b6000819050602082019050919050565b6118a2816115eb565b82525050565b60006118b48383611899565b60208301905092915050565b6000602082019050919050565b60006118d88261186d565b6118e28185611878565b93506118ed83611889565b8060005b8381101561191e57815161190588826118a8565b9750611910836118c0565b9250506001810190506118f1565b5085935050505092915050565b600060608201905081810360008301526119458186611743565b9050611954602083018561177c565b818103604083015261196681846118cd565b9050949350505050565b600080fd5b600080fd5b7f4e487b7100000000000000000000000000000000000000000000000000000000600052604160045260246000fd5b6119b282611732565b810181811067ffffffffffffffff821117156119d1576119d061197a565b5b80604052505050565b60006119e46115d7565b90506119f082826119a9565b919050565b600067ffffffffffffffff821115611a1057611a0f61197a565b5b611a1982611732565b9050602081019050919050565b82818337600083830152505050565b6000611a48611a43846119f5565b6119da565b905082815260208101848484011115611a6457611a63611975565b5b611a6f848285611a26565b509392505050565b600082601f830112611a8c57611a8b611970565b5b8135611a9c848260208601611a35565b91505092915050565b600080600060608486031215611abe57611abd6115e1565b5b600084013567ffffffffffffffff811115611adc57611adb6115e6565b5b611ae886828701611a77565b9350506020611af98682870161166a565b9250506040611b0a8682870161160c565b9150509250925092565b611b1d816115eb565b82525050565b6000602082019050611b386000830184611b14565b92915050565b7f7075626c697368657220646f6573206e6f742065786973740000000000000000600082015250565b6000611b746018836116f7565b9150611b7f82611b3e565b602082019050919050565b60006020820190508181036000830152611ba381611b67565b9050919050565b7f796f7520617265206e6f7420616c6c6f77656420746f2061646420746869732060008201527f7075626c69736865720000000000000000000000000000000000000000000000602082015250565b6000611c066029836116f7565b9150611c1182611baa565b604082019050919050565b60006020820190508181036000830152611c3581611bf9565b9050919050565b7f4e487b7100000000000000000000000000000000000000000000000000000000600052603260045260246000fd5b7f4e487b7100000000000000000000000000000000000000000000000000000000600052601160045260246000fd5b6000611ca5826115eb565b91507fffffffffffffffffffffffffffffffffffffffffffffffffffffffffffffffff8203611cd757611cd6611c6b565b5b600182019050919050565b7f7075626c697368657220616c7265616479206861732061636365737320746f2060008201527f74686973206576656e7400000000000000000000000000000000000000000000602082015250565b6000611d3e602a836116f7565b9150611d4982611ce2565b604082019050919050565b60006020820190508181036000830152611d6d81611d31565b9050919050565b7f4e487b7100000000000000000000000000000000000000000000000000000000600052602260045260246000fd5b60006002820490506001821680611dbb57607f821691505b602082108103611dce57611dcd611d74565b5b50919050565b7f796f7520617265206e6f7420616c6c6f77656420746f207075626c697368207460008201527f6f2074686973206576656e740000000000000000000000000000000000000000602082015250565b6000611e30602c836116f7565b9150611e3b82611dd4565b604082019050919050565b60006020820190508181036000830152611e5f81611e23565b9050919050565b7f7075626c697368657220646f6573206e6f74206861766520616363657373207460008201527f6f2074686973206576656e740000000000000000000000000000000000000000602082015250565b6000611ec2602c836116f7565b9150611ecd82611e66565b604082019050919050565b60006020820190508181036000830152611ef181611eb5565b9050919050565b7f4f6e6c79206f776e65722063616e2063616c6c20746869732066756e6374696f60008201527f6e2e000000000000000000000000000000000000000000000000000000000000602082015250565b6000611f546022836116f7565b9150611f5f82611ef8565b604082019050919050565b60006020820190508181036000830152611f8381611f47565b9050919050565b7f796f7520617265206e6f7420616c6c6f77656420746f2064656c65746520746860008201527f6973207075626c69736865720000000000000000000000000000000000000000602082015250565b6000611fe6602c836116f7565b9150611ff182611f8a565b604082019050919050565b6000602082019050818103600083015261201581611fd9565b9050919050565b60008190508160005260206000209050919050565b60006020601f8301049050919050565b600082821b905092915050565b60006008830261207e7fffffffffffffffffffffffffffffffffffffffffffffffffffffffffffffffff82612041565b6120888683612041565b95508019841693508086168417925050509392505050565b6000819050919050565b60006120c56120c06120bb846115eb565b6120a0565b6115eb565b9050919050565b6000819050919050565b6120df836120aa565b6120f36120eb826120cc565b84845461204e565b825550505050565b600090565b6121086120fb565b6121138184846120d6565b505050565b5b818110156121375761212c600082612100565b600181019050612119565b5050565b601f82111561217c5761214d8161201c565b61215684612031565b81016020851015612165578190505b61217961217185612031565b830182612118565b50505b505050565b600082821c905092915050565b600061219f60001984600802612181565b1980831691505092915050565b60006121b8838361218e565b9150826002028217905092915050565b6121d1826116ec565b67ffffffffffffffff8111156121ea576121e961197a565b5b6121f48254611da3565b6121ff82828561213b565b600060209050601f8311600181146122325760008415612220578287015190505b61222a85826121ac565b865550612292565b601f1984166122408661201c565b60005b8281101561226857848901518255600182019150602085019450602081019050612243565b868310156122855784890151612281601f89168261218e565b8355505b6001600288020188555050505b505050505050565b7f796f7520617265206e6f7420616c6c6f77656420746f2072656d6f766520746860008201527f6973207075626c69736865720000000000000000000000000000000000000000602082015250565b60006122f6602c836116f7565b91506123018261229a565b604082019050919050565b60006020820190508181036000830152612325816122e9565b9050919050565b7f796f7520617265206e6f7420616c6c6f77656420746f2063726561746520707560008201527f626c697368657220776974682074686973206164647265737300000000000000602082015250565b60006123886039836116f7565b91506123938261232c565b604082019050919050565b600060208201905081810360008301526123b78161237b565b9050919050565b600081905092915050565b60006123d4826116ec565b6123de81856123be565b93506123ee818560208601611708565b80840191505092915050565b600061240682846123c9565b91508190509291505056fea26469706673582212207cc2e148ef9967352dba758f56339c78ed70b4f472bb3e79894bd113f1be1cbd64736f6c63430008130033",
  "immutableReferences": {},
  "source": "// SPDX-License-Identifier: GPL-3.0\r\n\r\npragma solidity >=0.7.0 <0.9.0;\r\n// import {EventQueu} from \"./events.sol\";\r\n\r\n\r\ncontract pub{\r\n\r\n    // this contract is stores information about all the publishers\r\n    // it can create a publisher.\r\n    // it also has the function to publish to an event stream\r\n    // it also has the function to add or remove a publisher from an event stream\r\n\r\n\r\n    address owner;\r\n    constructor() {\r\n        owner = msg.sender;\r\n    }\r\n    modifier onlyOwner() {\r\n        require(msg.sender == owner, \"Only owner can call this function.\");\r\n        _;\r\n    }\r\n    struct publisher{\r\n        string name;\r\n        address address_publisher;\r\n        bool exist;\r\n        uint[] access;\r\n    }\r\n    mapping (address => publisher) public publisher_list;\r\n\r\n    event published(uint indexed stream_id, address indexed pub_id);\r\n    event publisher_added(uint indexed stream_id, address indexed pub_id);\r\n    event publisher_created(string indexed name, address indexed address_publisher);\r\n    event publisher_removed(uint indexed stream_id, address indexed pub_id);\r\n\r\n    //create publisher allows users to create a publisher and it emits a publisher \r\n    function create_publisher(string memory _name, address _address_publisher,uint stream_id) public returns(uint){\r\n        require(msg.sender == _address_publisher, \"you are not allowed to create publisher with this address\");\r\n        publisher_list[_address_publisher] = publisher(_name, _address_publisher, true, new uint[](0));\r\n        emit publisher_created(_name, _address_publisher);\r\n        publisher_list[_address_publisher].access.push(stream_id);\r\n        return publisher_list[_address_publisher].access.length;\r\n    }\r\n\r\n    function publish_to_eventstream(bytes32 data, uint stream_id, address pub_id) public{\r\n        require(publisher_list[pub_id].exist == true, \"publisher does not exist\");\r\n        require(publisher_list[pub_id].address_publisher == msg.sender, \"you are not allowed to publish to this event\");\r\n        bool check= false;\r\n        for(uint i = 0; i < publisher_list[pub_id].access.length; i++){\r\n            if(publisher_list[pub_id].access[i] == stream_id){\r\n                check = true;\r\n            }\r\n        }\r\n        require(check == true, \"publisher does not have access to this event\");\r\n        // publish_to_event_stream(stream_id, data);\r\n        emit published(stream_id,pub_id);\r\n\r\n        //Issue - Implementation -> Data to be published to event stream \r\n        \r\n    }\r\n\r\n    function add_publisher(uint stream_id, address pub_id) public{\r\n        require(publisher_list[pub_id].exist == true, \"publisher does not exist\");\r\n        require(publisher_list[pub_id].address_publisher == msg.sender, \"you are not allowed to add this publisher\");\r\n        bool check= false;\r\n        for(uint i = 0; i < publisher_list[pub_id].access.length; i++){\r\n            if(publisher_list[pub_id].access[i] == stream_id){\r\n                check = true;\r\n            }\r\n        }\r\n        require(check == false, \"publisher already has access to this event\");\r\n        publisher_list[pub_id].access.push(stream_id);\r\n        emit publisher_added(stream_id,pub_id);\r\n    }\r\n\r\n    function remove_publisher(uint stream_id,address pub_id) public {\r\n        require(publisher_list[pub_id].exist == true, \"publisher does not exist\");\r\n        require(publisher_list[pub_id].address_publisher == msg.sender, \"you are not allowed to remove this publisher\");\r\n        bool check= false;\r\n        for(uint i = 0; i < publisher_list[pub_id].access.length; i++){\r\n            if(publisher_list[pub_id].access[i] == stream_id){\r\n                check = true;\r\n            }\r\n        }\r\n        require(check == true, \"publisher does not have access to this event\");\r\n        for(uint i = 0; i < publisher_list[pub_id].access.length; i++){\r\n            if(publisher_list[pub_id].access[i] == stream_id){\r\n                publisher_list[pub_id].access[i] = 0;\r\n            }\r\n        }\r\n        emit publisher_removed(stream_id,pub_id);\r\n    \r\n    }\r\n    function delete_publisher(address _id) public onlyOwner {\r\n        require(publisher_list[_id].exist == true, \"publisher does not exist\");\r\n        require(publisher_list[_id].address_publisher == msg.sender, \"you are not allowed to delete this publisher\");\r\n        publisher_list[_id].exist = false;\r\n        publisher_list[_id].address_publisher = address(0);\r\n        publisher_list[_id].name = \"\";\r\n        publisher_list[_id].access = new uint[](0);\r\n    }\r\n\r\n    function get_publisher(address pub_id) public view returns(string memory, address, uint[] memory){\r\n        require(publisher_list[pub_id].exist == true, \"publisher does not exist\");\r\n        return (publisher_list[pub_id].name, publisher_list[pub_id].address_publisher, publisher_list[pub_id].access);\r\n    }\r\n\r\n}",
  "sourcePath": "C:\\Users\\Varu\\Desktop\\pub sub\\env1\\publisher-subscriber\\contracts\\scripts\\pub.sol",
  "compiler": {
    "name": "solc",
    "version": "0.8.19+commit.7dd6d404.Emscripten.clang"
  },
  "schemaVersion": "3.4.13",
  "updatedAt": "2023-04-09T10:28:38.979Z",
  "devdoc": {
    "kind": "dev",
    "methods": {},
    "version": 1
  },
  "userdoc": {
    "kind": "user",
    "methods": {},
    "version": 1
  }
}