{
  "contractName": "Sub",
  "abi": [
    {
      "inputs": [],
      "stateMutability": "nonpayable",
      "type": "constructor"
    },
    {
      "anonymous": false,
      "inputs": [
        {
          "indexed": false,
          "internalType": "string",
          "name": "message",
          "type": "string"
        }
      ],
      "name": "emit_a_string",
      "type": "event"
    },
    {
      "anonymous": false,
      "inputs": [
        {
          "indexed": false,
          "internalType": "address",
          "name": "subscriber_id",
          "type": "address"
        },
        {
          "indexed": false,
          "internalType": "address",
          "name": "event_stream_id",
          "type": "address"
        }
      ],
      "name": "subscribed_to_event",
      "type": "event"
    },
    {
      "anonymous": false,
      "inputs": [
        {
          "indexed": false,
          "internalType": "address",
          "name": "subscriber_id",
          "type": "address"
        }
      ],
      "name": "subscriber_created",
      "type": "event"
    },
    {
      "anonymous": false,
      "inputs": [
        {
          "indexed": false,
          "internalType": "uint256",
          "name": "limit",
          "type": "uint256"
        }
      ],
      "name": "subscriber_limit_set",
      "type": "event"
    },
    {
      "anonymous": false,
      "inputs": [
        {
          "indexed": false,
          "internalType": "address",
          "name": "subscriber_id",
          "type": "address"
        }
      ],
      "name": "subscriber_removed",
      "type": "event"
    },
    {
      "anonymous": false,
      "inputs": [
        {
          "indexed": false,
          "internalType": "address",
          "name": "subscriber_id",
          "type": "address"
        },
        {
          "indexed": false,
          "internalType": "address",
          "name": "event_stream_id",
          "type": "address"
        }
      ],
      "name": "unsubscribed_to_event",
      "type": "event"
    },
    {
      "inputs": [],
      "name": "event_subscribe_limit",
      "outputs": [
        {
          "internalType": "uint256",
          "name": "",
          "type": "uint256"
        }
      ],
      "stateMutability": "view",
      "type": "function",
      "constant": true
    },
    {
      "inputs": [],
      "name": "message",
      "outputs": [
        {
          "internalType": "string",
          "name": "",
          "type": "string"
        }
      ],
      "stateMutability": "view",
      "type": "function",
      "constant": true
    },
    {
      "inputs": [
        {
          "internalType": "string",
          "name": "new_message",
          "type": "string"
        }
      ],
      "name": "set_message",
      "outputs": [],
      "stateMutability": "nonpayable",
      "type": "function"
    },
    {
      "inputs": [
        {
          "internalType": "uint256",
          "name": "limit",
          "type": "uint256"
        }
      ],
      "name": "set_limit",
      "outputs": [],
      "stateMutability": "nonpayable",
      "type": "function"
    },
    {
      "inputs": [
        {
          "internalType": "address",
          "name": "subscriber_id",
          "type": "address"
        }
      ],
      "name": "create_subscriber",
      "outputs": [
        {
          "components": [
            {
              "internalType": "address",
              "name": "subscriber_id",
              "type": "address"
            },
            {
              "internalType": "address[]",
              "name": "event_streams_subscribed",
              "type": "address[]"
            }
          ],
          "internalType": "struct Sub.Subscriber",
          "name": "",
          "type": "tuple"
        }
      ],
      "stateMutability": "nonpayable",
      "type": "function"
    },
    {
      "inputs": [
        {
          "components": [
            {
              "internalType": "address",
              "name": "subscriber_id",
              "type": "address"
            },
            {
              "internalType": "address[]",
              "name": "event_streams_subscribed",
              "type": "address[]"
            }
          ],
          "internalType": "struct Sub.Subscriber",
          "name": "s",
          "type": "tuple"
        }
      ],
      "name": "delete_subscriber",
      "outputs": [],
      "stateMutability": "nonpayable",
      "type": "function"
    },
    {
      "inputs": [
        {
          "internalType": "address",
          "name": "event_stream_id",
          "type": "address"
        },
        {
          "components": [
            {
              "internalType": "address",
              "name": "subscriber_id",
              "type": "address"
            },
            {
              "internalType": "address[]",
              "name": "event_streams_subscribed",
              "type": "address[]"
            }
          ],
          "internalType": "struct Sub.Subscriber",
          "name": "s",
          "type": "tuple"
        }
      ],
      "name": "unsubscribe_to_event",
      "outputs": [],
      "stateMutability": "nonpayable",
      "type": "function"
    }
  ],
  "bytecode": "0x60806040526040518060200160405280600081525060019081620000249190620002f8565b5060006002553480156200003757600080fd5b50336000806101000a81548173ffffffffffffffffffffffffffffffffffffffff021916908373ffffffffffffffffffffffffffffffffffffffff160217905550620003df565b600081519050919050565b7f4e487b7100000000000000000000000000000000000000000000000000000000600052604160045260246000fd5b7f4e487b7100000000000000000000000000000000000000000000000000000000600052602260045260246000fd5b600060028204905060018216806200010057607f821691505b602082108103620001165762000115620000b8565b5b50919050565b60008190508160005260206000209050919050565b60006020601f8301049050919050565b600082821b905092915050565b600060088302620001807fffffffffffffffffffffffffffffffffffffffffffffffffffffffffffffffff8262000141565b6200018c868362000141565b95508019841693508086168417925050509392505050565b6000819050919050565b6000819050919050565b6000620001d9620001d3620001cd84620001a4565b620001ae565b620001a4565b9050919050565b6000819050919050565b620001f583620001b8565b6200020d6200020482620001e0565b8484546200014e565b825550505050565b600090565b6200022462000215565b62000231818484620001ea565b505050565b5b8181101562000259576200024d6000826200021a565b60018101905062000237565b5050565b601f821115620002a85762000272816200011c565b6200027d8462000131565b810160208510156200028d578190505b620002a56200029c8562000131565b83018262000236565b50505b505050565b600082821c905092915050565b6000620002cd60001984600802620002ad565b1980831691505092915050565b6000620002e88383620002ba565b9150826002028217905092915050565b62000303826200007e565b67ffffffffffffffff8111156200031f576200031e62000089565b5b6200032b8254620000e7565b620003388282856200025d565b600060209050601f8311600181146200037057600084156200035b578287015190505b620003678582620002da565b865550620003d7565b601f19841662000380866200011c565b60005b82811015620003aa5784890151825560018201915060208501945060208101905062000383565b86831015620003ca5784890151620003c6601f891682620002ba565b8355505b6001600288020188555050505b505050505050565b6115af80620003ef6000396000f3fe608060405234801561001057600080fd5b506004361061007d5760003560e01c8063be0284261161005b578063be028426146100ea578063dc990b8e14610106578063e21f37ce14610124578063f34e6810146101425761007d565b80632e9826021461008257806362c8d1cc1461009e578063b327ed95146100ba575b600080fd5b61009c60048036038101906100979190610ad6565b61015e565b005b6100b860048036038101906100b39190610cbb565b6101a9565b005b6100d460048036038101906100cf9190610d04565b61039e565b6040516100e19190610e2c565b60405180910390f35b61010460048036038101906100ff9190610e84565b6104f0565b005b61010e6105bf565b60405161011b9190610ec0565b60405180910390f35b61012c6105c5565b6040516101399190610f5a565b60405180910390f35b61015c60048036038101906101579190610f7c565b610653565b005b806001908161016d91906111e4565b507f9bed11271a2c7ba776d135b1c10d1be4bab1de1db5b47acc0b17ae539bf29c8a600160405161019e919061133a565b60405180910390a150565b60008054906101000a900473ffffffffffffffffffffffffffffffffffffffff1673ffffffffffffffffffffffffffffffffffffffff163373ffffffffffffffffffffffffffffffffffffffff1614610237576040517f08c379a000000000000000000000000000000000000000000000000000000000815260040161022e906113ce565b60405180910390fd5b6000816020015151905060005b8181101561031c5760036000846000015173ffffffffffffffffffffffffffffffffffffffff1673ffffffffffffffffffffffffffffffffffffffff1681526020019081526020016000206000846020015183815181106102a8576102a76113ee565b5b602002602001015173ffffffffffffffffffffffffffffffffffffffff1673ffffffffffffffffffffffffffffffffffffffff1681526020019081526020016000206000808201600090556001820160006101000a81549060ff0219169055505080806103149061144c565b915050610244565b508160200160608152506000826000019073ffffffffffffffffffffffffffffffffffffffff16908173ffffffffffffffffffffffffffffffffffffffff16815250507fe017b4c85801d9d840b444e48a1d2a6e94a85a92cf120318e5ed6835b97168be826000015160405161039291906114a3565b60405180910390a15050565b6103a661094c565b60008054906101000a900473ffffffffffffffffffffffffffffffffffffffff1673ffffffffffffffffffffffffffffffffffffffff163373ffffffffffffffffffffffffffffffffffffffff1614610434576040517f08c379a000000000000000000000000000000000000000000000000000000000815260040161042b906113ce565b60405180910390fd5b600060405180604001604052808473ffffffffffffffffffffffffffffffffffffffff168152602001600067ffffffffffffffff811115610478576104776109ab565b5b6040519080825280602002602001820160405280156104a65781602001602082028036833780820191505090505b5081525090507fdf0c0edeac57243e48c6a82fcce4e446f34e27502ba733105fa8041f51e8660781600001516040516104df91906114a3565b60405180910390a180915050919050565b60008054906101000a900473ffffffffffffffffffffffffffffffffffffffff1673ffffffffffffffffffffffffffffffffffffffff163373ffffffffffffffffffffffffffffffffffffffff161461057e576040517f08c379a0000000000000000000000000000000000000000000000000000000008152600401610575906113ce565b60405180910390fd5b806002819055507f25d8c8402881b9884efe45a147030964fbfd2cb04084577e05d08a5b5491fa9b816040516105b49190610ec0565b60405180910390a150565b60025481565b600180546105d290611007565b80601f01602080910402602001604051908101604052809291908181526020018280546105fe90611007565b801561064b5780601f106106205761010080835404028352916020019161064b565b820191906000526020600020905b81548152906001019060200180831161062e57829003601f168201915b505050505081565b60008054906101000a900473ffffffffffffffffffffffffffffffffffffffff1673ffffffffffffffffffffffffffffffffffffffff163373ffffffffffffffffffffffffffffffffffffffff16146106e1576040517f08c379a00000000000000000000000000000000000000000000000000000000081526004016106d8906113ce565b60405180910390fd5b60036000826000015173ffffffffffffffffffffffffffffffffffffffff1673ffffffffffffffffffffffffffffffffffffffff16815260200190815260200160002060008373ffffffffffffffffffffffffffffffffffffffff1673ffffffffffffffffffffffffffffffffffffffff16815260200190815260200160002060010160009054906101000a900460ff166107b1576040517f08c379a00000000000000000000000000000000000000000000000000000000081526004016107a890611530565b60405180910390fd5b60005b8273ffffffffffffffffffffffffffffffffffffffff16826020015182815181106107e2576107e16113ee565b5b602002602001015173ffffffffffffffffffffffffffffffffffffffff16146108185780806108109061144c565b9150506107b4565b60036000836000015173ffffffffffffffffffffffffffffffffffffffff1673ffffffffffffffffffffffffffffffffffffffff16815260200190815260200160002060008473ffffffffffffffffffffffffffffffffffffffff1673ffffffffffffffffffffffffffffffffffffffff1681526020019081526020016000206000808201600090556001820160006101000a81549060ff021916905550506000826020015182815181106108d0576108cf6113ee565b5b602002602001019073ffffffffffffffffffffffffffffffffffffffff16908173ffffffffffffffffffffffffffffffffffffffff16815250507f8b3c251b4ea383c405f696718057f2eb85dfe54d9984ff8ade7053ccfe0fa12e82600001518460405161093f929190611550565b60405180910390a1505050565b6040518060400160405280600073ffffffffffffffffffffffffffffffffffffffff168152602001606081525090565b6000604051905090565b600080fd5b600080fd5b600080fd5b600080fd5b6000601f19601f8301169050919050565b7f4e487b7100000000000000000000000000000000000000000000000000000000600052604160045260246000fd5b6109e38261099a565b810181811067ffffffffffffffff82111715610a0257610a016109ab565b5b80604052505050565b6000610a1561097c565b9050610a2182826109da565b919050565b600067ffffffffffffffff821115610a4157610a406109ab565b5b610a4a8261099a565b9050602081019050919050565b82818337600083830152505050565b6000610a79610a7484610a26565b610a0b565b905082815260208101848484011115610a9557610a94610995565b5b610aa0848285610a57565b509392505050565b600082601f830112610abd57610abc610990565b5b8135610acd848260208601610a66565b91505092915050565b600060208284031215610aec57610aeb610986565b5b600082013567ffffffffffffffff811115610b0a57610b0961098b565b5b610b1684828501610aa8565b91505092915050565b600080fd5b600080fd5b600073ffffffffffffffffffffffffffffffffffffffff82169050919050565b6000610b5482610b29565b9050919050565b610b6481610b49565b8114610b6f57600080fd5b50565b600081359050610b8181610b5b565b92915050565b600067ffffffffffffffff821115610ba257610ba16109ab565b5b602082029050602081019050919050565b600080fd5b6000610bcb610bc684610b87565b610a0b565b90508083825260208201905060208402830185811115610bee57610bed610bb3565b5b835b81811015610c175780610c038882610b72565b845260208401935050602081019050610bf0565b5050509392505050565b600082601f830112610c3657610c35610990565b5b8135610c46848260208601610bb8565b91505092915050565b600060408284031215610c6557610c64610b1f565b5b610c6f6040610a0b565b90506000610c7f84828501610b72565b600083015250602082013567ffffffffffffffff811115610ca357610ca2610b24565b5b610caf84828501610c21565b60208301525092915050565b600060208284031215610cd157610cd0610986565b5b600082013567ffffffffffffffff811115610cef57610cee61098b565b5b610cfb84828501610c4f565b91505092915050565b600060208284031215610d1a57610d19610986565b5b6000610d2884828501610b72565b91505092915050565b610d3a81610b49565b82525050565b600081519050919050565b600082825260208201905092915050565b6000819050602082019050919050565b6000610d788383610d31565b60208301905092915050565b6000602082019050919050565b6000610d9c82610d40565b610da68185610d4b565b9350610db183610d5c565b8060005b83811015610de2578151610dc98882610d6c565b9750610dd483610d84565b925050600181019050610db5565b5085935050505092915050565b6000604083016000830151610e076000860182610d31565b5060208301518482036020860152610e1f8282610d91565b9150508091505092915050565b60006020820190508181036000830152610e468184610def565b905092915050565b6000819050919050565b610e6181610e4e565b8114610e6c57600080fd5b50565b600081359050610e7e81610e58565b92915050565b600060208284031215610e9a57610e99610986565b5b6000610ea884828501610e6f565b91505092915050565b610eba81610e4e565b82525050565b6000602082019050610ed56000830184610eb1565b92915050565b600081519050919050565b600082825260208201905092915050565b60005b83811015610f15578082015181840152602081019050610efa565b60008484015250505050565b6000610f2c82610edb565b610f368185610ee6565b9350610f46818560208601610ef7565b610f4f8161099a565b840191505092915050565b60006020820190508181036000830152610f748184610f21565b905092915050565b60008060408385031215610f9357610f92610986565b5b6000610fa185828601610b72565b925050602083013567ffffffffffffffff811115610fc257610fc161098b565b5b610fce85828601610c4f565b9150509250929050565b7f4e487b7100000000000000000000000000000000000000000000000000000000600052602260045260246000fd5b6000600282049050600182168061101f57607f821691505b60208210810361103257611031610fd8565b5b50919050565b60008190508160005260206000209050919050565b60006020601f8301049050919050565b600082821b905092915050565b60006008830261109a7fffffffffffffffffffffffffffffffffffffffffffffffffffffffffffffffff8261105d565b6110a4868361105d565b95508019841693508086168417925050509392505050565b6000819050919050565b60006110e16110dc6110d784610e4e565b6110bc565b610e4e565b9050919050565b6000819050919050565b6110fb836110c6565b61110f611107826110e8565b84845461106a565b825550505050565b600090565b611124611117565b61112f8184846110f2565b505050565b5b818110156111535761114860008261111c565b600181019050611135565b5050565b601f8211156111985761116981611038565b6111728461104d565b81016020851015611181578190505b61119561118d8561104d565b830182611134565b50505b505050565b600082821c905092915050565b60006111bb6000198460080261119d565b1980831691505092915050565b60006111d483836111aa565b9150826002028217905092915050565b6111ed82610edb565b67ffffffffffffffff811115611206576112056109ab565b5b6112108254611007565b61121b828285611157565b600060209050601f83116001811461124e576000841561123c578287015190505b61124685826111c8565b8655506112ae565b601f19841661125c86611038565b60005b828110156112845784890151825560018201915060208501945060208101905061125f565b868310156112a1578489015161129d601f8916826111aa565b8355505b6001600288020188555050505b505050505050565b600081546112c381611007565b6112cd8186610ee6565b945060018216600081146112e857600181146112fe57611331565b60ff198316865281151560200286019350611331565b61130785611038565b60005b838110156113295781548189015260018201915060208101905061130a565b808801955050505b50505092915050565b6000602082019050818103600083015261135481846112b6565b905092915050565b7f4f6e6c79204f776e65722043616e2043616c6c20546869732046756e6374696f60008201527f6e2e000000000000000000000000000000000000000000000000000000000000602082015250565b60006113b8602283610ee6565b91506113c38261135c565b604082019050919050565b600060208201905081810360008301526113e7816113ab565b9050919050565b7f4e487b7100000000000000000000000000000000000000000000000000000000600052603260045260246000fd5b7f4e487b7100000000000000000000000000000000000000000000000000000000600052601160045260246000fd5b600061145782610e4e565b91507fffffffffffffffffffffffffffffffffffffffffffffffffffffffffffffffff82036114895761148861141d565b5b600182019050919050565b61149d81610b49565b82525050565b60006020820190506114b86000830184611494565b92915050565b7f5375627363726962657220486173204e6f74205375627363726962656420546f60008201527f2054686973204576656e74000000000000000000000000000000000000000000602082015250565b600061151a602b83610ee6565b9150611525826114be565b604082019050919050565b600060208201905081810360008301526115498161150d565b9050919050565b60006040820190506115656000830185611494565b6115726020830184611494565b939250505056fea26469706673582212201552e973114cce9df9369f47ad367c3efd94d1dfa261aa06d57bfb8aabf5855764736f6c63430008130033",
  "immutableReferences": {},
  "source": "pragma solidity >= 0.8.2 <0.9.0;\n\n\ncontract Sub {\n    \n    address owner;\n    \n    constructor() {\n        owner = msg.sender;\n    }\n    \n    modifier OwnerOnly() {\n        require(msg.sender == owner, \"Only Owner Can Call This Function.\");\n        _;\n    }\n    string public message  =\"\" ;\n    uint public event_subscribe_limit = 0 ;\n    event emit_a_string(string message) ;\n    event subscriber_limit_set(uint limit) ;\n    event subscriber_created(address subscriber_id) ;\n    event subscriber_removed(address subscriber_id) ;\n    event subscribed_to_event(address subscriber_id , address event_stream_id) ;\n    event unsubscribed_to_event(address subscriber_id , address event_stream_id) ;\n\n// setting up limit of event stream subscription\n\n    function set_message(string memory new_message) public {\n        message = new_message ;\n        emit emit_a_string(message) ;\n    }\n\n    function set_limit(uint limit) public OwnerOnly {\n        event_subscribe_limit = limit ; \n        emit subscriber_limit_set(limit) ;\n    }\n\n    struct Subscriber {\n        address subscriber_id ;\n        address[] event_streams_subscribed ; // stores address of events streams subscribed\n    }\n\n    struct Event_Stream_Iterator{\n        uint position;\n        bool event_exists;\n    }\n    \n    mapping(address => mapping(address => Event_Stream_Iterator)) event_stream_iterator_map ; // maps subscriber IDs to map of IDs of events \n    // subscribed to the iterator of last seen message\n\n    \n    function create_subscriber(address subscriber_id) public OwnerOnly returns(Subscriber memory) {\n    \tSubscriber memory s = Subscriber(subscriber_id, new address[](0));\n        emit subscriber_created(s.subscriber_id) ;\n\t    return s;\n    }\n\n\n    function delete_subscriber(Subscriber memory s) public OwnerOnly {\n        uint len = s.event_streams_subscribed.length;\n        for (uint i = 0; i < len; i++) {\n            delete event_stream_iterator_map[s.subscriber_id][s.event_streams_subscribed[i]]; // clearing associated mappings first\n        }\n        delete s.event_streams_subscribed; // clearing information of events_streams_subscribed\n        s.subscriber_id = address(0); // removing the address of subscriber\n        emit subscriber_removed(s.subscriber_id) ;\n    }\n\n\n    function unsubscribe_to_event(address event_stream_id, Subscriber memory s) public OwnerOnly {\n        require( event_stream_iterator_map[s.subscriber_id][event_stream_id].event_exists , \"Subscriber Has Not Subscribed To This Event\"); // checking if the event has been subscribed        uint i = 0;\n        uint i =0 ;\n        while(s.event_streams_subscribed[i] != event_stream_id){\n            i++;\n        }\n        delete event_stream_iterator_map[s.subscriber_id][event_stream_id] ; // clearing the map associated with the subscriber_id and event_stream_id pair\n        s.event_streams_subscribed[i] = address(0); // clearing the associated address\n        emit unsubscribed_to_event(s.subscriber_id, event_stream_id) ;\n    }\n\n    \n\n}\n",
  "sourcePath": "/home/neo/publisher-subscriber/contracts/Sub.sol",
  "compiler": {
    "name": "solc",
    "version": "0.8.19+commit.7dd6d404.Emscripten.clang"
  },
  "schemaVersion": "3.4.13",
  "updatedAt": "2023-04-10T18:48:25.400Z",
  "networkType": "ethereum",
  "devdoc": {
    "kind": "dev",
    "methods": {},
    "version": 1
  },
  "userdoc": {
    "kind": "user",
    "methods": {},
    "version": 1
  }
}