{
  "contractName": "Subscriber_Functions",
  "abi": [
    {
      "inputs": [],
      "stateMutability": "nonpayable",
      "type": "constructor"
    },
    {
      "anonymous": false,
      "inputs": [
        {
          "indexed": false,
          "internalType": "address",
          "name": "subscriber_id",
          "type": "address"
        },
        {
          "indexed": false,
          "internalType": "address",
          "name": "event_stream_id",
          "type": "address"
        }
      ],
      "name": "subscribed_to_event",
      "type": "event"
    },
    {
      "anonymous": false,
      "inputs": [
        {
          "indexed": false,
          "internalType": "address",
          "name": "subscriber_id",
          "type": "address"
        }
      ],
      "name": "subscriber_created",
      "type": "event"
    },
    {
      "anonymous": false,
      "inputs": [
        {
          "indexed": false,
          "internalType": "uint256",
          "name": "limit",
          "type": "uint256"
        }
      ],
      "name": "subscriber_limit_set",
      "type": "event"
    },
    {
      "anonymous": false,
      "inputs": [
        {
          "indexed": false,
          "internalType": "address",
          "name": "subscriber_id",
          "type": "address"
        }
      ],
      "name": "subscriber_removed",
      "type": "event"
    },
    {
      "anonymous": false,
      "inputs": [
        {
          "indexed": false,
          "internalType": "address",
          "name": "subscriber_id",
          "type": "address"
        },
        {
          "indexed": false,
          "internalType": "address",
          "name": "event_stream_id",
          "type": "address"
        }
      ],
      "name": "unsubscribed_to_event",
      "type": "event"
    },
    {
      "inputs": [],
      "name": "event_subscribe_limit",
      "outputs": [
        {
          "internalType": "uint256",
          "name": "",
          "type": "uint256"
        }
      ],
      "stateMutability": "view",
      "type": "function",
      "constant": true
    },
    {
      "inputs": [
        {
          "internalType": "uint256",
          "name": "limit",
          "type": "uint256"
        }
      ],
      "name": "set_limit",
      "outputs": [],
      "stateMutability": "nonpayable",
      "type": "function"
    },
    {
      "inputs": [
        {
          "internalType": "address",
          "name": "subscriber_id",
          "type": "address"
        }
      ],
      "name": "create_subscriber",
      "outputs": [
        {
          "components": [
            {
              "internalType": "address",
              "name": "subscriber_id",
              "type": "address"
            },
            {
              "internalType": "address[]",
              "name": "event_streams_subscribed",
              "type": "address[]"
            }
          ],
          "internalType": "struct Subscriber_Functions.Subscriber",
          "name": "",
          "type": "tuple"
        }
      ],
      "stateMutability": "nonpayable",
      "type": "function"
    },
    {
      "inputs": [
        {
          "components": [
            {
              "internalType": "address",
              "name": "subscriber_id",
              "type": "address"
            },
            {
              "internalType": "address[]",
              "name": "event_streams_subscribed",
              "type": "address[]"
            }
          ],
          "internalType": "struct Subscriber_Functions.Subscriber",
          "name": "s",
          "type": "tuple"
        }
      ],
      "name": "delete_subscriber",
      "outputs": [],
      "stateMutability": "nonpayable",
      "type": "function"
    },
    {
      "inputs": [
        {
          "internalType": "address",
          "name": "event_stream_id",
          "type": "address"
        },
        {
          "components": [
            {
              "internalType": "address",
              "name": "subscriber_id",
              "type": "address"
            },
            {
              "internalType": "address[]",
              "name": "event_streams_subscribed",
              "type": "address[]"
            }
          ],
          "internalType": "struct Subscriber_Functions.Subscriber",
          "name": "s",
          "type": "tuple"
        }
      ],
      "name": "unsubscribe_to_event",
      "outputs": [],
      "stateMutability": "nonpayable",
      "type": "function"
    }
  ],
  "bytecode": "0x6080604052600060015534801561001557600080fd5b50336000806101000a81548173ffffffffffffffffffffffffffffffffffffffff021916908373ffffffffffffffffffffffffffffffffffffffff160217905550610f64806100656000396000f3fe608060405234801561001057600080fd5b50600436106100575760003560e01c806362c8d1cc1461005c578063b327ed9514610078578063be028426146100a8578063dc990b8e146100c4578063f34e6810146100e2575b600080fd5b61007660048036038101906100719190610a84565b6100fe565b005b610092600480360381019061008d9190610acd565b6102f3565b60405161009f9190610bf5565b60405180910390f35b6100c260048036038101906100bd9190610c4d565b610445565b005b6100cc610514565b6040516100d99190610c89565b60405180910390f35b6100fc60048036038101906100f79190610ca4565b61051a565b005b60008054906101000a900473ffffffffffffffffffffffffffffffffffffffff1673ffffffffffffffffffffffffffffffffffffffff163373ffffffffffffffffffffffffffffffffffffffff161461018c576040517f08c379a000000000000000000000000000000000000000000000000000000000815260040161018390610d83565b60405180910390fd5b6000816020015151905060005b818110156102715760026000846000015173ffffffffffffffffffffffffffffffffffffffff1673ffffffffffffffffffffffffffffffffffffffff1681526020019081526020016000206000846020015183815181106101fd576101fc610da3565b5b602002602001015173ffffffffffffffffffffffffffffffffffffffff1673ffffffffffffffffffffffffffffffffffffffff1681526020019081526020016000206000808201600090556001820160006101000a81549060ff02191690555050808061026990610e01565b915050610199565b508160200160608152506000826000019073ffffffffffffffffffffffffffffffffffffffff16908173ffffffffffffffffffffffffffffffffffffffff16815250507fe017b4c85801d9d840b444e48a1d2a6e94a85a92cf120318e5ed6835b97168be82600001516040516102e79190610e58565b60405180910390a15050565b6102fb610813565b60008054906101000a900473ffffffffffffffffffffffffffffffffffffffff1673ffffffffffffffffffffffffffffffffffffffff163373ffffffffffffffffffffffffffffffffffffffff1614610389576040517f08c379a000000000000000000000000000000000000000000000000000000000815260040161038090610d83565b60405180910390fd5b600060405180604001604052808473ffffffffffffffffffffffffffffffffffffffff168152602001600067ffffffffffffffff8111156103cd576103cc61086d565b5b6040519080825280602002602001820160405280156103fb5781602001602082028036833780820191505090505b5081525090507fdf0c0edeac57243e48c6a82fcce4e446f34e27502ba733105fa8041f51e8660781600001516040516104349190610e58565b60405180910390a180915050919050565b60008054906101000a900473ffffffffffffffffffffffffffffffffffffffff1673ffffffffffffffffffffffffffffffffffffffff163373ffffffffffffffffffffffffffffffffffffffff16146104d3576040517f08c379a00000000000000000000000000000000000000000000000000000000081526004016104ca90610d83565b60405180910390fd5b806001819055507f25d8c8402881b9884efe45a147030964fbfd2cb04084577e05d08a5b5491fa9b816040516105099190610c89565b60405180910390a150565b60015481565b60008054906101000a900473ffffffffffffffffffffffffffffffffffffffff1673ffffffffffffffffffffffffffffffffffffffff163373ffffffffffffffffffffffffffffffffffffffff16146105a8576040517f08c379a000000000000000000000000000000000000000000000000000000000815260040161059f90610d83565b60405180910390fd5b60026000826000015173ffffffffffffffffffffffffffffffffffffffff1673ffffffffffffffffffffffffffffffffffffffff16815260200190815260200160002060008373ffffffffffffffffffffffffffffffffffffffff1673ffffffffffffffffffffffffffffffffffffffff16815260200190815260200160002060010160009054906101000a900460ff16610678576040517f08c379a000000000000000000000000000000000000000000000000000000000815260040161066f90610ee5565b60405180910390fd5b60005b8273ffffffffffffffffffffffffffffffffffffffff16826020015182815181106106a9576106a8610da3565b5b602002602001015173ffffffffffffffffffffffffffffffffffffffff16146106df5780806106d790610e01565b91505061067b565b60026000836000015173ffffffffffffffffffffffffffffffffffffffff1673ffffffffffffffffffffffffffffffffffffffff16815260200190815260200160002060008473ffffffffffffffffffffffffffffffffffffffff1673ffffffffffffffffffffffffffffffffffffffff1681526020019081526020016000206000808201600090556001820160006101000a81549060ff0219169055505060008260200151828151811061079757610796610da3565b5b602002602001019073ffffffffffffffffffffffffffffffffffffffff16908173ffffffffffffffffffffffffffffffffffffffff16815250507f8b3c251b4ea383c405f696718057f2eb85dfe54d9984ff8ade7053ccfe0fa12e826000015184604051610806929190610f05565b60405180910390a1505050565b6040518060400160405280600073ffffffffffffffffffffffffffffffffffffffff168152602001606081525090565b6000604051905090565b600080fd5b600080fd5b600080fd5b6000601f19601f8301169050919050565b7f4e487b7100000000000000000000000000000000000000000000000000000000600052604160045260246000fd5b6108a58261085c565b810181811067ffffffffffffffff821117156108c4576108c361086d565b5b80604052505050565b60006108d7610843565b90506108e3828261089c565b919050565b600080fd5b600073ffffffffffffffffffffffffffffffffffffffff82169050919050565b6000610918826108ed565b9050919050565b6109288161090d565b811461093357600080fd5b50565b6000813590506109458161091f565b92915050565b600080fd5b600067ffffffffffffffff82111561096b5761096a61086d565b5b602082029050602081019050919050565b600080fd5b600061099461098f84610950565b6108cd565b905080838252602082019050602084028301858111156109b7576109b661097c565b5b835b818110156109e057806109cc8882610936565b8452602084019350506020810190506109b9565b5050509392505050565b600082601f8301126109ff576109fe61094b565b5b8135610a0f848260208601610981565b91505092915050565b600060408284031215610a2e57610a2d610857565b5b610a3860406108cd565b90506000610a4884828501610936565b600083015250602082013567ffffffffffffffff811115610a6c57610a6b6108e8565b5b610a78848285016109ea565b60208301525092915050565b600060208284031215610a9a57610a9961084d565b5b600082013567ffffffffffffffff811115610ab857610ab7610852565b5b610ac484828501610a18565b91505092915050565b600060208284031215610ae357610ae261084d565b5b6000610af184828501610936565b91505092915050565b610b038161090d565b82525050565b600081519050919050565b600082825260208201905092915050565b6000819050602082019050919050565b6000610b418383610afa565b60208301905092915050565b6000602082019050919050565b6000610b6582610b09565b610b6f8185610b14565b9350610b7a83610b25565b8060005b83811015610bab578151610b928882610b35565b9750610b9d83610b4d565b925050600181019050610b7e565b5085935050505092915050565b6000604083016000830151610bd06000860182610afa565b5060208301518482036020860152610be88282610b5a565b9150508091505092915050565b60006020820190508181036000830152610c0f8184610bb8565b905092915050565b6000819050919050565b610c2a81610c17565b8114610c3557600080fd5b50565b600081359050610c4781610c21565b92915050565b600060208284031215610c6357610c6261084d565b5b6000610c7184828501610c38565b91505092915050565b610c8381610c17565b82525050565b6000602082019050610c9e6000830184610c7a565b92915050565b60008060408385031215610cbb57610cba61084d565b5b6000610cc985828601610936565b925050602083013567ffffffffffffffff811115610cea57610ce9610852565b5b610cf685828601610a18565b9150509250929050565b600082825260208201905092915050565b7f4f6e6c79204f776e65722043616e2043616c6c20546869732046756e6374696f60008201527f6e2e000000000000000000000000000000000000000000000000000000000000602082015250565b6000610d6d602283610d00565b9150610d7882610d11565b604082019050919050565b60006020820190508181036000830152610d9c81610d60565b9050919050565b7f4e487b7100000000000000000000000000000000000000000000000000000000600052603260045260246000fd5b7f4e487b7100000000000000000000000000000000000000000000000000000000600052601160045260246000fd5b6000610e0c82610c17565b91507fffffffffffffffffffffffffffffffffffffffffffffffffffffffffffffffff8203610e3e57610e3d610dd2565b5b600182019050919050565b610e528161090d565b82525050565b6000602082019050610e6d6000830184610e49565b92915050565b7f5375627363726962657220486173204e6f74205375627363726962656420546f60008201527f2054686973204576656e74000000000000000000000000000000000000000000602082015250565b6000610ecf602b83610d00565b9150610eda82610e73565b604082019050919050565b60006020820190508181036000830152610efe81610ec2565b9050919050565b6000604082019050610f1a6000830185610e49565b610f276020830184610e49565b939250505056fea264697066735822122066a0b1bcfb3e5d3602302b69e8fb7d964570b8f925acd29da3c425f43d1427ca64736f6c63430008130033",
  "immutableReferences": {},
  "source": "pragma solidity >= 0.8.2 <0.9.0;\n\n\ncontract Subscriber_Functions {\n    \n    address owner;\n    \n    constructor() {\n        owner = msg.sender;\n    }\n    \n    modifier OwnerOnly() {\n        require(msg.sender == owner, \"Only Owner Can Call This Function.\");\n        _;\n    }\n\n    uint public event_subscribe_limit = 0 ;\n\n    event subscriber_limit_set(uint limit) ;\n    event subscriber_created(address subscriber_id) ;\n    event subscriber_removed(address subscriber_id) ;\n    event subscribed_to_event(address subscriber_id , address event_stream_id) ;\n    event unsubscribed_to_event(address subscriber_id , address event_stream_id) ;\n\n// setting up limit of event stream subscription\n    function set_limit(uint limit) public OwnerOnly {\n        event_subscribe_limit = limit ; \n        emit subscriber_limit_set(limit) ;\n    }\n\n    struct Subscriber {\n        address subscriber_id ;\n        address[] event_streams_subscribed ; // stores address of events streams subscribed\n    }\n\n    struct Event_Stream_Iterator{\n        uint position;\n        bool event_exists;\n    }\n    \n    mapping(address => mapping(address => Event_Stream_Iterator)) event_stream_iterator_map ; // maps subscriber IDs to map of IDs of events \n    // subscribed to the iterator of last seen message\n\n    \n    function create_subscriber(address subscriber_id) public OwnerOnly returns(Subscriber memory) {\n    \tSubscriber memory s = Subscriber(subscriber_id, new address[](0));\n        emit subscriber_created(s.subscriber_id) ;\n\t    return s;\n    }\n\n\n    function delete_subscriber(Subscriber memory s) public OwnerOnly {\n        uint len = s.event_streams_subscribed.length;\n        for (uint i = 0; i < len; i++) {\n            delete event_stream_iterator_map[s.subscriber_id][s.event_streams_subscribed[i]]; // clearing associated mappings first\n        }\n        delete s.event_streams_subscribed; // clearing information of events_streams_subscribed\n        s.subscriber_id = address(0); // removing the address of subscriber\n        emit subscriber_removed(s.subscriber_id) ;\n    }\n\n\n    function unsubscribe_to_event(address event_stream_id, Subscriber memory s) public OwnerOnly {\n        require( event_stream_iterator_map[s.subscriber_id][event_stream_id].event_exists , \"Subscriber Has Not Subscribed To This Event\"); // checking if the event has been subscribed        uint i = 0;\n        uint i =0 ;\n        while(s.event_streams_subscribed[i] != event_stream_id){\n            i++;\n        }\n        delete event_stream_iterator_map[s.subscriber_id][event_stream_id] ; // clearing the map associated with the subscriber_id and event_stream_id pair\n        s.event_streams_subscribed[i] = address(0); // clearing the associated address\n        emit unsubscribed_to_event(s.subscriber_id, event_stream_id) ;\n    }\n\n\n}\n",
  "sourcePath": "/home/nikhil/Documents/og_pub_sub/publisher-subscriber/contracts/scripts/sub.sol",
  "compiler": {
    "name": "solc",
    "version": "0.8.19+commit.7dd6d404.Emscripten.clang"
  },
  "schemaVersion": "3.4.13",
  "updatedAt": "2023-04-14T11:40:37.337Z",
  "networkType": "ethereum",
  "devdoc": {
    "kind": "dev",
    "methods": {},
    "version": 1
  },
  "userdoc": {
    "kind": "user",
    "methods": {},
    "version": 1
  }
}