{
  "contractName": "subscriber_Functions",
  "abi": [
    {
      "inputs": [],
      "stateMutability": "nonpayable",
      "type": "constructor"
    },
    {
      "anonymous": false,
      "inputs": [
        {
          "indexed": false,
          "internalType": "address",
          "name": "subscriber_id",
          "type": "address"
        },
        {
          "indexed": false,
          "internalType": "uint256",
          "name": "event_stream_id",
          "type": "uint256"
        }
      ],
      "name": "subscribed_to_event",
      "type": "event"
    },
    {
      "anonymous": false,
      "inputs": [
        {
          "indexed": false,
          "internalType": "string",
          "name": "name",
          "type": "string"
        },
        {
          "indexed": false,
          "internalType": "address",
          "name": "subscriber_id",
          "type": "address"
        }
      ],
      "name": "subscriber_created",
      "type": "event"
    },
    {
      "anonymous": false,
      "inputs": [
        {
          "indexed": false,
          "internalType": "uint256",
          "name": "limit",
          "type": "uint256"
        }
      ],
      "name": "subscriber_limit_set",
      "type": "event"
    },
    {
      "anonymous": false,
      "inputs": [
        {
          "indexed": false,
          "internalType": "address",
          "name": "subscriber_id",
          "type": "address"
        }
      ],
      "name": "subscriber_removed",
      "type": "event"
    },
    {
      "anonymous": false,
      "inputs": [
        {
          "indexed": false,
          "internalType": "address",
          "name": "subscriber_id",
          "type": "address"
        },
        {
          "indexed": false,
          "internalType": "uint256",
          "name": "event_stream_id",
          "type": "uint256"
        }
      ],
      "name": "unsubscribed_to_event",
      "type": "event"
    },
    {
      "inputs": [],
      "name": "event_subscribe_limit",
      "outputs": [
        {
          "internalType": "uint256",
          "name": "",
          "type": "uint256"
        }
      ],
      "stateMutability": "view",
      "type": "function"
    },
    {
      "inputs": [
        {
          "internalType": "address",
          "name": "",
          "type": "address"
        }
      ],
      "name": "subscriber_list",
      "outputs": [
        {
          "internalType": "string",
          "name": "name",
          "type": "string"
        },
        {
          "internalType": "address",
          "name": "subscriber_id",
          "type": "address"
        },
        {
          "internalType": "bool",
          "name": "exists",
          "type": "bool"
        }
      ],
      "stateMutability": "view",
      "type": "function"
    },
    {
      "inputs": [
        {
          "internalType": "uint256",
          "name": "limit",
          "type": "uint256"
        }
      ],
      "name": "set_limit",
      "outputs": [],
      "stateMutability": "nonpayable",
      "type": "function"
    },
    {
      "inputs": [
        {
          "internalType": "address",
          "name": "sub_id",
          "type": "address"
        }
      ],
      "name": "delete_subscriber",
      "outputs": [],
      "stateMutability": "nonpayable",
      "type": "function"
    },
    {
      "inputs": [
        {
          "internalType": "uint256",
          "name": "stream_id",
          "type": "uint256"
        },
        {
          "internalType": "address",
          "name": "sub_id",
          "type": "address"
        }
      ],
      "name": "subscribe_to_eventstream",
      "outputs": [],
      "stateMutability": "nonpayable",
      "type": "function"
    },
    {
      "inputs": [
        {
          "internalType": "uint256",
          "name": "stream_id",
          "type": "uint256"
        },
        {
          "internalType": "address",
          "name": "sub_id",
          "type": "address"
        }
      ],
      "name": "unsubscribe_to_eventstream",
      "outputs": [],
      "stateMutability": "nonpayable",
      "type": "function"
    },
    {
      "inputs": [
        {
          "internalType": "address",
          "name": "sub_id",
          "type": "address"
        }
      ],
      "name": "get_subscriber",
      "outputs": [
        {
          "internalType": "string",
          "name": "",
          "type": "string"
        },
        {
          "internalType": "address",
          "name": "",
          "type": "address"
        },
        {
          "internalType": "uint256[]",
          "name": "",
          "type": "uint256[]"
        }
      ],
      "stateMutability": "view",
      "type": "function"
    }
  ],
  "bytecode": "0x6080604052600060015534801561001557600080fd5b50336000806101000a81548173ffffffffffffffffffffffffffffffffffffffff021916908373ffffffffffffffffffffffffffffffffffffffff160217905550611f84806100656000396000f3fe608060405234801561001057600080fd5b506004361061007d5760003560e01c8063be0284261161005b578063be028426146100ec578063be716e6514610108578063becf17491461013a578063dc990b8e146101565761007d565b80631240fec1146100825780637060fe561461009e5780639ba507c6146100ba575b600080fd5b61009c60048036038101906100979190611590565b610174565b005b6100b860048036038101906100b39190611590565b6104da565b005b6100d460048036038101906100cf91906115d0565b61099e565b6040516100e39392919061175a565b60405180910390f35b6101066004803603810190610101919061179f565b610c0c565b005b610122600480360381019061011d91906115d0565b610cdb565b604051610131939291906117e7565b60405180910390f35b610154600480360381019061014f91906115d0565b610dba565b005b61015e611487565b60405161016b9190611834565b60405180910390f35b60011515600360008373ffffffffffffffffffffffffffffffffffffffff1673ffffffffffffffffffffffffffffffffffffffff16815260200190815260200160002060010160149054906101000a900460ff1615151461020a576040517f08c379a00000000000000000000000000000000000000000000000000000000081526004016102019061189b565b60405180910390fd5b3373ffffffffffffffffffffffffffffffffffffffff16600360008373ffffffffffffffffffffffffffffffffffffffff1673ffffffffffffffffffffffffffffffffffffffff16815260200190815260200160002060010160009054906101000a900473ffffffffffffffffffffffffffffffffffffffff1673ffffffffffffffffffffffffffffffffffffffff16146102da576040517f08c379a00000000000000000000000000000000000000000000000000000000081526004016102d19061192d565b60405180910390fd5b6000600360008373ffffffffffffffffffffffffffffffffffffffff1673ffffffffffffffffffffffffffffffffffffffff1681526020019081526020016000206002018054905090506001548114610368576040517f08c379a000000000000000000000000000000000000000000000000000000000815260040161035f90611999565b60405180910390fd5b82600360008473ffffffffffffffffffffffffffffffffffffffff1673ffffffffffffffffffffffffffffffffffffffff1681526020019081526020016000206002016001836103b891906119e8565b815481106103c9576103c8611a1c565b5b90600052602060002001819055506000600460008473ffffffffffffffffffffffffffffffffffffffff1673ffffffffffffffffffffffffffffffffffffffff1681526020019081526020016000206000858152602001908152602001600020600001819055506001600460008473ffffffffffffffffffffffffffffffffffffffff1673ffffffffffffffffffffffffffffffffffffffff168152602001908152602001600020600085815260200190815260200160002060010160006101000a81548160ff0219169083151502179055507fc68e27c73b0ccc16352585df903c19ac53e703ebe659ee5c9e421184908ea5ab82846040516104cd929190611a4b565b60405180910390a1505050565b60008054906101000a900473ffffffffffffffffffffffffffffffffffffffff1673ffffffffffffffffffffffffffffffffffffffff163373ffffffffffffffffffffffffffffffffffffffff1614610568576040517f08c379a000000000000000000000000000000000000000000000000000000000815260040161055f90611ae6565b60405180910390fd5b60011515600360008373ffffffffffffffffffffffffffffffffffffffff1673ffffffffffffffffffffffffffffffffffffffff16815260200190815260200160002060010160149054906101000a900460ff161515146105fe576040517f08c379a00000000000000000000000000000000000000000000000000000000081526004016105f59061189b565b60405180910390fd5b3373ffffffffffffffffffffffffffffffffffffffff16600360008373ffffffffffffffffffffffffffffffffffffffff1673ffffffffffffffffffffffffffffffffffffffff16815260200190815260200160002060010160009054906101000a900473ffffffffffffffffffffffffffffffffffffffff1673ffffffffffffffffffffffffffffffffffffffff16146106ce576040517f08c379a00000000000000000000000000000000000000000000000000000000081526004016106c59061192d565b60405180910390fd5b7fffffffffffffffffffffffffffffffffffffffffffffffffffffffffffffffff600460008373ffffffffffffffffffffffffffffffffffffffff1673ffffffffffffffffffffffffffffffffffffffff1681526020019081526020016000206000848152602001908152602001600020600001819055506000600460008373ffffffffffffffffffffffffffffffffffffffff1673ffffffffffffffffffffffffffffffffffffffff168152602001908152602001600020600084815260200190815260200160002060010160006101000a81548160ff021916908315150217905550600460008273ffffffffffffffffffffffffffffffffffffffff1673ffffffffffffffffffffffffffffffffffffffff16815260200190815260200160002060008381526020019081526020016000206000808201600090556001820160006101000a81549060ff0219169055505060005b82600360008473ffffffffffffffffffffffffffffffffffffffff1673ffffffffffffffffffffffffffffffffffffffff168152602001908152602001600020600201828154811061087957610878611a1c565b5b90600052602060002001541461089c57808061089490611b06565b915050610824565b600360008373ffffffffffffffffffffffffffffffffffffffff1673ffffffffffffffffffffffffffffffffffffffff16815260200190815260200160002060020181815481106108f0576108ef611a1c565b5b90600052602060002001600090557f1ed9b67dbf24a68c1cc2bef32f17ab102578ac07726b4a83a25be6ecacbde234600360008473ffffffffffffffffffffffffffffffffffffffff1673ffffffffffffffffffffffffffffffffffffffff16815260200190815260200160002060010160009054906101000a900473ffffffffffffffffffffffffffffffffffffffff1684604051610991929190611a4b565b60405180910390a1505050565b60606000606060011515600360008673ffffffffffffffffffffffffffffffffffffffff1673ffffffffffffffffffffffffffffffffffffffff16815260200190815260200160002060010160149054906101000a900460ff16151514610a3a576040517f08c379a0000000000000000000000000000000000000000000000000000000008152600401610a3190611b9a565b60405180910390fd5b600360008573ffffffffffffffffffffffffffffffffffffffff1673ffffffffffffffffffffffffffffffffffffffff168152602001908152602001600020600001600360008673ffffffffffffffffffffffffffffffffffffffff1673ffffffffffffffffffffffffffffffffffffffff16815260200190815260200160002060010160009054906101000a900473ffffffffffffffffffffffffffffffffffffffff16600360008773ffffffffffffffffffffffffffffffffffffffff1673ffffffffffffffffffffffffffffffffffffffff168152602001908152602001600020600201828054610b2d90611be9565b80601f0160208091040260200160405190810160405280929190818152602001828054610b5990611be9565b8015610ba65780601f10610b7b57610100808354040283529160200191610ba6565b820191906000526020600020905b815481529060010190602001808311610b8957829003601f168201915b5050505050925080805480602002602001604051908101604052809291908181526020018280548015610bf857602002820191906000526020600020905b815481526020019060010190808311610be4575b505050505090509250925092509193909250565b60008054906101000a900473ffffffffffffffffffffffffffffffffffffffff1673ffffffffffffffffffffffffffffffffffffffff163373ffffffffffffffffffffffffffffffffffffffff1614610c9a576040517f08c379a0000000000000000000000000000000000000000000000000000000008152600401610c9190611ae6565b60405180910390fd5b806001819055507f25d8c8402881b9884efe45a147030964fbfd2cb04084577e05d08a5b5491fa9b81604051610cd09190611834565b60405180910390a150565b6003602052806000526040600020600091509050806000018054610cfe90611be9565b80601f0160208091040260200160405190810160405280929190818152602001828054610d2a90611be9565b8015610d775780601f10610d4c57610100808354040283529160200191610d77565b820191906000526020600020905b815481529060010190602001808311610d5a57829003601f168201915b5050505050908060010160009054906101000a900473ffffffffffffffffffffffffffffffffffffffff16908060010160149054906101000a900460ff16905083565b60008054906101000a900473ffffffffffffffffffffffffffffffffffffffff1673ffffffffffffffffffffffffffffffffffffffff163373ffffffffffffffffffffffffffffffffffffffff1614610e48576040517f08c379a0000000000000000000000000000000000000000000000000000000008152600401610e3f90611ae6565b60405180910390fd5b60011515600360008373ffffffffffffffffffffffffffffffffffffffff1673ffffffffffffffffffffffffffffffffffffffff16815260200190815260200160002060010160149054906101000a900460ff16151514610ede576040517f08c379a0000000000000000000000000000000000000000000000000000000008152600401610ed590611c66565b60405180910390fd5b3373ffffffffffffffffffffffffffffffffffffffff16600360008373ffffffffffffffffffffffffffffffffffffffff1673ffffffffffffffffffffffffffffffffffffffff16815260200190815260200160002060010160009054906101000a900473ffffffffffffffffffffffffffffffffffffffff1673ffffffffffffffffffffffffffffffffffffffff1614610fae576040517f08c379a0000000000000000000000000000000000000000000000000000000008152600401610fa59061192d565b60405180910390fd5b6000600360008373ffffffffffffffffffffffffffffffffffffffff1673ffffffffffffffffffffffffffffffffffffffff16815260200190815260200160002060405180608001604052908160008201805461100a90611be9565b80601f016020809104026020016040519081016040528092919081815260200182805461103690611be9565b80156110835780601f1061105857610100808354040283529160200191611083565b820191906000526020600020905b81548152906001019060200180831161106657829003601f168201915b505050505081526020016001820160009054906101000a900473ffffffffffffffffffffffffffffffffffffffff1673ffffffffffffffffffffffffffffffffffffffff1673ffffffffffffffffffffffffffffffffffffffff1681526020016001820160149054906101000a900460ff161515151581526020016002820180548060200260200160405190810160405280929190818152602001828054801561114c57602002820191906000526020600020905b815481526020019060010190808311611138575b505050505081525050905060005b81606001515181101561120d576000826060015182815181106111805761117f611a1c565b5b60200260200101519050600460008573ffffffffffffffffffffffffffffffffffffffff1673ffffffffffffffffffffffffffffffffffffffff16815260200190815260200160002060008281526020019081526020016000206000808201600090556001820160006101000a81549060ff0219169055505050808061120590611b06565b91505061115a565b506000600360008473ffffffffffffffffffffffffffffffffffffffff1673ffffffffffffffffffffffffffffffffffffffff16815260200190815260200160002060010160146101000a81548160ff02191690831515021790555060405180602001604052806000815250600360008473ffffffffffffffffffffffffffffffffffffffff1673ffffffffffffffffffffffffffffffffffffffff16815260200190815260200160002060000190816112c79190611e61565b506000600360008473ffffffffffffffffffffffffffffffffffffffff1673ffffffffffffffffffffffffffffffffffffffff16815260200190815260200160002060010160006101000a81548173ffffffffffffffffffffffffffffffffffffffff021916908373ffffffffffffffffffffffffffffffffffffffff160217905550600067ffffffffffffffff81111561136557611364611c86565b5b6040519080825280602002602001820160405280156113935781602001602082028036833780820191505090505b50600360008473ffffffffffffffffffffffffffffffffffffffff1673ffffffffffffffffffffffffffffffffffffffff16815260200190815260200160002060020190805190602001906113e992919061148d565b507fe017b4c85801d9d840b444e48a1d2a6e94a85a92cf120318e5ed6835b97168be600360008473ffffffffffffffffffffffffffffffffffffffff1673ffffffffffffffffffffffffffffffffffffffff16815260200190815260200160002060010160009054906101000a900473ffffffffffffffffffffffffffffffffffffffff1660405161147b9190611f33565b60405180910390a15050565b60015481565b8280548282559060005260206000209081019282156114c9579160200282015b828111156114c85782518255916020019190600101906114ad565b5b5090506114d691906114da565b5090565b5b808211156114f35760008160009055506001016114db565b5090565b600080fd5b6000819050919050565b61150f816114fc565b811461151a57600080fd5b50565b60008135905061152c81611506565b92915050565b600073ffffffffffffffffffffffffffffffffffffffff82169050919050565b600061155d82611532565b9050919050565b61156d81611552565b811461157857600080fd5b50565b60008135905061158a81611564565b92915050565b600080604083850312156115a7576115a66114f7565b5b60006115b58582860161151d565b92505060206115c68582860161157b565b9150509250929050565b6000602082840312156115e6576115e56114f7565b5b60006115f48482850161157b565b91505092915050565b600081519050919050565b600082825260208201905092915050565b60005b8381101561163757808201518184015260208101905061161c565b60008484015250505050565b6000601f19601f8301169050919050565b600061165f826115fd565b6116698185611608565b9350611679818560208601611619565b61168281611643565b840191505092915050565b61169681611552565b82525050565b600081519050919050565b600082825260208201905092915050565b6000819050602082019050919050565b6116d1816114fc565b82525050565b60006116e383836116c8565b60208301905092915050565b6000602082019050919050565b60006117078261169c565b61171181856116a7565b935061171c836116b8565b8060005b8381101561174d57815161173488826116d7565b975061173f836116ef565b925050600181019050611720565b5085935050505092915050565b600060608201905081810360008301526117748186611654565b9050611783602083018561168d565b818103604083015261179581846116fc565b9050949350505050565b6000602082840312156117b5576117b46114f7565b5b60006117c38482850161151d565b91505092915050565b60008115159050919050565b6117e1816117cc565b82525050565b600060608201905081810360008301526118018186611654565b9050611810602083018561168d565b61181d60408301846117d8565b949350505050565b61182e816114fc565b82525050565b60006020820190506118496000830184611825565b92915050565b7f5375627363726962657220646f6573206e6f7420657869737473000000000000600082015250565b6000611885601a83611608565b91506118908261184f565b602082019050919050565b600060208201905081810360008301526118b481611878565b9050919050565b7f796f7520617265206e6f7420616c6c6f77656420746f2064656c65746520746860008201527f6973207075626c69736865720000000000000000000000000000000000000000602082015250565b6000611917602c83611608565b9150611922826118bb565b604082019050919050565b600060208201905081810360008301526119468161190a565b9050919050565b7f537562736372697074696f6e206c696d69742072656163686564000000000000600082015250565b6000611983601a83611608565b915061198e8261194d565b602082019050919050565b600060208201905081810360008301526119b281611976565b9050919050565b7f4e487b7100000000000000000000000000000000000000000000000000000000600052601160045260246000fd5b60006119f3826114fc565b91506119fe836114fc565b9250828201905080821115611a1657611a156119b9565b5b92915050565b7f4e487b7100000000000000000000000000000000000000000000000000000000600052603260045260246000fd5b6000604082019050611a60600083018561168d565b611a6d6020830184611825565b9392505050565b7f4f6e6c79204f776e65722043616e2043616c6c20546869732046756e6374696f60008201527f6e2e000000000000000000000000000000000000000000000000000000000000602082015250565b6000611ad0602283611608565b9150611adb82611a74565b604082019050919050565b60006020820190508181036000830152611aff81611ac3565b9050919050565b6000611b11826114fc565b91507fffffffffffffffffffffffffffffffffffffffffffffffffffffffffffffffff8203611b4357611b426119b9565b5b600182019050919050565b7f7375627363726962657220646f6573206e6f7420657869737473000000000000600082015250565b6000611b84601a83611608565b9150611b8f82611b4e565b602082019050919050565b60006020820190508181036000830152611bb381611b77565b9050919050565b7f4e487b7100000000000000000000000000000000000000000000000000000000600052602260045260246000fd5b60006002820490506001821680611c0157607f821691505b602082108103611c1457611c13611bba565b5b50919050565b7f7075626c697368657220646f6573206e6f742065786973747300000000000000600082015250565b6000611c50601983611608565b9150611c5b82611c1a565b602082019050919050565b60006020820190508181036000830152611c7f81611c43565b9050919050565b7f4e487b7100000000000000000000000000000000000000000000000000000000600052604160045260246000fd5b60008190508160005260206000209050919050565b60006020601f8301049050919050565b600082821b905092915050565b600060088302611d177fffffffffffffffffffffffffffffffffffffffffffffffffffffffffffffffff82611cda565b611d218683611cda565b95508019841693508086168417925050509392505050565b6000819050919050565b6000611d5e611d59611d54846114fc565b611d39565b6114fc565b9050919050565b6000819050919050565b611d7883611d43565b611d8c611d8482611d65565b848454611ce7565b825550505050565b600090565b611da1611d94565b611dac818484611d6f565b505050565b5b81811015611dd057611dc5600082611d99565b600181019050611db2565b5050565b601f821115611e1557611de681611cb5565b611def84611cca565b81016020851015611dfe578190505b611e12611e0a85611cca565b830182611db1565b50505b505050565b600082821c905092915050565b6000611e3860001984600802611e1a565b1980831691505092915050565b6000611e518383611e27565b9150826002028217905092915050565b611e6a826115fd565b67ffffffffffffffff811115611e8357611e82611c86565b5b611e8d8254611be9565b611e98828285611dd4565b600060209050601f831160018114611ecb5760008415611eb9578287015190505b611ec38582611e45565b865550611f2b565b601f198416611ed986611cb5565b60005b82811015611f0157848901518255600182019150602085019450602081019050611edc565b86831015611f1e5784890151611f1a601f891682611e27565b8355505b6001600288020188555050505b505050505050565b6000602082019050611f48600083018461168d565b9291505056fea26469706673582212208eaee5a07eeeaaf92fcf9dd515d9d8ed7602b6d80af19645b67bf32aae99da3964736f6c63430008130033",
  "immutableReferences": {},
  "source": "pragma solidity >= 0.8.2 <0.9.0;\r\n\r\n\r\ncontract subscriber_Functions {\r\n    \r\n    address owner;\r\n    \r\n    constructor() {\r\n        owner = msg.sender;\r\n    }\r\n    \r\n    modifier OwnerOnly() {\r\n        require(msg.sender == owner, \"Only Owner Can Call This Function.\");\r\n        _;\r\n    }\r\n\r\n    uint public event_subscribe_limit = 0 ;\r\n\r\n    event subscriber_limit_set(uint limit) ;\r\n    event subscriber_created(string name, address subscriber_id) ;\r\n    event subscriber_removed(address subscriber_id) ;\r\n    event subscribed_to_event(address subscriber_id, uint event_stream_id) ;\r\n    event unsubscribed_to_event(address subscriber_id, uint event_stream_id) ;\r\n\r\n// setting up limit of event stream subscription\r\n    function set_limit(uint limit) public OwnerOnly {\r\n        event_subscribe_limit = limit ; \r\n        emit subscriber_limit_set(limit) ;\r\n    }\r\n\r\n    subscriber[] subscribers;\r\n    struct subscriber {\r\n        string name;\r\n        address subscriber_id ;\r\n        bool exists;\r\n        uint[] event_streams_subscribed ; // stores address of events streams subscribed\r\n        // mapping(uint => int)  stack;\r\n    }\r\n\r\n    struct subscriber_stack{\r\n        int last_seen_pos;\r\n        bool subscription;\r\n    }\r\n    \r\n    // struct stream_collection{\r\n    //     mapping(uint => subscriber_stack)  lastseen_stack;\r\n    //     bool _isDeleted;\r\n    // }\r\n\r\n    mapping (address => subscriber) public subscriber_list;\r\n    mapping(address => mapping(uint => subscriber_stack)) subscription_map;         // All subscribers <-> subscriptions\r\n    // mapping(address =>  stream_collection) subscription_map ; // maps subscriber -> List[ his subscriptions ]\r\n    //List[ subscriptions ] are stored as a mapping from event_stream_id -> lastseen_stack for each eventstream \r\n\r\n    \r\n    function create_subscriber(string memory _name, address _subscriber_id) internal OwnerOnly returns(subscriber memory){\r\n        // subscriber storage s = subscribers.push();\r\n        // s.name = _name; s.subscriber_id = _subscriber_id; s.exists = true; \r\n        // s.event_streams_subscribed = new uint[](0);\r\n\r\n    \tsubscriber memory s = subscriber({\r\n                            name: _name,\r\n                            subscriber_id: _subscriber_id, \r\n                            exists: true,\r\n                            event_streams_subscribed: new uint[](0)});\r\n        subscriber_list[_subscriber_id] = s;\r\n        emit subscriber_created(s.name, s.subscriber_id) ;\r\n\t    return s;\r\n    }\r\n\r\n\r\n    function delete_subscriber(address sub_id) public OwnerOnly {\r\n        require(subscriber_list[sub_id].exists == true, \"publisher does not exists\");\r\n        require(subscriber_list[sub_id].subscriber_id == msg.sender, \"you are not allowed to delete this publisher\");\r\n\r\n        //deleting from subscription map\r\n        subscriber memory s = subscriber_list[sub_id];\r\n        for(uint i = 0; i < s.event_streams_subscribed.length; i++){\r\n            uint stream_id_for_deletion = s.event_streams_subscribed[i];\r\n            delete subscription_map[sub_id][stream_id_for_deletion];\r\n        }\r\n        subscriber_list[sub_id].exists = false;\r\n        subscriber_list[sub_id].name = \"\";\r\n        subscriber_list[sub_id].subscriber_id = address(0);    // removing the address of subscriber\r\n        subscriber_list[sub_id].event_streams_subscribed = new uint[](0); // clearing information of events_streams_subscribed\r\n\r\n        emit subscriber_removed(subscriber_list[sub_id].subscriber_id) ;\r\n    }\r\n\r\n    function subscribe_to_eventstream(uint stream_id, address sub_id) public {\r\n        require(subscriber_list[sub_id].exists == true, \"Subscriber does not exists\");\r\n        require(subscriber_list[sub_id].subscriber_id == msg.sender, \"you are not allowed to delete this publisher\");\r\n        \r\n        // Issue left to resolve- Check whetehr the stream_id is valid\r\n\r\n        uint count_subscribed = subscriber_list[sub_id].event_streams_subscribed.length;\r\n        require(count_subscribed == event_subscribe_limit, \"Subscription limit reached\");\r\n        subscriber_list[sub_id].event_streams_subscribed[count_subscribed + 1] = stream_id;\r\n\r\n        subscription_map[sub_id][stream_id].last_seen_pos = 0;\r\n        subscription_map[sub_id][stream_id].subscription = true;\r\n\r\n        emit subscribed_to_event(sub_id, stream_id) ;\r\n\r\n    }\r\n\r\n    function unsubscribe_to_eventstream(uint stream_id, address sub_id) public OwnerOnly {\r\n        require(subscriber_list[sub_id].exists == true, \"Subscriber does not exists\");\r\n        require(subscriber_list[sub_id].subscriber_id == msg.sender, \"you are not allowed to delete this publisher\");\r\n\r\n        subscription_map[sub_id][stream_id].last_seen_pos = -1;\r\n        subscription_map[sub_id][stream_id].subscription = false;\r\n        delete subscription_map[sub_id][stream_id];\r\n\r\n        uint i =0 ;\r\n        while(subscriber_list[sub_id].event_streams_subscribed[i] != stream_id){\r\n            i++;\r\n        }\r\n        delete subscriber_list[sub_id].event_streams_subscribed[i] ;\r\n        emit unsubscribed_to_event(subscriber_list[sub_id].subscriber_id, stream_id) ;\r\n    }\r\n\r\n    function get_subscriber(address sub_id) public view returns(string memory, address , uint[] memory){\r\n        require(subscriber_list[sub_id].exists == true, \"subscriber does not exists\");\r\n        return (subscriber_list[sub_id].name, subscriber_list[sub_id].subscriber_id, subscriber_list[sub_id].event_streams_subscribed);\r\n    }\r\n\r\n\r\n}\r\n",
  "sourcePath": "C:\\Users\\Varu\\Desktop\\pub sub\\env1\\publisher-subscriber\\contracts\\scripts\\sub.sol",
  "compiler": {
    "name": "solc",
    "version": "0.8.19+commit.7dd6d404.Emscripten.clang"
  },
  "schemaVersion": "3.4.13",
  "updatedAt": "2023-04-09T10:28:39.037Z",
  "devdoc": {
    "kind": "dev",
    "methods": {},
    "version": 1
  },
  "userdoc": {
    "kind": "user",
    "methods": {},
    "version": 1
  }
}